:100000000C9431020C9478020C9478020C947802CF
:100010000C9478020C9478020C9478020C94780278
:100020000C9478020C9478020C942E220C94FF22EB
:100030000C94FB1C0C9478020C9478020C947802BB
:100040000C9478020C9478020C9478020C94780248
:100050000C94550B0C94521D0C9478020C9478025D
:100060000C9478020C947C020C94AC020C947802F0
:100070000C9478020C9478020C9478020C94780218
:100080000C9478020C9478020C9478020C94780208
:100090000C9478020C9478020C9478020C947802F8
:1000A0000C9478020C9478020C94780229001E00BB
:1000B0001F0020002100220023002400250026002C
:1000C00027002D002E002A004C002B0014001A00DF
:1000D0000800150017001C0018000C001200130087
:1000E0002F003000310049003900040016000700DD
:1000F00009000A000B000D000E000F003300340051
:10010000280000004B00E10000001D001B0006005D
:100110001900050011001000360037003800E50016
:1001200052004E00E000E300E2000000000000008A
:1001300000002C0000000000E600E4005000510028
:100140004F00010001000100010001000100010059
:100150000100010001000100010001000100010097
:100160000100010001000100010001000100010087
:100170000100010001000100010001000100010077
:100180000100010001000100010001000100010067
:100190000100010001000100000001000100000059
:1001A0000100010001000100010001000100010047
:1001B0000100010001000100010001000100010037
:1001C000000000000000000001000000000001002D
:1001D000010001000100010000000000000000001B
:1001E0002A2B280000000000000000000000000092
:1001F00000000029000000002C1E3420212224349D
:100200002627252E362D3738271E1F20212223246E
:1002100025263333362E37381F0405060708090A0A
:100220000B0C0D0E0F101112131415161718191AA6
:100230001B1C1D2F3130232D350405060708090A24
:100240000B0C0D0E0F101112131415161718191A86
:100250001B1C1D2F3130354C000000000000000039
:100260000000000000000000000000007E0F00D42D
:10027000FFFFFFC700000078000000000000000042
:1002800000000001010203040506080A0C0F111406
:10029000181C2024292E33393F464C535B626A7167
:1002A00079818A929AA2AAB2B9C1C8CFD5DCE1E716
:1002B000EBF0F4F7FAFCFDFEFFFEFDFCFAF7F4F0BC
:1002C000EBE7E1DCD5CFC8C1B9B2AAA29A928A8184
:1002D00079716A625B534C463F39332E2924201CC6
:1002E0001814110F0C0A080605040302010100008E
:1002F00000000000000000000403300000001003B4
:1003000056004900530054004100360035000000FB
:1003100010034C004E00450020004C0061006200BC
:1003200000000403090409025B00030100A0FA09AC
:100330000400000103010100092111010001224014
:10034000000705810308000A0904010002030000F8
:10035000000921110100012222000705820320006B
:100360000107050303200001090402000103000046
:1003700000092111010001226D00070584032000FE
:100380000A12011001000000080912282303E001ED
:100390000203010660FF0961A1010962150026FF41
:1003A000009520750881020963150026FF0095203D
:1003B00075089102C005010980A101850319012A70
:1003C000B700150126B700950175108100C0050C16
:1003D0000901A101850419012AA002150126A00224
:1003E000950175108100C005010906A1018505056B
:1003F0000719E029E7150025019508750181020517
:1004000007190029EF1500250195F07501810205F6
:10041000081901290595057501910295017503914A
:1004200001C005010906A101050719E029E715002A
:10043000250195087501810295017508810105075F
:10044000190029FF150026FF009506750881000593
:10045000081901290595057501910295017503910A
:1004600001C011241FBECFEFDAE0DEBFCDBF04B65E
:1004700003FE27C08091C2049091C304A091C404DC
:10048000B091C5048730904BA740B04BD1F4109287
:10049000C2041092C3041092C4041092C50414BE86
:1004A00084B7877F84BF0FB6F894A89580916000C9
:1004B000886180936000109260000FBEE0E0F8E376
:1004C000099512E0A0E0B1E0E4EAF0E502C0059091
:1004D0000D92AC37B107D9F724E0ACE7B2E001C028
:1004E0001D92A23CB207E1F70E942A040C940E2848
:1004F0000C940000789408951F921FB61F92112447
:100500002F933F934F938F939F93EF93FF9320915C
:10051000C8003091CE0080917E0290E001968F77E6
:10052000992740917D0248171906A1F02871809300
:100530007E028F579D4FFC01308320937C02FF91F8
:10054000EF919F918F914F913F912F911F901FBEDF
:100550001F90189522E0F1CF8F938FB78F939F93C1
:10056000EF93FF939091800280917F029817A9F0FA
:1005700080917F0290E001968F77992780937F0288
:100580008F5F9C4FFC0180818093CE00FF91EF91A3
:100590009F918F918FBF8F9118958091C9008F7D0A
:1005A0008093C900F3CFCF93DF93EC01F8941092BE
:1005B000800210927F0210927E0210927D020E94B1
:1005C0007A02D7FF04C082E08093C800DF77D0931F
:1005D000CD00C093CC0088E98093C90086E0809369
:1005E000CA00DF91CF9108952091800230E02F5F03
:1005F0003F4F2F77332790917F0292171306D9F33D
:10060000F901EF5FFC4F8083209380028091C90045
:1006100080628093C9000895CF93DF93EC018991A4
:10062000811103C0DF91CF9108950E94F402F7CFAA
:1006300080918103089508959F938F9388E191E0BD
:100640009F938F938AE594E09F938F930E94032555
:100650000F900F900F900F900F900F908AE594E0FD
:100660000C940C030F931F93CF93DF93EC018C81B9
:10067000282F082E000C330B3F938F938B81282F4C
:10068000082E000C330B3F938F938A81282F082E5E
:10069000000C330B3F938F938981282F082E000C79
:1006A000330B3F938F9381E391E09F938F930AE500
:1006B00014E01F930F930E940325C8010E940C03AE
:1006C00088811F928F9382E591E09F938F931F9370
:1006D0000F930E9403258DB79EB742960FB6F894EC
:1006E0009EBF0FBE8DBFC801DF91CF911F910F91AB
:1006F0000C940C03FC0187811F928F9386811F92BB
:100700008F9385811F928F9384811F928F93838112
:100710001F928F9382811F928F9380811F928F935C
:100720008CE691E09F938F938AE594E09F938F935B
:100730000E9403258DB79EB742960FB6F8949EBFD0
:100740000FBE8DBF8AE594E00C940C038FEB91E013
:100750000E940C038FE097E20197F1F700C00000C0
:1007600087EA91E00E940C038FE097E20197F1F78E
:1007700000C0000087EC91E00E940C038FE097E23C
:100780000197F1F700C000008CED91E00E940C038E
:100790008FE097E20197F1F700C0000081EF91E050
:1007A0000E940C038FE097E20197F1F700C0000070
:1007B000089583E390E00E94D3022FEF80E792E058
:1007C000215080409040E1F700C000000C94A60347
:1007D0008093810308950895E4E6F0E080818160CC
:1007E0008083808184608083808180688083089595
:1007F000E4E6F0E080818E7F808380818B7F808340
:1008000080818F77808308958091B904843079F452
:100810000E9408118D509140E1F00E9451158DE029
:1008200091E00E9403110E94390A0C94F8030E947F
:1008300008118050914069F00E94511580E091E0CC
:100840000E9403110E94510A80E00E94E8030C9468
:10085000EC030895CDB7DEB7A0970FB6F894DEBFCE
:100860000FBECDBF84B7877F84BF0FB6F894A8951D
:1008700080916000886180936000109260000FBEDC
:1008800080E890E00FB6F894809361009093610047
:100890000FBE0E946C110E94B3210E941022809111
:1008A000E20084608093E20078948FEF9091B90425
:1008B0008150943041F0EFE3FFE13197F1F700C050
:1008C00000008111F3CF0E94D9030E94EB030E9424
:1008D000761113E00E9482118091B904843019F0DE
:1008E0000E940404F7CF1093E9008091E80082FF92
:1008F000F7CF8091E80090E085FF09C050E040E02C
:1009000060E270E0CE0101960E94232091E0809188
:10091000E8008B778093E800992311F360E2CE0121
:1009200001960E94A20CDCCF219A299A0895CF93B8
:10093000C82F0E942206882319F0C1FD03C0299AFE
:10094000CF9108952998FCCF81E0089581E0089522
:100950000C94A60408950C94AA041F93CF93DF93DC
:1009600000D000D00F92CDB7DEB749835A836B8396
:1009700030919D0389819A8131111DC06623B9F0A0
:100980002223A9F00E943B1A182F682F89819A818F
:100990000E94E71969817A81812F0F900F900F9043
:1009A0000F900F90DF91CF911F910C943D0E0E94FC
:1009B000131A182FEFCF0E943B1A69817A81EDCF6D
:1009C000FC01262F408151816281738184810C94C6
:1009D000AD04CF93DF93EC0160E00E94E004BE0120
:1009E000DF91CF910C94AB04FF920F931F93CF93A1
:1009F000DF93E82FF0E0E852FE4FF490C82FC69541
:100A0000C695C695D0E0FE01E859FD4F0491877068
:100A100010E0082E02C0159507950A94E2F70170C0
:100A20001127C85ADD4FFE01C491D0E002C0D59510
:100A3000C7958A95E2F7C170DD270115110519F0F8
:100A400081EE0E946312209719F086EE0E946312D5
:100A50008F2D0E94D112CD2B19F086EE0E94A91283
:100A6000012B41F081EEDF91CF911F910F91FF900B
:100A70000C94A912DF91CF911F910F91FF900895CF
:100A8000EF92FF920F931F93CF93DF93EC01162FFA
:100A90000AE08881882309F454C0813009F04EC0EF
:100AA0008981813099F47E0122E0E20EF11C8A8175
:100AB0000E94D112E7012196812F815050F3EFEC73
:100AC000F7E03197F1F700C00000F7CF823041F432
:100AD0007E0182E0E80EF11C8A810E946312EACF57
:100AE000833041F47E01E2E0EE0EF11C8A810E9427
:100AF000A912E0CF843011F02196DDCF2A81229611
:100B000090E080E0AE014F5F5F4F2053330B2A30FF
:100B1000310548F0019778F2EFECF7E03197F1F703
:100B200000C00000F7CF089FB001099F700D11248D
:100B3000C901860F971F2981EA01E4CF0E94F404BE
:100B4000BACFDF91CF911F910F91FF90EF90089551
:100B500060E00C9440058F929F92AF92BF92CF922B
:100B6000DF92EF92FF920F931F936B017C0181E064
:100B700090E0A0E0B0E04C015D0104C0880C991C3D
:100B8000AA1CBB1C4A95D2F7B501A4014C015D011A
:100B900004C0880C991CAA1CBB1C2A95D2F74829B2
:100BA00059296A297B2904C0880F991FAA1FBB1FD6
:100BB0000A95D2F78A019B010C211D212E213F218C
:100BC000041715072607370789F48C299D29AE29B4
:100BD000BF29BC01CD011F910F91FF90EF90DF90D5
:100BE000CF90BF90AF909F908F90089580959095F3
:100BF000A095B0958C219D21AE21BF21EACF0F9306
:100C0000382F262F609108047091090480910A04FE
:100C100090910B04042F432F0E94AB050F910C946D
:100C200025190E949C1D0E94851B811102C00E94F3
:100C30002B1C0E94C40B0C9477080C947A0808951E
:100C40000C941F0681E00895CF93C82F0E942006C0
:100C50008C2FCF910C94970408950E9451150E94F7
:100C60002C062FE78AE196E0215080409040E1F782
:100C700000C000000C94761D0F931F93CF93DF9359
:100C8000EC0161E00E94E0048C01BE010E94310C85
:100C9000882389F1BE01C8010E94A804882359F164
:100CA000BE01C8010E94AD0A882329F1BE01C80116
:100CB0000E94750F8823F9F0BE01C8010E94B60F8B
:100CC0008823C9F0BE01C8010E94D910882399F079
:100CD0008A81882339F001158CE5180751F00E3D03
:100CE0001C4579F0CE01DF91CF911F910F910C94AB
:100CF000A4040E942D0680E0DF91CF911F910F91F7
:100D000008950E942B1CF7CF90E080E0089508958D
:100D1000FC01EE0FFF1FE858FD4F85919491089557
:100D2000CF93DF930E943D0E0E949C07EC0181153A
:100D300020E5920708F041C0811530E4930708F0E0
:100D4000B4C0803E910518F5803C910508F09DC027
:100D5000883A910570F4853A910508F08EC081308B
:100D60009105F9F00097E9F00497D8F4D0E0C0E0DD
:100D700018C08F3B9105D0F7C85AD0E0CC0FDD1FCB
:100D8000C950DE4F0990D881C02DD4640AC08115A6
:100D9000904258F4C11581E0D80718F4C83ED10537
:100DA00028F7CE01DF91CF910895C11590E3D907BF
:100DB00008F071C0CE019F706AC0811525E59207C9
:100DC00058F5811534E5930708F09EC0811542E57A
:100DD000940750F4C11581E5D80708F469C0DC2FE9
:100DE000CC27C16FD06ADDCF982F969596959E013E
:100DF00023703327C115D34508F077C0C1E0D0E098
:100E000002C0CC0FDD1F2A95E2F720E2929FC001BD
:100E10001124C82BD92B67C0C11589E5D807A8F4C0
:100E2000C11598E5D90708F074C0C11526E5D207A9
:100E300008F09CCF8C2F0E943308C82FD0E0DC2F05
:100E4000CC27CC27DF71D062ACCFC1153AE5D307F0
:100E500008F464C0CE0190568115904208F086CF08
:100E60008D2F8F710E94330890E0982F8827882754
:100E70009F719C012C2BE901E6CFC55AD0E0CB5DD8
:100E8000DD4FC881D0E0D0648CCF805C91090E9496
:100E90008806EC0186CFCE019927D3FF03C0EC0171
:100EA000D86C7FCFEC01D06C7CCFDF70D06A79CF6B
:100EB000CE01E4E096958795EA95E1F783702C2FB3
:100EC00026952695237090E2299F90011124382BB6
:100ED0008C2F8370C1E0D0E002C0CC0FDD1F8A955B
:100EE000E2F7C22BD32BDC685CCFC1E0D0E002C0BC
:100EF000CC0FDD1F2A95E2F730E2939FC001112449
:100F0000C82BD92BDA684DCFD82FCC27C46FD06A25
:100F100048CFDC2FCC27C06FD06A43CF8C2F8F7087
:100F20000E94330834E0D695C7953A95E1F7CF7023
:100F30009C2FEC01D06935CF82389105B1F1B0F426
:100F40008133910509F475C048F48932910509F49B
:100F500069C08A32910509F473C0089585339105FB
:100F600009F459C08933910501F10895833E910533
:100F7000A9F138F4803E9105F9F0823E910549F1DE
:100F80000895863E9105A9F1873E9105C9F1843EF9
:100F9000910519F52091B40421FF1FC08091B3047D
:100FA00084FD14C087EE90E008952091B30423706F
:100FB000A1F080EE90E008952091B30420FD47C099
:100FC0003091B40430FF09C024FF44C090E080E0B9
:100FD00004C02091B30422FDF7CF08952091B304FB
:100FE00022FD3BC03091B40430FDE3CF24FFF5CFA8
:100FF000EDCF2091B30423FFF0CF24FDE7CFD2CF74
:101000002091B30423FD2CC03091B40431FFEECF06
:1010100084EE90E008952091B30425FFDECF89E2AD
:1010200090E008952091B30425FFD7CF85E390E0A9
:1010300008952091B30426FFD0CF8AE290E008956E
:101040002091B30426FFC9CF81E390E0089589E39E
:1010500090E0089583EE90E0089582EE90E0089588
:1010600086EE90E008959091B30492FF06C0282F79
:1010700028712830F9F4877F846093FF06C0282FF9
:1010800028712831F1F4877E84612091B40420FF17
:1010900006C0382F38713830D9F4877F816021FF3E
:1010A00006C0282F28712831D1F4877E816194FDF4
:1010B000877E0895282F24712430F9F68B7F88606D
:1010C000DCCF282F2471243101F78B7E8861DDCF9E
:1010D000382F3171313019F78E7F8860E0CF282F9B
:1010E0002171213121F78E7E8861E1CF08950C9422
:1010F000760808950C947908E82FF0E0EE0FFF1FB2
:10110000EC55FB4F808191810895089580E58A9583
:10111000F1F70895CF93DF93A7E3B2E04CE352E0F9
:10112000C1E0D0E08D91E82FE295EF70F0E061A191
:101130008F709E0101C0220F8A95EAF7922F909539
:10114000962391A382A1822B82A34A175B0751F7B2
:10115000A8E2B2E061E070E08D91E82FE295EF70D7
:10116000F0E041A18F709B0101C0220F8A95EAF740
:10117000922F9095942391A382A1822B82A382E047
:10118000A733B80749F710929B0410929A04109263
:10119000A5041092A40410929D0410929C04109235
:1011A000A7041092A60410929F0410929E0410921D
:1011B000A9041092A8041092A1041092A004109205
:1011C000AB041092AA041092A3041092A2041092ED
:1011D000AD041092AC0485E00E947909DF91CF91B3
:1011E0000C9411068F929F92AF92BF92CF92DF9292
:1011F000EF92FF920F931F93CF93DF9387E3E82E35
:1012000082E0F82E0AE914E0912CAA24A394B12CD0
:10121000F70181917F01C82FC295CF70D0E099A1CD
:101220008F70650101C0CC0C8A95EAF7892F8C2953
:1012300089A38AA18C2C809488218AA30E94860885
:10124000E8E2F2E050E040E030E020E06191A62FDB
:10125000A295AF70B0E090968C9190E06F7002C054
:10126000959587956A95E2F780FD3EC0C501042EED
:1012700002C0880F991F0A94E2F7282B392B4F5F81
:101280005F4F4F30510511F789A1882289A28AA1A9
:10129000C82ACAA2F801808191812817390739F13B
:1012A0003183208381E0982A0E5F1F4FFCE3EF1605
:1012B000F2E0FF0609F0ACCF292D45E064EA74E0C6
:1012C0008AE994E00E947A090E941D06892DDF9127
:1012D000CF911F910F91FF90EF90DF90CF90BF9033
:1012E000AF909F908F90089590E080E0C6CF80E00F
:1012F000DACF0895FF920F931F93CF93DF93F82EC9
:10130000092F162FD72FC42F222349F081E0809375
:1013100084030E942B1D909383038093820380910A
:1013200084038823A1F080918203909183030E941B
:10133000431D069760F0EF2DF02FA12FBD2F90E0F9
:1013400080E0D0E08C179D0744F010928403DF9179
:10135000CF911F910F91FF900895219131912D937D
:101360003D930196EFCF8091AE040C94B71B809112
:10137000AE0486958695869508958091AE0481FD8C
:1013800007C082608093AE040E94B71B0C94400B90
:1013900008958091AE0481FF07C08D7F8093AE04D5
:1013A0000E94B71B0C944C0B08958091AE0481FDF4
:1013B0000C94C9090C94BD098091AE048695817086
:1013C000089580910A0108950E94851B811102C031
:1013D0000E942B1C0E94B31B8093AE04803320F02C
:1013E000877088628093AE049091AE04892F8170DB
:1013F00090FF04C0892F8695869586950C94160BD0
:101400008091AE04982F969596959695953040F4D8
:101410009F5F990F990F990F8770892B8093AE0466
:101420008091AE0481608093AE040E94B71B8091CE
:10143000AE048695869586950C94160B8091AE0425
:10144000982F987F79F088508093AE04887F91E040
:1014500009F490E08091AE0490FB80F98093AE0493
:101460000E94B71B8091AE048695869586950C9454
:10147000160B8091AE0480FD13C081608093AE0492
:10148000813019F489E08093AE048091AE040E940B
:10149000B71B8091AE048695869586950C94160BA5
:1014A00008958091AE0480FF08C08E7F8093AE04C3
:1014B0000E94B71B80E00C94160B08958091AE0437
:1014C00080FD0C94510A0C94390A9091AE04892F36
:1014D0008695869586958F5F8F7197708630D8F444
:1014E000880F880F880F892B8093AE048091AE04FB
:1014F000887F91E009F490E08091AE0490FB80F940
:101500008093AE040E94B71B8091AE0486958695A9
:1015100086950C94160B9093AE04E8CF863008F0B5
:1015200085E09091AE049770282F220F220F220F92
:10153000922B9093AE04987F21E009F420E09091E3
:10154000AE0420FB90F99093AE040C94160B0E940D
:101550008E0A8091AE040C94B71BFC01DB0112963D
:101560008C918823F9F0EB5BFC45E730F105D8F46A
:10157000E05FF74D0C94DC2485E00E94A70A80E030
:10158000089580E0FACF0E941E0AF9CF0E94000A57
:10159000F6CF0E945E0AF3CF0E94650AF0CF0E9448
:1015A000D509EDCF81E00895279A2F9808952F98B7
:1015B0000895CF92DF92EF92FF928C3724E1920749
:1015C00050F469E070E00E94A624CB01FF90EF90F8
:1015D000DF90CF900895B0E0A0E0BC01CD016A504B
:1015E000774D8F4F9F4F982F872F762F662725EFA8
:1015F00038E241E050E00E94BA2469017A01CA0150
:10160000B9010E9496249B01AC01C701B6010E945A
:101610009624672F782F892F99276115710521E06E
:101620008207910591F66FEF7FEFCFCFCF93C82F51
:101630008630F0F481111DC080918000877F8093F7
:1016400080000E94D70A2C2F30E0AFEFBFEF0E943E
:10165000E92425E030E040E050E00E94BA24C901CE
:101660000E94D90A90938D0080938C00CF910895A9
:10167000C5E080918000886080938000E4CF089569
:10168000109286031092850310928703EFE6F0E034
:101690008081816080830895EFE6F0E080818E7F15
:1016A00080830E94B7090C94160B1F920F920FB6FD
:1016B0000F9211242F933F934F935F936F937F93D8
:1016C0008F939F93AF93BF93CF93EF93FF930E941A
:1016D000E10940918503509186034F5F5F4F94EF7E
:1016E000899F90011124CA01B9010E94A6249093F8
:1016F000860380938503B901660F672F661F770BFA
:1017000071950E94A6246F7780918703823041F4FF
:10171000603451F480916F008E7F80936F0004C01D
:10172000813011F46F37B1F3E62FF0E0E858FD4F48
:10173000C4910E94B709282F41E051E0C49FC00125
:10174000C59F900D112465E070E00E94A624269F9D
:10175000C001279F900D11240E94D90A90938D00FB
:1017600080938C00FF91EF91CF91BF91AF919F91AA
:101770008F917F916F915F914F913F912F910F903A
:101780000FBE0F901F9018950E94D40A8AE0809394
:10179000800089E1809381008FEF9FEF9093870015
:1017A000809386000E94E4090E94DC0981110C9458
:1017B000400B089582E290E00E949527813289F4DF
:1017C00083E290E00E949527823059F484E290E011
:1017D0000E94952791E0853009F090E0892F817073
:1017E000089580E0FCCFCF93C82F6FEF811161E2A5
:1017F00082E290E00E94A3276FEFC11162E083E2D2
:1018000090E00E94A3276FEFC11165E084E290E0B1
:10181000CF910C94A32780E00E94F30B0C947F1BC4
:10182000089585E290E00E949527682F70E090E08F
:1018300080E0089585E290E00C94A3270E94100CAC
:101840000E94DA0B81110CC060E070E0CB010E94B5
:101850001A0C0E94B30D0E94A10E81E00C94F30BB0
:101860000895CF93FB01C281CC2309F19C01225141
:101870003F452031310520F582510E94B10EC0E074
:101880008C2FCF91089581E00E944B1943E062E0D4
:1018900081E00E94FF05F3CF81E00E946C1943E0D4
:1018A00062E081E00E94FF05EBCF82E0F6CF80315D
:1018B000FFE59F0789F381319F45B9F3C1E0E0CF90
:1018C0008031EFE59E07F9F281319F45C9F682E04C
:1018D000DBCF2FEFFC0120830895CF93DF93EC0142
:1018E0008881893029F08A3079F0DF91CF9108958D
:1018F0000E94B7092FEF829FC001112465E070E0BC
:101900000E94A6246983F1CF0E94DC098983EDCF70
:10191000FC018081893019F08A3069F00895818155
:1019200025E0829FC00111246FEF70E00E94A62481
:10193000862F0C948E0A8181811102C00C94C909F2
:101940000C94BD09EF92FF920F931F93CF93DF93F7
:10195000EC01062FDC01ED91CD01E150E33108F0FF
:10196000BFC0F0E0E95EF74D0C94DC24198289E0F9
:101970008A83602FCE01DF91CF911F910F91FF904D
:10198000EF900C945A1E8981823069F0833071F097
:101990008130D9F40E94371D0E94E2246A837B8340
:1019A0008C839D83E6CF0E94110CF6CF7E0110E060
:1019B000812F0E947C08F701928383831F5FF2E0EE
:1019C000EF0EF11C1530A1F7D4CF602FCE010E948D
:1019D000690CCFCF89818230C1F76A817B818C818C
:1019E0009D810E94E2240E941A0CC3CF4B816A8120
:1019F00089810E94850D9827892798279D838C834C
:101A0000B8CF2C813D813227232732274B816A8131
:101A100089810E949E0DADCF0E94B30DAACF0E9476
:101A2000880CA7CF0E946D0CA4CF0E94B309A1CF50
:101A30000E944A0E89839DCF0E944C0E98278927C9
:101A400098279A83898395CF6B8170E089819A81E9
:101A5000AE014C5F5F4F9827892798270E944F0E51
:101A600088CF6B8170E089819A81AE014C5F5F4FB6
:101A70009827892798270E94760E7BCF0E94A10E77
:101A800078CF0E94730DD6CF6B8170E089819A81E7
:101A9000AE014C5F5F4F9827892798270E94ED0D74
:101AA00068CF6B8170E089819A81AE014C5F5F4F96
:101AB0009827892798270E94130E5BCF0E940B0C52
:101AC00058CFCE010E945A1E2FEF80E792E021509E
:101AD00080409040E1F700C000000E94761D49CF91
:101AE0008FEF888346CF82E0089550E0440F551F62
:101AF0009EE1699F400D511D112496E9899F400D7B
:101B0000511D1124CA01869608950F931F93CF93F8
:101B1000DF930E94750D8C010E949527C82FD0E09D
:101B2000DC2FCC27C80101960E9495279E01282B07
:101B3000C901DF91CF911F910F9108950F931F93CA
:101B4000CF93DF93122F032F0E94750DEC01602FAE
:101B50000E94A327612FCE010196DF91CF911F91A3
:101B60000F910C94A327AF92BF92DF92EF92FF9256
:101B70000F931F93CF93DF938CEAE82E80E0F82E2B
:101B8000D12C8701C0E013C0F501259134914D2F70
:101B90006C2F8D2D0E949E0D82E0A80EB11CDF5F80
:101BA000DF3091F7025E1F4FCF5FC53019F058014B
:101BB000D0E0EACF86E9E80EF11C81E0D81619F0F2
:101BC000DD24D394DECFDF91CF911F910F91FF9051
:101BD000EF90DF90BF90AF900895EF92FF920F9338
:101BE0001F93CF93DF93EC018A017C01E60EF71E71
:101BF000CE018696CE15DF0539F4DF91CF911F9186
:101C00000F91FF90EF900895CC3221E0D20740F47D
:101C10000E949527F80180830F5F1F4F2196E8CF20
:101C2000F8011082F9CFCF92DF92EF92FF920F93DB
:101C30001F93CF93DF937C016A018C01060F171F5E
:101C4000EC01CE018696C017D10749F4DF91CF9100
:101C50001F910F91FF90EF90DF90CF900895CC32BD
:101C600021E0D20740F4FE01EE19FF09EC0DFD1D45
:101C700060810E94A3272196E4CF462F823038F45A
:101C8000753028F46F3018F4672F0C94850D90E0B0
:101C900080E0089580E108958EEA92E00895EF9241
:101CA000FF920F931F93CF93DF93EC018A017C0186
:101CB000E60EF71ECE018E5A9E4FCE15DF0539F483
:101CC000DF91CF911F910F91FF90EF900895CE3A41
:101CD00022E0D20740F40E949527F80180830F5F2D
:101CE0001F4F2196E7CFF8011082F9CFCF92DF92F4
:101CF000EF92FF920F931F93CF93DF937C016A01C2
:101D00008C01060F171FEC01CE018E5A9E4FC01793
:101D1000D10749F4DF91CF911F910F91FF90EF9080
:101D2000DF90CF900895CE3A22E0D20740F4FE0132
:101D3000EE19FF09EC0DFD1D60810E94A32721967D
:101D4000E3CFCF93DF93C2E5D1E060E0CE010E9404
:101D5000A3272196C11584E0D807B9F7DF91CF9169
:101D60000895DF92EF92FF920F931F93CF93DF932B
:101D700000D000D0CDB7DEB7F82E8FE08F1540F041
:101D80008FEF93E00E94952702E511E08823C1F0D0
:101D90000F900F900F900F90DF91CF911F910F91A7
:101DA000FF90EF90DF900895011584E0180781F30C
:101DB000C8010E949527811101C0FA940F5F1F4F3F
:101DC000F110F2CF19821A821B821C82DD24D39477
:101DD00078018FEFE81AF80AC8010E9495278983D5
:101DE0001A828823A9F29FEF980F933078F48A83A0
:101DF000D9820E5F1F4FC7010E9495278B838823CE
:101E000039F2CE0101960E94A805E2CF8701F9CFF1
:101E10000F931F93CF93DF93C62FD42F022FFC0174
:101E200082818823C9F060938A030E942B1D9093BE
:101E300089038093880380E28C0F883008F050C0BB
:101E4000C77081E001C0880FCA95EAF7DF91CF9192
:101E50001F910F910C94E41210918A03161335C050
:101E600080918803909189030E94431D883C9105CD
:101E700060F5C0E2CD0F1D17B9F080E2810F883008
:101E800040F4177081E001C0880F1A95EAF70E94AC
:101E9000EB12C83048F481E09D2F977001C0880F85
:101EA0009A95EAF70E94E412802F0E94D112C8305E
:101EB000B8F4D77081E001C0880FDA95EAF7DF91B6
:101EC000CF911F910F910C94EB1280E28C0F883010
:101ED00038F4C77081E001C0880FCA95EAF7EFCFE8
:101EE000DF91CF911F910F9108959C01CB01233F6A
:101EF0004CE5340731F190F4283DFCE53F07E9F06B
:101F0000293D4CE5340769F1273D3C4579F426E24B
:101F100041EE61EE0E94080F80E00895253FFCE548
:101F20003F07B9F090F0263F3C45B9F0FC018281B3
:101F30008823D1F010928A03089527E245EE65EEDA
:101F4000E9CF26E241EE60EEE5CF27E245EE64EE12
:101F5000E1CF26E241EE62EEDDCF27E245EE66EE0E
:101F6000D9CF28E241E0EBCF81E00895CF93DF9312
:101F7000EC01FB018281882309F419C1C230FCE520
:101F8000DF07C0F1C6319CE5D90730F09E012A5F1A
:101F90003C452930310570F50E94981B9093B4049C
:101FA0008093B304C031ECE5DE0709F4CFC008F03C
:101FB0005BC0C8308CE5D80709F4B6C088F5C430DA
:101FC000ECE5DE0709F4A8C0C0F4C2308CE5D80700
:101FD00009F49CC08091B3048260C330DC4509F4ED
:101FE00098C08091B3049091B4040E94A61B0E94F3
:101FF000511580E0DF91CF9108958091B304806105
:10200000C630ECE5DE0709F484C08091B304886033
:10201000C730DC4508F47DC08091B304806279C08C
:10202000CC308CE5D80709F489C070F48091B304F2
:102030008C60CA30ECE5DE0709F46BC008F478C0A8
:102040008091B3048E7F65C0CE308CE5D80709F44B
:1020500079C08091B3048B7FCF30DC4508F459C040
:102060008091B3048F7E55C0CB3FECE5DE0709F4C9
:1020700057C030F5C3318CE5D80709F46FC078F448
:10208000C131ECE5DE0709F465C0C231DC4509F079
:10209000A8CF0E9451158091B3048F773AC0C53103
:1020A0008CE5D80709F462C008F476C08091B404C6
:1020B0008160CA3FDC4509F094CF8093B40491CF8E
:1020C000CF3FFCE5DF0709F44DC088F48091B404EC
:1020D0008D7FCD3F9CE5D90781F38091B4048E7F3D
:1020E000CE3FDC4550F38091B4048360E6CFC1302D
:1020F000FDE5DF0709F459C008F444C080E0C230B0
:10210000DD4509F06ECF0E942D1C6BCF8091B3048A
:1021100081608093B30465CF8091B3048460F9CF6C
:102120008091B4048260C9CF8091B3048064F1CF00
:102130000E9451158091B3048068EBCF8091B30465
:102140008D7FE7CF8091B304877FE3CF8091B30485
:102150008F7DDFCF8091B3048F7BDBCF8091B30481
:10216000837FD7CF8091B4048C7FA7CF8091B304B5
:1021700082FB992790F921E0922790FB82F990FB4E
:1021800083F9C7CF8091B404982F909591708E7F7A
:10219000892B90FB81F991CF0E9451159091B30446
:1021A000892F97FB87F98058B4CF81E0ACCF81E0CD
:1021B00021CFCF93DF93EB0186319C4511F50E942F
:1021C000D01A9A81992399F08A7A91E009F490E0E3
:1021D00090938B03811109C089E20E94AB1A0E947F
:1021E0001C1B80E0DF91CF91089585E3F6CF8091AD
:1021F0008B03811104C089E20E94B21AF0CF85E3FB
:10220000FBCF81E0EFCF90939103809390030895EB
:1022100080919003909191030895E0919003F09143
:102220009103309721F00190F081E02D099480E036
:102230000895E0919003F0919103309799F02091E7
:102240001701222359F02091B30427FF07C0DC01B6
:102250002C9111962C93119725E02C930280F381F9
:10226000E02D0994089520918E0330918F03281753
:10227000390771F090938F0380938E03E091900360
:10228000F0919103309721F00680F781E02D0994B9
:10229000089520918C0330918D032817390771F030
:1022A00090938D0380938C03E0919003F0919103C0
:1022B000309721F00084F185E02D0994089585B7C9
:1022C000806885BF85B7806885BF089508950C94A0
:1022D000940408950C9469110E945F110E94661184
:1022E0000C94671181E008950C9472110E94221DD4
:1022F0000E948A080E941E0C0E94B01D0E94E409E0
:102300000C946A117F928F929F92AF92BF92CF925C
:10231000DF92EF92FF920F931F93CF93DF93CDB78E
:10232000DEB72A970FB6F894DEBF0FBECDBF0E946E
:10233000F2080E947411882309F471C043E9A42EA5
:1023400043E0B42E10E000E0702E802F0E947C0845
:102350006C01F501819091905F018816990609F44E
:1023600058C08091350481FD0E94850880E0EE24EC
:10237000E394F12C8C249D2494012E213F21232BC6
:1023800009F441C08E837F82CE20DF2081E0CD28FA
:1023900009F480E088870E942B1D8160782F9A873E
:1023A00089874E815F8168858A850E943412000F7B
:1023B000111FF801ED56FC4F80819181E826F92626
:1023C000F182E0820E943F0B0E940D1190919203D6
:1023D0008917B1F10E940D11809392032A960FB6CE
:1023E000F894DEBF0FBECDBFDF91CF911F910F914B
:1023F000FF90EF90DF90CF90BF90AF909F908F9025
:102400007F900C9424068F5FEE0CFF1C8F3009F038
:10241000B3CF0F5F1F4F0530110509F095CF8FEF38
:1024200089838A831B820E942B1D8160782F9D8364
:102430008C8349815A816B818D810E943412C2CF75
:102440002A960FB6F894DEBF0FBECDBFDF91CF91B5
:102450001F910F91FF90EF90DF90CF90BF90AF90C2
:102460009F908F907F900895CF93DF93CDB7DEB785
:102470002B970FB6F894DEBF0FBECDBF4F835887A2
:1024800069877A878B871E821D8285E0FE013796D9
:10249000DE01119601900D928A95E1F749815A81EA
:1024A0006B817C818D819E812B960FB6F894DEBF67
:1024B0000FBECDBFDF91CF910C94C717FC01808177
:1024C00091810C947D1ACF93C82F882309F43FC0C3
:1024D0008CEF8C0F813AA0F46C2F80910B019091BE
:1024E0000C010E94461C882329F08C2F0E94B21AEE
:1024F0000E941C1B8C2F0E94AB1ACF910C941C1BAA
:1025000080E28C0F883048F4C77081E001C0880FEA
:10251000CA95EAF70E94D31AF0CFEBE5EC0FE3304F
:1025200040F4F0E0E659FD4F808190E0CF910C94AB
:102530003311C85AC73158F4EC2FF0E0EE0FFF1FEB
:10254000E45CFD4F80819181CF910C944911CF9132
:102550000895882329F19CEF980F913A20F40E9466
:10256000B21A0C941C1B90E2980F983050F48770AC
:1025700091E001C0990F8A95EAF7892F0E94D91A34
:10258000F0CF9BE5980F933020F490E080E00C941E
:102590003311885A873120F490E080E00C9449117F
:1025A0000895CF93C82F0E946312C93349F42FEFC7
:1025B00083EF91E0215080409040E1F700C000009F
:1025C0008C2FCF910C94A912882321F00E94D31A4A
:1025D0000C941C1B0895882321F00E94D91A0C9496
:1025E0001C1B0895BF92CF92DF92EF92FF920F9340
:1025F0001F93CF93DF936C01D62FC72FFC0105816A
:1026000002950F70128111110E94F01A0E94C91ACE
:10261000E82E882391F01123D1F08C2F807F803415
:1026200021F080E28D0F883090F082E00E94671BDD
:102630000E94C91A91E0E82EE926BC2EB2949FE0D0
:10264000B922EB2DF0E0E65DF74D0C94DC24E12C93
:10265000F4CF0C2F0F70C07F11F00295007F112373
:10266000A9F0002359F080E28D0F883010F0D111CD
:1026700009C0802F0E94D31A0E941C1B8D2F0E941C
:10268000631214C0802F0E94E31AF6CF8D2F0E9490
:10269000A912002359F080E28D0F883010F0D1117B
:1026A0002CC0802F0E94D91A0E941C1B2B2D285051
:1026B000330B2430310520F40E940D110E942406B2
:1026C000EE2009F493C10E94C51A80FD8FC1F60166
:1026D00012820E94BF1A0E944B19C6010E94171550
:1026E0000E94BF1ADF91CF911F910F91FF90EF9041
:1026F000DF90CF90BF900C946C19802F0E94E91A44
:10270000D3CFFC2FFF70FF2EC07FC03219F0F294A0
:1027100080EFF822DD2369F0D13049F1112391F1E6
:10272000002351F1F601858180FFA8CF8F7085834A
:1027300023C0112381F0011106C00E94031B8F29C1
:102740000E94E412B3CF0130C1F70E94031B8F290E
:102750000E94091BABCF011106C00E94121B8F2DD6
:102760000E94EB12A3CF013009F4A0CFF6CF1123C2
:1027700029F0063008F09ACF8F2DE2CF053008F00F
:1027800095CFEDCF002359F3D93349F4FFEF23EF71
:1027900031E0F15020403040E1F700C000008D2FC3
:1027A0000E94A91283CF8C2F86958695837069F03D
:1027B000813009F07BCF8D2F9C2F9370111102C0B7
:1027C00090E080E00E94491171CF8D2F9C2F937073
:1027D000111102C090E080E00E94331167CF8C2F6E
:1027E000837009F041C0111161CF4D2F429546957C
:1027F0004770440F440F0D2F0F7010E030E020E0C1
:10280000042E04C0000F111F221F331F0A94D2F799
:1028100060E070E0CB01D4FF0FC06FE070E080E0BB
:1028200090E004C0660F771F881F991F4A95D2F762
:102830006095709580959095C695C695C370602BF0
:10284000712B822B932BC23049F058F4C13019F010
:102850000E94FD182BCF0E94EB1828CF0E940F1961
:1028600025CF0E94E91822CF8695112311F08C2FD5
:102870008170882309F41ACF4D2F429546954770F1
:10288000440F440F0D2F0F7010E030E020E0042EB5
:1028900004C0000F111F221F331F0A94D2F760E0FB
:1028A00070E0CB01D4FF0FC06FE070E080E090E0FB
:1028B00004C0660F771F881F991F4A95D2F760954D
:1028C000709580959095C695C695C370602B712BB9
:1028D000822B932BC23049F058F4C13019F00E947A
:1028E000C219E4CE0E94B019E1CE0E94D419DECE06
:1028F0000E942519DBCECF70112329F08C2F0E9466
:102900004B198D2F1DCF8D2F0E94EB128C2F0E9403
:102910006C19CCCED23F89F160F4D03FC9F0D13FE1
:1029200029F1112309F442C00111A8CE8C2F8F7117
:1029300021C0D33F39F1D43FA1F7112369F1CF7101
:102940008C2F0E944B1963E08C2F0E94521BAECE3D
:10295000112341F0053008F0A9CE8C2F8F710E9411
:102960008F19A4CE063008F0A1CEF7CF8C2F8F712F
:10297000112369F20E944B1999CE8C2F8F7111236C
:10298000C9F3C5CF112329F08C2F8F710E943619FE
:102990008DCE0E9431198ACE81E00E94671B0230E1
:1029A00008F484CE82E00E94671B80CE002359F099
:1029B000D93309F0F4CE8FEF93EFE1E081509040EE
:1029C000E040E1F7EACE8C2F8F71A1CF4C2F4F70F2
:1029D0006D2FC6010E9484060E94611867CE4C2F9D
:1029E0004F706D2FC6010E94870660CEDF91CF9198
:1029F0001F910F91FF90EF90DF90CF90BF900895BF
:102A00000F931F93CF93DF93EC01688179818A81C3
:102A10000E94871A8C010E94E6190E94E818B801EA
:102A2000CE01DF91CF911F910F910C94F212CF93B1
:102A3000DF93EC018B819C81892B29F0888199811E
:102A400089238F3F59F4DF91CF910895CE010E94E1
:102A50000015CE01DF91CF910C94E904CE010E94C4
:102A60003C068111F3CF0E94C91A882361F38A8141
:102A7000882349F382E0DF91CF910C94671B0E9479
:102A8000F01A0E94001B0E941C1B90E080E00E9434
:102A9000331190E080E00C9449110E94B91A0C9413
:102AA0003F150E94E01A0C944D15E92FE295EF7046
:102AB000E250EE3070F4F0E0E65CF74D0C94DC246C
:102AC000803F19F020F4883E20F481E00895843F8F
:102AD000E1F380E00895883EC0F3813FD1F7F5CF60
:102AE00093FB882780F908950E947D1A0C94551550
:102AF000CF93DF9300D000D00F92CDB7DEB70F9009
:102B00000F900F900F900F90DF91CF910895CF937A
:102B1000DF9300D000D000D0CDB7DEB726960FB639
:102B2000F894DEBF0FBECDBFDF91CF9108951F9304
:102B3000CF93DF93C0919E0316E080919F038C1387
:102B400004C0DF91CF911F910895D0E01C9FF00148
:102B50001D9FF00D1124E056FC4F40815181628190
:102B60007381848195810E9487152196C770E5CF76
:102B70004091D0035091D1036091D2037091D3035F
:102B80008091D4039091D5030C9487151F93CF9314
:102B9000DF938091D503807FA9F48091D2038823AD
:102BA00089F080919E03C0919F036091D003709142
:102BB000D103A091D303B091D403D62FD72316E02D
:102BC000C81304C0DF91CF911F91089590E0109732
:102BD00011F0DF3F19F401968770F2CF189F900132
:102BE000199F300D1124F901E056FC4F4181471324
:102BF000F2CF40814613EFCF42814111ECCF4381A8
:102C000054814A1B5B0B483C510528F78091D50342
:102C10008F7080618093D503F901EB55FC4F808163
:102C20008F708061808380ED93E00E941715DF91A3
:102C3000CF911F910C949715AF92BF92CF92DF92D4
:102C4000EF92FF920F931F93CF93DF93CDB7DEB731
:102C500061970FB6F894DEBF0FBECDBF8C0185E043
:102C6000F801DE011D9601900D928A95E1F7F801B9
:102C700040815181E28080EDC82E83E0D82E6091A2
:102C8000D3037091D4036115710509F461C190916A
:102C9000D0032091D103892F82238F3F09F458C19B
:102CA000A380B480F090D203F501E61BF70BFF2060
:102CB00009F4FCC08091D503382F307FE83CF10542
:102CC00008F0B2C0311179C0FE2C251323C0941333
:102CD00021C0E1101FC08F7080618093D5030E94D6
:102CE000B815C6010E9417158091D503F801858398
:102CF0008F2D61960FB6F894DEBF0FBECDBFDF916A
:102D0000CF911F910F91FF90EF90DF90CF90BF90E8
:102D1000AF900895AB2829F0842F85238F3F09F0C9
:102D200033C180E0F82FF170DF2E80FF3CC080912E
:102D30009E0320919F0336E0821315C04D875E8766
:102D40008D859E850E947D1A292F22952F70223015
:102D5000F0F0243018F59F70F1F0F8019581907F24
:102D6000D1F4D12C1EC090E0389FF001399FF00DB6
:102D70001124E056FC4F6181651306C06081641325
:102D800003C062816E110FC001968770D5CF9F700E
:102D900011F0882331F3805E883018F3C8010E9457
:102DA0001715FD2CA5CFEE2009F4A2CF8091D503F5
:102DB00081608093D503F12C9BCF251306C094131B
:102DC00004C0F801EE2009F48DC04D875E878D8523
:102DD0009E850E947415882319F1EE2009F18091D7
:102DE000D503803270F02091D0033091D103388721
:102DF0002F831986BB86AA868C87CE0107960E94F0
:102E0000171586E0F801A0EDB3E001900D928A95C8
:102E1000E1F70E94C6150E94B815FF24F39468CF0D
:102E2000C8010E941715F9CF311113C07A2DB98A44
:102E3000A88A6E2D89890E94781580ED93E00E9402
:102E4000171586E0F60111928A95E9F70E94B815E8
:102E5000B2CF25130FC094130DC0E1100BC0F801C1
:102E60008583C8010E94171586E0F60111928A95A4
:102E7000E9F73ECF4D875E878D859E850E9474154C
:102E8000882371F2EE2061F28091D503803208F43C
:102E9000B8CF2091D0033091D1033A8329831B828C
:102EA000BD82AC828E83CE010196A9CFE83CF105AC
:102EB00008F041C0FE2CEE2009F4B2CF25132AC041
:102EC000941328C08091D50380FD1BC0982F907F5C
:102ED000C1F0F8018583903F31F0982F907F905F8B
:102EE0008F70892B8583C8010E94171586E0F80131
:102EF000A0EDB3E001900D928A95E1F70E94B8151C
:102F0000F7CE86E0F801A0EDB3E001900D928A952E
:102F1000E1F7EECE4D875E878D859E850E94741504
:102F200081116FCF8091D50381608093D503C80153
:102F30000E941715DDCE7A2DB98AA88A6E2D89894F
:102F40000E94781586E0F60111928A95E9F7D6CFAE
:102F5000EE2009F465CF4D875E878D859E850E94A2
:102F60007415F82E882309F45BCF86E0F801A0EDF4
:102F7000B3E001900D928A95E1F780ED93E00E9415
:102F80005E120E94C615BACF81E08E25CBCE1F936C
:102F9000CF93DF93CDB7DEB72C970FB6F894DEBF93
:102FA0000FBECDBF4F83588769877A878B879C87F1
:102FB000CE0107960E941C16882369F08A859B859E
:102FC000892B39F04F815885842F85238F3F09F055
:102FD00071C016E05FC086E0FE013796DE011196F3
:102FE00001900D928A95E1F78A859B85892B89F35B
:102FF00088859F8189238F3F61F320919F0330E073
:10300000C90101968770992740919E0348171906B8
:1030100071F40E94511510929F0310929E0386E056
:10302000E0EDF3E0DF011D928A95E9F7D2CF96E05B
:10303000929FD001939FB00D1124A056BC4FFE016A
:10304000319601900D929A95E1F780939F030E942B
:103050009715BFCF819FC001112480569C4F0E94BD
:103060001C168823E9F0E0919E031E9FF0011124B5
:10307000E056FC4F4081518162817381848195814A
:103080000E94871580919E0390E001968770992792
:1030900080939E0380919E0390919F038913DACFC2
:1030A0002C960FB6F894DEBF0FBECDBFDF91CF9147
:1030B0001F91089569857A858B859C850E94871567
:1030C00088CFEF92FF920F931F93CF93DF938C01E2
:1030D000892B81F0F12CEE24E394E8012196F8018C
:1030E0008491843770F4843008F05FC08130B1F08F
:1030F0008230A1F1DF91CF911F910F91FF90EF905E
:103100000895853709F44CC008F43DC09CE7980F3A
:10311000903780F78F770E94A91249C00E5F1F4F2A
:10312000FE01849190E2980F983060F48770FE2D34
:1031300001C0FF0F8A95EAF78F2F0E94F31A0E94B1
:103140001C1B02C00E9463128F2D815030F2EFECE5
:10315000F7E03197F1F700C00000F7CF0E5F1F4F87
:10316000FE01849190E2980F983050F48770FE2D04
:1031700001C0FF0F8A95EAF78F2F0E94F91ADFCF5F
:103180000E94A912E1CF0E5F1F4FFE01C491C150F2
:10319000D8F28FEC97E00197F1F700C00000F7CF6D
:1031A0000E5F1F4FFE01F490CFCF0E9463128E017D
:1031B000CBCF08950C94D9180E94DA1860930C04B0
:1031C00070930D0480930E0490930F040C943F159C
:1031D00008950C94DC180F931F9300910C04109128
:1031E0000D0420910E0430910F04602B712B822B63
:1031F000932B1F910F910C94DC180F931F93009148
:103200000C0410910D0420910E0430910F046023E2
:103210007123822393231F910F910C94DC180F9339
:103220001F9300910C0410910D0420910E04309115
:103230000F0460277127822793271F910F910C9409
:10324000DC180C94D9180C9421190E94231960934E
:1032500008047093090480930A0490930B040C945F
:103260003F1560E070E0CB010C9425190F931F937C
:1032700041E050E060E070E08A019B0104C0000F73
:10328000111F221F331F8A95D2F7C901B8011F9160
:103290000F910C9425190F931F9341E050E060E0CB
:1032A00070E004C0440F551F661F771F8A95D2F740
:1032B0008091080490910904A0910A04B0910B0434
:1032C0008A019B01082B192B2A2B3B2BC901B80122
:1032D0001F910F910C9425190F931F9341E050E01B
:1032E00060E070E004C0440F551F661F771F8A9589
:1032F000D2F7CB01BA0160957095809590950091B9
:1033000008041091090420910A0430910B046023F1
:103310007123822393231F910F910C9425190F93EE
:103320001F9341E050E060E070E004C0440F551F7F
:10333000661F771F8A95D2F780910804909109043F
:10334000A0910A04B0910B048A019B010827192758
:103350002A273B27C901B8011F910F910C94251909
:103360000F931F93009108041091090420910A04FF
:1033700030910B04602B712B822B932B1F910F919B
:103380000C9425190F931F930091080410910904C0
:1033900020910A0430910B0460237123822393232C
:1033A0001F910F910C9425190F931F9300910804FE
:1033B0001091090420910A0430910B0460277127B1
:1033C000822793271F910F910C94251908952FE0C0
:1033D000929F800D1124982F977041E001C0440FF7
:1033E0009A95EAF786958695869595E0899FF001EE
:1033F0001124EA52FC4F90E080E070E05191DF012F
:1034000011979B01082E02C0369527950A94E2F782
:10341000217021952527242325272C93019685307B
:10342000910561F708952FE0929F800D1124982F48
:10343000977086958695869525E0829FF0011124E8
:10344000EA52FC4F50E040E080E0219130E0092E4C
:1034500002C0369527950A94E2F721703327042E8F
:1034600001C0220F0A94EAF7822B4F5F5F4F45306D
:10347000510559F70895BF92CF92DF92EF92FF92D4
:103480000F931F93CF93DF938C01C0900804D090CB
:103490000904E0900A04F0900B0480910C049091D0
:1034A0000D04A0910E04B0910F04C82AD92AEA2A6B
:1034B000FB2ACFE1D0E0BC2ED701C6010C2E04C000
:1034C000B695A795979587950A94D2F780FD0EC07B
:1034D000219788F7B12C8B2DDF91CF911F910F9100
:1034E000FF90EF90DF90CF90BF900895B8018C2FA0
:1034F0000E949006019761F3EECFCF93DF93EC012A
:103500000E943B1ABE01DF91CF910C9490061F934D
:10351000CF93DF93EB0190919D03992331F0CB0181
:10352000DF91CF911F910C947D1A882379F0CB0104
:103530000E943B1A182F682FCE010E94E719BE0186
:10354000812FDF91CF911F910C949006CB010E94A7
:10355000131A182FF4CF682F80910B0190910C0152
:103560000C94C61C682F80910B0190910C010C9457
:10357000D11C80910B0190910C010C94DC1C80916A
:103580001004859585958595089580911004877020
:10359000089590911004977081E009F480E00895F7
:1035A00080913404089590913404892B80933404DD
:1035B000089580959091340498239093340408954D
:1035C00010923404089590913304892B809333042E
:1035D000089580959091330498239093330408952F
:1035E00010923304089590913204892B8093320411
:1035F0000895809590913204982390933204089511
:1036000010923204089580911104089508950C9445
:10361000061B90911104981721F0809311040C94CB
:10362000071B089580911104882329F0109211043A
:1036300080E00C94071B0895E0910B01F0910C01C0
:10364000809134048083E0910B01F0910C01808122
:1036500090913304892B8083E0910B01F0910C0150
:10366000808190913204892B808390911104992359
:1036700081F0E0910B01F0910C018081892B808316
:1036800080910B0190910C010E94321C81110E94CB
:10369000121B80910B0190910C010C94191108954B
:1036A0000C944F1B98E0899F90011124622B60932A
:1036B00010040E944B19809110048595859585957D
:1036C0000C94501B1092100480E00C94501B9091AD
:1036D00010048095892380931004282F277071F49B
:1036E000282F082E000C330B9217130639F08595FE
:1036F000859585950E946C190C94621B08956FEF57
:103700007FEF90E080E00C94C12790E080E00E9481
:103710009D2721E08C3E9E4F09F020E0822F0895E6
:1037200082E090E00C94952783E090E00C9495273C
:10373000CF9384E090E00E949527C82F81E290E02B
:103740000E949527982F8C2FCF910895CF93C92F42
:10375000682F84E090E00E94A3276C2F81E290E024
:10376000CF910C94A32786E090E00C949527682FC6
:1037700086E090E00C94A327AB01BC018FE090E0C1
:103780000C94B527AB01BC0183E190E00C94B52704
:1037900060E070E0CB010C94C21B60E070E0CB01F4
:1037A0000E94BC1B0C94C81B6CEE7EEF90E080E086
:1037B0000E94C12760E082E090E00E94A32760E0C1
:1037C00083E090E00E94A32710920C0410920D0455
:1037D00010920E0410920F0460E084E090E00E94CA
:1037E000A32760E081E290E00E94A32760E085E0EB
:1037F00090E00E94A32760E086E090E00E94A3276B
:103800006FEF87E090E00E94A32740E050E0BA010C
:1038100088E090E00E94B52760E08DE090E00E9493
:10382000A32740E050E0BA0188E190E00E94B5276C
:1038300060E087E190E00E94A32740E050E0BA01F9
:103840008CE190E00E94B52760E080E290E00E9469
:10385000A3270C94CD1B0C94D41B682F8EE090E012
:103860000C94A327FC01329680911701882321F044
:103870008091B3049EE187FF96E080E0915008F4C8
:10388000089521912223D1F38F5FF8CF662301F1B0
:10389000209117012223F1F02091B30427FF1AC0D1
:1038A000462F4695469546954E3190F4677021E037
:1038B00030E002C0220F331F6A95E2F7840F911D9A
:1038C000FC01828190E02823392381E0232B69F4D5
:1038D00080E00895FC01329608962191261721F088
:1038E000E817F907D1F7F4CF81E008959C01FC01B6
:1038F00032969FEF80E04191461751F09F3F19F4B7
:10390000411101C0982F8F5F8630A9F79F3F09F4BE
:103910000895290F311D97FD3A95F90162830895A5
:10392000FC01329608962191261303C0DF011197FE
:103930001C92E817F907B9F70895E62FE695E69582
:10394000E695EE3168F4E80FF92FF11D677021E07C
:1039500030E001C0220F6A95EAF78281822B8283D0
:103960000895E62FE695E695E695EE3170F4E80FBA
:10397000F92FF11D677021E030E001C0220F6A9538
:10398000EAF7209582812823228308952091170148
:10399000222329F02091B30427FD0C949D1C0C9444
:1039A000761C20911701222329F02091B30427FDD2
:1039B0000C94B11C0C94901CFC0132968091170160
:1039C000882351F08091B30487FF06C08EE1DF01A8
:1039D0001D928A95E9F7089586E0F9CF08950C9431
:1039E000EE1C0E9451150E94E4090E940D110E94D4
:1039F00024060C94EF1C1F921FB61F9211248F9364
:103A00009F93AF93BF9380913604811113C080912F
:103A1000AF049091B004A091B104B091B20441966A
:103A2000A11DB11D8093AF049093B004A093B10485
:103A3000B093B204BF91AF919F918F911F901FBE21
:103A40001F90189582E084BD93E095BD9DE797BDDA
:103A500080936E0008952FB7F8948091AF049091F1
:103A6000B004A091B104B091B2042FBF08952FB754
:103A7000F8946091AF047091B0048091B10490917A
:103A8000B2042FBF08959C014FB7F8948091AF0402
:103A90009091B004A091B104B091B2044FBF821BC9
:103AA000930B089578941F921FB61F9211248F9341
:103AB0009F93AF93BF938091AF049091B004A09176
:103AC000B104B091B2040196A11DB11D8093AF0461
:103AD0009093B004A093B104B093B204BF91AF919E
:103AE0009F918F911F901FBE1F90189581E080932A
:103AF000E00080E28093D8001092C9008FE097E246
:103B00000197F1F700C0000087E090EBDC018093A3
:103B1000C2049093C304A093C404B093C50488E185
:103B20009CE00FB6F894A895809360000FBE909328
:103B30006000FFCF0C940B0C0E94F2088FE19EE412
:103B40000197F1F700C000000E94F20880E00E9497
:103B50007C0880FF04C00E949A1D0C94761D089575
:103B60000E94851B811102C00E942B1C0E94901B89
:103B7000809335040E94981B9093B4048093B304FF
:103B80000E94941B682F70E090E080E00C94E9188C
:103B90008091570408950895CF93DF9300D00F923A
:103BA000CDB7DEB79091B904943011F589837B834A
:103BB0006A839093E9008FEF9091E800815095FD22
:103BC00006C09AE69A95F1F700C08111F5CF809171
:103BD000E80085FF0DC050E040E063E070E0CE01FA
:103BE00001960E94D41F8091E8008E778093E800B0
:103BF0000F900F900F90DF91CF910895CF93DF93A7
:103C0000EC010E94CD1F823011F0843031F4BE01EE
:103C100084E0DF91CF910C94CC1DDF91CF9108957A
:103C2000BC0183E00C94CC1DCF93DF93EC010E9488
:103C3000CD1F823011F08430B9F5809117018823AF
:103C4000B1F18091B30487FF32C060E284E08093D9
:103C5000E9008FEF9091E800815095FD06C09AE64B
:103C60009A95F1F700C08111F5CF8091E80085FFAA
:103C70001BC08091170170E050E040E0811104C04A
:103C800050E040E068E070E0CE010E94D41F8091D7
:103C9000E8008E778093E80080E2FE01A7E3B4E0BD
:103CA00001900D928A95E1F7DF91CF91089568E038
:103CB00081E0CDCFCF93FC01603221F58091B90432
:103CC000843001F5C091E900CF702091EC00922F73
:103CD000917020FD90E8C92B82E08093E9008091EB
:103CE000E80080FF0CC050E040E060E270E0CF01EF
:103CF0000E94D41F8091E8008E778093E800CF70F7
:103D0000C093E900CF9108958091B804811109C052
:103D10000E94B3210E9410228091E200846080936F
:103D2000E20008951092B8040895089508950C943F
:103D3000F11C42E061EC81E00E942F2142E261EC43
:103D400084E00E942F2142E261EC82E00E942F2158
:103D500042E260EC83E00C942F218091BB0483301D
:103D600009F461C030F48130D1F1823009F49DC092
:103D700008958A3009F489C08B3009F46FC0893006
:103D800009F050C08091BA04813209F04BC0809193
:103D9000BE049091BF04009719F0029709F042C049
:103DA0008091E800877F8093E8008091E80082FF9F
:103DB00035C09091F3008091F200029729F4809130
:103DC000F1008B7F813021F48091F10080935704C2
:103DD0008091E8008B778093E8000C9463218091B8
:103DE000BA04813AF9F48091E800877F8093E80073
:103DF0008091BE049091BF04892B61F460E287E357
:103E000094E070E00E9472208091E8008B778093AC
:103E1000E800089560E090E080E0F3CF8091B9047D
:103E20008111C3CF08958091BA04813AD9F7809166
:103E3000BE049091BF04892BA9F78091E800877F89
:103E40008093E8008091E80080FFFCCF809117010B
:103E50008093F1008091E8008E77BDCF8091BA0405
:103E6000813201F78091BE049091BF04892BD1F675
:103E70008091E800877F8093E8000E946321809111
:103E8000BC04809317010C9451158091BA048132BF
:103E900049F68091E800877F8093E8000E946321C3
:103EA0008091BD048093580408958091BA04813AAA
:103EB00009F0B8CF8091E800877F8093E800809177
:103EC000E80080FFFCCF80915804C2CF0C94681F9B
:103ED000292F33272330310521F168F421303105B2
:103EE00009F449C02230310509F44AC090E080E06D
:103EF00030E020E029C02132310581F12232310544
:103F0000A9F76330710590F7FB01EE0FFF1FE05931
:103F1000FD4F2081318163597D4FFB01808190E00D
:103F200013C099278130910599F0009741F08230B4
:103F3000910589F00397D1F6E8EFF2E002C0E2E2E2
:103F4000F3E0849190E09F01FA013183208308958A
:103F5000E0E1F3E0F6CFEEEFF2E0F3CF633071058E
:103F600028F6660F771FFB01EA58FD4F208131814B
:103F700089E090E0E9CF82E190E021E833E0E4CF0E
:103F80008BE590E026E233E0DFCF8091B904843006
:103F900011F482E0089581E008958091590481111F
:103FA00002C00C94C51F0895AF92BF92CF92DF92CA
:103FB000FF920F931F93CF93DF936C01EB018A0164
:103FC0000E948221F82E811123C00115110539F0BC
:103FD000F80180819181C81BD90BC80ED91EB12C64
:103FE000A12C2097A9F08091E80085FD22C0809146
:103FF000E8008E778093E80001151105A1F0F80123
:1040000080819181A80EB91EB182A08285E0F82E30
:104010008F2DDF91CF911F910F91FF90DF90CF9067
:10402000BF90AF9008950E9482218823D1F2F82E8C
:10403000EFCFF60181916F018093F1002197FFEF9F
:10404000AF1ABF0ACECFAF92BF92CF92DF92FF924C
:104050000F931F93CF93DF936C01EB018A010E94B2
:104060008221F82E811123C00115110539F0F801C4
:1040700080819181C81BD90BC80ED91EB12CA12CEF
:104080002097A9F08091E80085FD22C08091E8008A
:104090008B778093E80001151105A1F0F80180816C
:1040A0009181A80EB91EB182A08285E0F82E8F2DD5
:1040B000DF91CF911F910F91FF90DF90CF90BF9034
:1040C000AF9008950E9482218823D1F2F82EEFCF7D
:1040D0008091F100F60181936F012197FFEFAF1AF4
:1040E000BF0ACECFFC018091C0049091C104861715
:1040F0009707A0F06115710529F49091E8009E776B
:104100009093E80090E06115710551F4911108C099
:104110008091E80082FF34C080E00895BC01F2CFB6
:104120008091B9048823C1F18530C1F18091E80004
:1041300083FD30C08091E80082FDEACF8091E800E5
:1041400080FFE1CF8091F3002091F200382F6115BC
:10415000710519F02830310558F091E0283031050B
:1041600009F090E02091E8002E772093E800CBCF73
:1041700081918093F100615071092F5F3F4FE7CF2C
:104180008091B904882341F0853041F08091E800A6
:1041900083FFBECF81E0089582E0089583E0089513
:1041A000FC018091C0049091C10486179707A0F08C
:1041B0006115710529F48091E8008E778093E800FD
:1041C00090E06115710551F4911108C08091E800EB
:1041D00082FF35C080E00895BC01F2CF8091B90420
:1041E0008823C9F18530C9F18091E80083FD31C091
:1041F0008091E80082FDEACF8091E80080FFE1CF66
:104200008091F3002091F200382F6115710519F0AB
:104210002830310558F091E02830310509F090E060
:104220008091E8008E778093E800CBCF84918093D3
:10423000F1003196615071092F5F3F4FE6CF8091B9
:10424000B904882341F0853041F08091E80083FF74
:10425000BDCF81E0089582E0089583E00895982F0E
:10426000973028F08F708093E90081E00895909353
:10427000E900242F762F50E0981731F07091EC0070
:104280002091ED005091F00021FD02C09F5FE8CF2A
:104290003091EB003E7F3093EB003091ED003D7F9D
:1042A0003093ED003091EB0031603093EB00709370
:1042B000EC002093ED005093F0002091EE0027FDDC
:1042C000E5CF80E008958091BA0487FF13C0809104
:1042D000E80082FF06C08091E8008B778093E800B9
:1042E00004C08091B9048111F2CF08958091B9047E
:1042F0008823D9F38091E80080FFF8CF8091E8000F
:104300008E77ECCF2091E4003091E50095E6A9018D
:104310002091EC00822F817020FF06C08091E80080
:1043200080FF06C080E008952091E80022FD1AC0B9
:104330008091B904882389F0853089F08091EB0061
:1043400085FD0FC02091E4003091E500421753072E
:10435000F9F29150E1F684E0089582E0089583E057
:10436000089581E008950E9421220E942922E0EE12
:10437000F0E0808181608083E8EDF0E080818F77DC
:10438000808319BCA7EDB0E08C918E7F8C938081E7
:104390008F7E80831092B80408950F931F93CF935C
:1043A000DF930E9421220E942922C8EDD0E088815B
:1043B0008F77888388818068888388818F7D8883D0
:1043C00019BC1092B9041092B5041092B70410925F
:1043D000B60400EE10E0F80180818B7F8083888135
:1043E0008160888342E060E080E00E942F21E1EE5E
:1043F000F0E080818E7F8083E2EEF0E0808181605A
:104400008083808188608083F80180818E7F8083B3
:10441000888180618883DF91CF911F910F910895EA
:10442000E8EDF0E080818F7E8083E7EDF0E0808131
:104430008160808384E082BF81E08093B8040C9423
:10444000CD21E8EDF0E080818E7F80831092E20044
:1044500008951092DA001092E10008951F920F92D1
:104460000FB60F9211242F933F934F935F936F9347
:104470007F938F939F93AF93BF93EF93FF9380911D
:10448000E10082FF0BC08091E20082FF07C08091B3
:10449000E1008B7F8093E1000E9495248091DA00F7
:1044A00080FF18C08091D80080FF14C08091DA008E
:1044B0008E7F8093DA008091D90019BC80FF93C071
:1044C00082E089BD09B400FEFDCF81E08093B9048C
:1044D0000E94841E8091E10080FF19C08091E2005B
:1044E00080FF15C08091E2008E7F8093E200809172
:1044F000E20080618093E2008091D8008062809326
:10450000D80019BC85E08093B9040E94961E809162
:10451000E10084FF2AC08091E20084FF26C019BC1C
:1045200082E089BD89B5982F917080FFFBCF809183
:10453000D8008F7D8093D8008091E1008F7E80939A
:10454000E1008091E2008F7E8093E2008091E200A2
:1045500081608093E2008091B504882309F448C00B
:1045600084E08093B9040E94971E8091E10083FF4C
:1045700029C08091E20083FF25C08091E100877F00
:104580008093E10082E08093B9041092B504809199
:10459000E1008E7F8093E1008091E2008E7F809326
:1045A000E2008091E20080618093E20042E060E0FE
:1045B00080E00E942F218091F00088608093F000BD
:1045C0000E94951EFF91EF91BF91AF919F918F91A6
:1045D0007F916F915F914F913F912F910F900FBEFF
:1045E0000F901F9018951092B9040E94921E72CFDE
:1045F0008091E30087FD93E09093B904B4CF1F92BC
:104600000F920FB60F9211242F933F934F935F9306
:104610006F937F938F939F93AF93BF93CF93DF93CA
:10462000EF93FF93D091E900DF708091EC00C82FE9
:10463000C17080FDC0E81092E9008091F000877F92
:104640008093F00078940E9443231092E9008091B7
:10465000F00088608093F000CD2BCF70C093E9000C
:10466000FF91EF91DF91CF91BF91AF919F918F918A
:104670007F916F915F914F913F912F910F900FBE5E
:104680000F901F9018951F93CF93DF93CDB7DEB790
:10469000AA970FB6F894DEBF0FBECDBF8AEB94E0A9
:1046A0002091F100FC012193CF01F4E0823C9F07AF
:1046B000B9F70E94AD1E8091E80083FF1EC1809172
:1046C000BA049091BB049A3008F017C1E92FF0E0CA
:1046D000E85BF74D0C94DC24803899F0823809F0BF
:1046E0000CC18091BE048F70873008F006C18093A2
:1046F000E9008091EB0085FB882780F91092E900A2
:1047000006C08091B6049091B70491118260909197
:10471000E800977F9093E8008093F1001092F100F9
:104720008091E8008E77E5C0882309F4D3C08230F9
:1047300009F0E3C08091BC048111D6C08091BE0411
:104740008F702FEF280F263008F0D7C08093E90034
:104750002091EB0020FFC8C0933031F48091EB0032
:1047600080628093EB00C0C09091EB0090619093C9
:10477000EB0021E030E001C0220F8A95EAF7209398
:10478000EA001092EA008091EB008860EACF811184
:10479000B4C01091BC041F778091E3008078812B16
:1047A0008093E3008091E800877F8093E8000E9477
:1047B00063218091E80080FFFCCF8091E300806856
:1047C0008093E30082E0111183E08093B90495C0E7
:1047D0008058823008F091C08091BC049091BD0453
:1047E0008C3D23E09207A1F583E08A838AE28983E6
:1047F0004FB7F894DE01139620E03EE051E2E32F3C
:10480000F0E050935700E49120FF03C0E295EF7071
:104810003F5FEF708E2F90E0EA30C0F0C7968D9327
:104820009D932F5F243159F74FBF8091E800877F18
:104830008093E8006AE270E0CE0101960E94722047
:104840008091E8008B778093E80057C0C096E7CF4F
:104850006091BE047091BF04AE014F5F5F4F0E9434
:10486000661FBC01892B09F448C09091E800977F2E
:104870009093E80089819A810E94D020E1CF80380E
:10488000E1F58091E800877F8093E8008091B5048E
:104890008093F10045CF811130C09091BC049230DB
:1048A00060F58091E800877F8093E8009093B504DD
:1048B0000E9463218091B504882311F084E005C033
:1048C0008091E30087FDFACF81E08093B9040E94D4
:1048D000991E13C08091BC04813079F481E093303B
:1048E00009F080E08093B7041092E9008091E8001D
:1048F000877F8093E8000E9463218091E80083FF16
:104900000AC08091E800877F8093E8008091EB00E7
:1049100080628093EB00AA960FB6F894DEBF0FBEBC
:10492000CDBFDF91CF911F9108950895DB018F9343
:104930009F930E94F824BF91AF91A29F800D911D7B
:10494000A39F900DB29F900D11240895AA1BBB1B2D
:1049500051E107C0AA1FBB1FA617B70710F0A61B7F
:10496000B70B881F991F5A95A9F780959095BC01A0
:10497000CD010895A1E21A2EAA1BBB1BFD010DC09B
:10498000AA1FBB1FEE1FFF1FA217B307E407F507FF
:1049900020F0A21BB30BE40BF50B661F771F881FDB
:1049A000991F1A9469F760957095809590959B0171
:1049B000AC01BD01CF010895EE0FFF1F0590F491EA
:1049C000E02D099469279627692778278727782774
:1049D0000895A29FB001B39FC001A39F700D811DD8
:1049E0001124911DB29F700D811D1124911D0895F8
:1049F0000E94E924A59F900DB49F900DA49F800D67
:104A0000911D11240895AEE0B0E0E9E0F5E20C94C8
:104A1000E5270D891E8986E08C831A8309838FEF31
:104A20009FE79E838D83AE01475E5F4F6F89788DD0
:104A3000CE0101960E9426252F813885020F131F73
:104A4000F80110822E96E4E00C940128ABE0B0E06F
:104A5000ECE2F5E20C94D7277C013B018A01FC01D2
:104A600017821682838181FFB9C19AE0292ECE0177
:104A700001965C01F7019381F30193FD859193FF0A
:104A800081913F01882309F446C1853239F493FDB1
:104A9000859193FF81913F01853229F4B70190E020
:104AA0000E940727E7CF912C412C512CFFE1F515EF
:104AB00038F08B3209F188F4803201F1833221F130
:104AC00057FC3AC020ED280F2A3040F556FE1FC093
:104AD000929C200D1124922E06C08D3291F08033CD
:104AE00079F7689450F8F30193FD859193FF8191D4
:104AF0003F018111DBCF20C0689451F8689452F8CF
:104B0000F2CF689453F8EFCF689454F8ECCF429CFE
:104B1000200D1124422E689455F8E5CF8E3229F4E9
:104B200056FCF9C0689456F8DECF8C3619F46894B8
:104B300057F8D9CF8836B9F2982F9F7D9554933086
:104B4000C0F08336A1F18337C1F1833509F05BC032
:104B5000F801C190D1908F01692D70E056FC02C020
:104B60006FEF7FEFC6010E94F1264C01689457F861
:104B70000AC00C5F1F4F2FE3298388248394912C54
:104B80006501E89457F853FC04C04814190409F06F
:104B900018F5342C8114910431F5332009F46ACFCF
:104BA000B70180E290E00E9407273A94F6CFF8011F
:104BB000808189830E5F1F4FE0CFF801C190D190B3
:104BC0008F01692D70E056FC02C06FEF7FEFC601C8
:104BD0000E94FC264C01D5CFB70180E290E00E94F4
:104BE00007274A94D2CFF60157FC859157FE819151
:104BF0006F01B70190E00E94072731103A94F1E06D
:104C00008F1A9108C7CF843619F0893609F074C01D
:104C1000F80157FE6AC061917191819191918F0164
:104C2000252D2F76D22E97FF09C0909580957095EF
:104C300061957F4F8F4F9F4F6894D7F82AE030E0FF
:104C4000A5010E943727C82ECA188C2C5D2CD6FED1
:104C50000CC0E89450F8C91440F4D4FE05C0D2FC4E
:104C600003C0FD2DFE7E5F2E892C54FE8FC0FE01F9
:104C7000EC0DF11D8081803309F081C0252D297E46
:104C8000522E852D8870382E53FC8FC050FE89C05F
:104C90009C2C841418F44C0C942C981854FE8BC043
:104CA000B70180E390E00E94072752FE09C088E721
:104CB00090E051FE02C088E590E0B7010E9407270E
:104CC000C91408F484C0CA94D12C9FEFC91AD90A18
:104CD000CA0CDB1CF60182916F01B70190E00E94C3
:104CE0000727AC14BD04B1F758CF61917191072E1D
:104CF000000C880B990B93CFD52CE894D4F82AE0BC
:104D000030E0853739F1952D997FD92E8F3601F115
:104D100048F48835A9F0F701868197812B96E2E166
:104D20000C94F327803749F08837A9F7D4FE02C0E6
:104D30006894D2F820E130E00DC06894D4F8F6CF42
:104D400054FE03C0E92FE660DE2E20E132E002C00F
:104D500028E030E0F801D7FE0DC06191719181919A
:104D600091918F01A5010E943727C82ECA18E89497
:104D7000D7F86BCF6191719190E080E0F2CF52FC57
:104D800002C083947ECF839483947BCF852D8678D5
:104D900009F477CFF6CFB70180E290E00E940727B1
:104DA00083948414C0F3312C79CF342C38188414B4
:104DB00008F474CFF8CF852D867809F481CF8BE283
:104DC00051FE80E257FC8DE2B70190E077CFB7014A
:104DD00080E390E00E9407279A9472CF8FEF9FEFB5
:104DE0009DCFFC010590615070400110D8F780956F
:104DF00090958E0F9F1F0895FC01615070400190A7
:104E00000110D8F7809590958E0F9F1F08950F93EE
:104E10001F93CF93DF93182F092FEB018B8181FD17
:104E200009C01FEF0FEF812F902FDF91CF911F91BE
:104E30000F91089582FF14C02E813F818C819D8146
:104E4000281739073CF4E881F981CF01019699834D
:104E5000888310838E819F8101969F838E83E3CF09
:104E6000E885F985812F0995892BA1F3DACFFA011D
:104E7000AA27283051F1203181F1E8946F936E7F99
:104E80006E5F7F4F8F4F9F4FAF4FB1E03ED0B4E08A
:104E90003CD0670F781F891F9A1FA11D680F791FCB
:104EA0008A1F911DA11D6A0F711D811D911DA11DDC
:104EB00020D009F468943F912AE0269F11243019EC
:104EC000305D3193DEF6CF010895462F4770405D87
:104ED0004193B3E00FD0C9F7F6CF462F4F70405D36
:104EE0004A3318F0495D31FD4052419302D0A9F791
:104EF000EACFB4E0A6959795879577956795BA958B
:104F0000C9F700976105710508959B01AC010A2E50
:104F100006945795479537952795BA95C9F7620F27
:104F2000731F841F951FA01D0895F999FECF92BD90
:104F300081BDF89A992780B50895A8E1B0E042E0D4
:104F400050E00C94C927262FF999FECF92BD81BD60
:104F5000F89A019700B4021639F01FBA20BD0FB6B7
:104F6000F894FA9AF99A0FBE08950396272F0E9493
:104F7000A4270E94A327252F0E94A427242F0C9446
:104F8000A4270196272F0E94A4270C94A327DC01B5
:104F9000CB01FC01F999FECF06C0F2BDE1BDF89A44
:104FA000319600B40D9241505040B8F708952F92B9
:104FB0003F924F925F926F927F928F929F92AF92A9
:104FC000BF92CF92DF92EF92FF920F931F93CF93F6
:104FD000DF93CDB7DEB7CA1BDB0B0FB6F894DEBF8D
:104FE0000FBECDBF09942A88398848885F846E84B3
:104FF0007D848C849B84AA84B984C884DF80EE80FD
:10500000FD800C811B81AA81B981CE0FD11D0FB605
:10501000F894DEBF0FBECDBFED010895F894FFCF29
:10502000BC0AC10AC30AC60AC90ACC0ACF0AB60C0E
:10503000C30CEA0CF60C010D0C0D0F0D120D150D25
:105040005E0D610D180D1C0D240D310D3E0D410D31
:10505000440D510D2913291381138113D3135613B2
:1050600056135613EF137B148A148A14E61456133E
:105070005613EF1460156015691569156B156915E0
:105080006915691560156015701569156915701534
:105090006C2394237D2494237D24C723E8237D243B
:0450A0003F244B243A
:1050A40018037A0332031B031C03061204C81D14DD
:1050B4001ECB1D101EFE1D0141542B424C45484978
:1050C40044434F4E54524F4C4B45593D25640D0AB1
:1050D4000041542B424C454849444D4F5553454D8E
:1050E4004F56453D25642C25642C25642C25640DE0
:1050F4000A0041542B424C454849444D4F555345B1
:10510400425554544F4E3D25640D0A0041542B42E0
:105114004C454B4559424F415244434F44453D252C
:105124003032782D30302D253032782D25303278BC
:105134002D253032782D253032782D253032782DBA
:10514400253032780D0A0041542B474150444556CE
:105154004E414D453D564953544136350D0A0041A3
:1051640054453D300D0A0041542B424C454B4559A2
:10517400424F415244454E3D310D0A0041542B42A9
:105184004C45504F5745524C4556454C3D340D0AFD
:105194000041545A0D0A00E200E900EA00B500B6E5
:1051A40000B700CD008301CC008A01920194012153
:1051B40002230224022502260227022A02B300B493
:1051C400006F007000818283F6F733676636359589
:1051D40034979694919032C630F1F5F4E200E900E8
:1051E400EA00B500B600B700CD008301CC008A0107
:1051F400920194012102230224022502260227029D
:105204002A02B300B4006F00700081828340226DD3
:0C52140022049303B50338035103710317
:00000001FF
