:100000000C9405070C944C070C944C070C944C076B
:100010000C944C070C944C070C944C070C944C0714
:100020000C944C070C944C070C94F12A0C94C32BA1
:100030000C946B210C944C070C944C070C944C07BB
:100040000C944C070C944C070C944C070C944C07E4
:100050000C944C070C94DF210C944C070C944C0727
:100060000C944C070C944C070C944C070C944C07C4
:100070000C944C070C944C070C944C070C944C07B4
:100080000C944C070C944C070C944C070C944C07A4
:100090000C944C070C944C070C944C070C944C0794
:1000A0000C944C070C944C070C944C07E808EB0894
:1000B0006109F608FE0809096109610961094F092A
:1000C00052090C090F09140921092E0931093509B2
:1000D00042094F164F1681168116CE1602180218C5
:1000E0000218EC16811792179217F21702180218CD
:1000F000FB1792189218A418A4189B18A418A418F7
:10010000A41892189218A018A418A418A018D02304
:10011000BE23E2235C22BB24BB24BB23BB24BB2421
:100120000F24BB2423249B24BB24BB24BB24BB243B
:100130005724BB24BB244024BB24FB23BB24BB2467
:10014000B524B524B524B524B524B524B524B524E7
:10015000B524B724BB24D023B323BB24BB24BB24A6
:10016000BB24BB24BB24BB24BB24BB24BB24B7249B
:10017000BB24BB24BB23BB24B324B324B324B324A8
:10018000B324B324B324B324B324B724302C572C82
:100190004F2D572C4F2DA32CC62C4F2D1D2D2C2D04
:1001A0000A002530313662003A20002530325800EE
:1001B0000A722F63203031323334353637383941C3
:1001C00042434445460A00290035001E001F002016
:1001D0000021002200000024002500260027002D19
:1001E000002E002A004C003A002B0014001A0008D0
:1001F000001500170000001C0018000C001200136E
:10020000002F00300031003B0039000400160007C9
:100210000009000A0000000B000D000E000F003363
:1002200000340028004C003C00E1001D001B0006CB
:1002300000190005000000110010003600370038DA
:1002400000E500520049003D00E000E300E2002C20
:10025000004C00230000002C00E600E7000000E452
:1002600000500051004F000000000000000000009E
:10027000000000000000000000000000000000007E
:10028000000000000000000000000000000000006E
:10029000000000000000000000000000000000005E
:1002A000000000000000000000000000000000004E
:1002B000000000000000000000000000000000003E
:1002C000000000000000000000000000000000002E
:1002D000000000000000000000000000000000001E
:1002E000000000000000000000000000000000000E
:1002F00000000000000000000000000000000000FE
:1003000000000000000000000000000000000000ED
:1003100000000000000000000000000000000000DD
:1003200000000000000000000000000000000000CD
:1003300000000000000000000000000000000000BD
:1003400000000000000000000000000000000000AD
:10035000000000000000000000000000000000009D
:10036000000000000000000000000000000000008D
:10037000000000000000000000000000000000007D
:10038000000000000000000000000000000000006D
:10039000000000000000000000000000000000005D
:1003A000000000000000000000000000000000004D
:1003B000000000000000000000000000000000003D
:1003C000000000000000000000000000000000002D
:1003D000000000000000000000000000000000001D
:1003E000000000000000000000000000000000000D
:1003F00000000000000000000000000000000000FD
:1004000000000000000000000000000000000000EC
:1004100000000000000000000000000000000000DC
:1004200000000000000000000000000000000000CC
:1004300000000000000000000000000000000000BC
:100440000000000000000044454255473A2064691E
:100450007361626C65642E0A0044454255473A2038
:10046000656E61626C65642E0A0000000000000089
:1004700000002A2B280000000000000000000000FF
:10048000000000000029000000002C1E3420212262
:1004900024342627252E362D3738271E1F202122CB
:1004A000232425263333362E37381F040506070844
:1004B000090A0B0C0D0E0F10111213141516171834
:1004C000191A1B1C1D2F3130232D35040506070872
:1004D000090A0B0C0D0E0F10111213141516171814
:1004E000191A1B1C1D2F3130354C00000000000074
:1004F00000000000000000000000000000000000FC
:1005000000000000000000000000000000000000EB
:1005100000000000000000000000000000000000DB
:1005200000000000000000000000000000000000CB
:1005300000000000000000000000000000000000BB
:1005400000000000000000000000000000000000AB
:10055000000000000000000000000000000000009B
:10056000000000000000000000000000000000008B
:10057000000000000000000000000000000000007B
:100580000000000000000000000000010101010166
:100590000100010101010000000000000000000056
:1005A0000000000001000100010101010101010141
:1005B000010101010101010101010101010101012B
:1005C0000101010101000000010100000000000024
:1005D000000000000000000000000000000000001B
:1005E00000000000000101010100556E69636F64A5
:1005F0006520696E707574206D6F64652073657415
:1006000020746F3A2025750A00556E69636F646522
:1006100020696E707574206D6F646520696E6974F1
:1006200020746F3A2025750A000A002530325820C0
:10063000006B6579626F6172645F7265706F72746E
:100640003A20000A0025303258006B6579626F61EC
:1006500072645F7365745F6C65643A20004F6E6509
:1006600073686F743A2074696D656F75740A0064FD
:10067000656C5F6B65795F6269743A2063616E27B0
:10068000742064656C3A20253032580A0061646435
:100690005F6B65795F6269743A2063616E277420CD
:1006A0006164643A20253032580A003F00433E20FE
:1006B000004C25640A0074696D65725F726561643F
:1006C000333228293A202530346C580A006B65797A
:1006D0006D61705F636F6E6669672E6E6B726F3AE5
:1006E0002025580A006B6579626F6172645F6964E6
:1006F0006C653A2025580A006B6579626F617264F7
:100700005F70726F746F636F6C3A2025580A0068CF
:100710006F73745F6B6579626F6172645F6C65643F
:100720007328293A2025580A000A092D205374619C
:10073000747573202D0A004743433A20352E342E1A
:1007400030204156522D4C4942433A20322E302E11
:1007500030204156525F415243483A20617672350B
:100760000A004F5054494F4E533A204C55464120B1
:1007700045585452414B455920434F4E534F4C45D9
:1007800020434F4D4D414E44204E4B524F2034306C
:1007900039360A004255494C443A20223230313928
:1007A0002D31322D31332D31303A31333A3034223C
:1007B000202831303A31333A3035204465632031D6
:1007C000332032303139290A005649443A203078F2
:1007D000353335322853695269757329205049449D
:1007E0003A2030783032303128536952697573209D
:1007F000556E6936363029205645523A20307831C8
:100800003931320A00444553433A205369526975DD
:100810007320556E693636300A000A092D20566558
:100820007273696F6E202D0A000A092D20436F6EC6
:10083000736F6C65202D0A4553432F713A0971750A
:1008400069740A000A092D204D61676963202D0A29
:10085000443A094465627567204D65737361676545
:1008600020546F67676C650A583A094D6174726964
:1008700078204465627567204D6F646520546F670A
:10088000676C65202D2053686F77206B65797072D7
:10089000657373657320696E206D61747269782069
:1008A000677269640A4B3A094B6579626F617264D9
:1008B00020446562756720546F67676C65202D2042
:1008C00053686F77206B65797072657373207265FA
:1008D000706F72740A4D3A094465627567204D6FF6
:1008E00075736520546F67676C650A563A095665DB
:1008F0007273696F6E0A533A095374617475730A9F
:10090000433A09416374697661746520436F6E737D
:100910006F6C65204D6F64650A46312D4631303A63
:100920000953776974636820746F204C617965722C
:1009300020302D392028463130203D204C30290AE6
:10094000302D393A0953776974636820746F204CED
:100950006179657220302D390A47524156453A096E
:1009600053776974636820746F204C6179657220D5
:10097000302028616C7465726E617465290A423A90
:10098000094A756D7020746F20426F6F746C6F61CF
:100990006465720A4553433A094A756D7020746F55
:1009A00020426F6F746C6F616465722028616C7493
:1009B00065726E617465290A453A095072696E74F0
:1009C00020454550524F4D2053657474696E6773CE
:1009D0000A4253504143453A09436C6561722045D0
:1009E0004550524F4D0A4E3A094E4B524F20546FCC
:1009F00067676C650A000A002575002E6E6B726FC2
:100A00003A20000A002575002E737761705F6261DD
:100A1000636B736C6173685F6261636B7370616356
:100A2000653A20000A002575002E737761705F67B4
:100A3000726176655F6573633A20000A0025750070
:100A40002E6E6F5F6775693A20000A002575002ECB
:100A5000737761705F72616C745F726775693A2059
:100A6000000A002575002E737761705F6C616C74ED
:100A70005F6C6775693A20000A002575002E737750
:100A800061705F7263746C5F726775693A20000A07
:100A9000002575002E737761705F6C63746C5F6CFA
:100AA0006775693A20000A002575002E636170732E
:100AB0006C6F636B5F746F5F636F6E74726F6C3AB1
:100AC00020000A002575002E737761705F636F6EDA
:100AD00074726F6C5F636170736C6F636B3A20004C
:100AE0000A0025303258006B65796D61705F636F65
:100AF0006E6669672E7261773A20000A00257500DC
:100B00002E6D6F7573653A20000A002575002E6BF7
:100B10006579626F6172643A20000A002575002EC3
:100B20006D61747269783A20000A002575002E659F
:100B30006E61626C653A20000A002530325800640C
:100B4000656275675F636F6E6669672E7261773A7B
:100B500020000A0025750064656661756C745F6C21
:100B6000617965723A20003F004E4B524F3A206F38
:100B700066660A004E4B524F3A206F6E0A000A6DAD
:100B80006F7573653A206F66660A000A6D6F75733C
:100B9000653A206F6E0A000A6B6579626F61726454
:100BA0003A206F66660A000A6B6579626F6172644B
:100BB0003A206F6E0A000A6D61747269783A206F8C
:100BC00066660A000A6D61747269783A206F6E0A6F
:100BD000000A64656275673A206F66660A000A64F7
:100BE000656275673A206F6E0A000A0A4A756D7071
:100BF000696E6720746F20626F6F746C6F616465DB
:100C0000722E2E2E2000433E2000436C65617269D7
:100C10006E6720454550524F4D0A006565636F6E03
:100C20006669673A0A005B735D004B6579626F61C4
:100C300072642073746172742E0A005B575D005BEE
:100C4000535D005B525D005B445D005B435D0004EF
:100C500003300000001C0353006900520069007556
:100C6000007300200055006E006900360036003029
:100C70000000000E03530069005200690075007304
:100C80000000000403090409027B00040100A0FA2B
:100C900009040000010301010009211101000122E2
:100CA00040000705810308000A090401000203004F
:100CB0000000092111010001222200070582032002
:100CC00000010705030320000109040200010300DD
:100CD0000000092111010001227100070584032091
:100CE000000A0904030002030000000921110100A9
:100CF00001222200070585032000010705050320C6
:100D000000011201100100000008525301021219E3
:100D1000010203010631FF0974A1010975150026BE
:100D2000FF009520750881020976150026FF0095C1
:100D30002075089102C00660FF0961A101096215D2
:100D40000026FF009520750881020963150026FF23
:100D500000952075089102C005010980A101850355
:100D60001A81002A830016010026030095017510E0
:100D70008100C0050C0901A10185041A01002A9C0B
:100D800002160100269C02950175108100C0050124
:100D90000906A1018505050719E029E715002501C8
:100DA0009508750181020507190029EF1500250135
:100DB00095F0750181020508190129059505750150
:100DC0009102950175039101C005010906A1010574
:100DD0000719E029E715002501950875018102959D
:100DE00001750881010507190029FF150026FF007C
:100DF00095067508810005081901290595057501F5
:100E00009102950175039101C00011241FBECFEF1F
:100E1000DAE0DEBFCDBF04B603FE27C0809120021A
:100E200090912102A0912202B09123028730904B31
:100E3000A740B04BD1F410922002109221021092E0
:100E400022021092230214BE84B7877F84BF0FB69C
:100E5000F894A8958091600088618093600010925A
:100E600060000FBEE0E0F8E3099511E0A0E0B1E01A
:100E7000E0EBFBE502C005900D92A232B107D9F775
:100E800022E0A2E2B1E001C01D92A032B207E1F778
:100E90000E9496270C94D62D0C940000FF93EF939C
:100EA000E0912201F0912301309709F00995EF912B
:100EB000FF910895FC018591803011F0EFDFFBCFA9
:100EC0000895FF27E0E230E247FF0CC0419597FF0D
:100ED00009C0EDE26095709580959095611D711D3A
:100EE000811D911D27FF02C0219530E350E2AA2702
:100EF000660F771F881F991FAA1FA41710F0A41B45
:100F000063955A95A9F7AA3008F0A95FA05DAF9341
:100F1000F395611571058105910541F7ED3211F4E5
:100F2000EF93F395F21718F43F93F395FBCF8F915E
:100F3000B5DFFA95E1F70895E991F991859180304F
:100F400021F0853219F0AADFF9CF089520E0E89466
:100F500055915532C1F3503311F4689455915A3379
:100F600048F4505390F3220F022E220F220F200D2F
:100F7000250FF4CF0EF4219589919991533619F3E9
:100F8000533729F1533559F1BC0188279927E89443
:100F90005C3621F48991999168945591543639F4CD
:100FA00046EF7EF077FF0DC08FEF9FEF0AC05537F9
:100FB0004AE039F0583540E121F0523642E009F07C
:100FC0000895FF93EF937DDFEF91FF91B7CFFF93EC
:100FD000EF93FC0181918030B9F360DFFBCFFF9389
:100FE000EF9368DFF1CFDF93CF93CDB7DEB72596D0
:100FF000A3DFCF91DF9108950C947F0BCF93DF9304
:10100000CDB7DEB761970FB6F894DEBF0FBECDBF88
:101010001092CC001092CD0088E18093C90086E048
:101020008093CA0083E78093CE00FE01319681E170
:10103000DF011D928A95E9F7CE014296DF0140E07B
:1010400050E0BA012091C80027FD0AC04F5F5F4FF2
:101050006F4F7F4F413127E252076105710590F3D1
:101060002091CE002D93A817B90761F78B85803E9C
:1010700089F4A4E2B1E09E01255F3F4F818190E0B9
:10108000982F88274081842B8D939D933296E21769
:10109000F307A1F70E948B0B81E061960FB6F894DD
:1010A000DEBF0FBECDBFDF91CF910895E82FF0E0F6
:1010B000EE0FFF1FEC5DFE4F808191810895CF926E
:1010C000DF92EF92FF920F931F93CF93DF9380EB0A
:1010D00091E00E945A0784E2E82E81E0F82EC0E0F9
:1010E000D0E09BEAC92E91E0D92E02EA11E0DF930D
:1010F000CF93DF92CF920E94F30788EA91E00E949B
:101100005A07F701819191917F010E94A91F9F9336
:101110008F931F930F930E94F30780EA91E00E9440
:101120005A0721968DB79EB708960FB6F8949EBFC2
:101130000FBE8DBFC530D105D1F6DF91CF911F9184
:101140000F91FF90EF90DF90CF90089580E290E0B4
:101150000E949C2D8F31954451F482E290E00E94D0
:10116000942D91E0883009F090E0892F01C080E053
:1011700081700895CF93C82F811103C06FEF7FEF67
:1011800002C06FE175E480E290E00E94C02DC111C1
:1011900002C06FEF01C068E082E290E0CF910C9452
:1011A000A22D80E00E94BA080C94BC1F1F93CF931D
:1011B000DF93EC01162FE8818E2F90E0FC01319730
:1011C000E331F10508F07DC0EA5AFF4F0C948E2DF3
:1011D000198288E027C08981813009F072C00E949D
:1011E000A9219A838B837C836D836DC04B816A8137
:1011F00089810E940C119C838D8365C02C813D8167
:101200003227232732274B816A8189810E94251149
:101210005AC00E943A1157C00E94CC1124C00E94AB
:10122000CE1199838A834FC06B8170E089819A8146
:10123000AE014C5F5F4F9827892798270E94D111F4
:1012400042C06B8170E089819A81AE014C5F5F4F33
:101250009827892798270E94F61135C00E941912F5
:1012600032C00E94F91089832EC06B8170E08981A1
:101270009A81AE014C5F5F4F9827892798270E947B
:10128000791121C06B8170E089819A81AE014C5F38
:101290005F4F9827892798270E949D1114C00E94AC
:1012A000D10811C0CE010E942E262FEF81EE94E0CE
:1012B000215080409040E1F700C000000E940522CC
:1012C00002C08FEF8883612FCE01DF91CF911F91F4
:1012D0000C942E260E94A608811107C00E943A1184
:1012E0000E94191281E00C94BA0808950E94FE072A
:1012F0008FE19EE40197F1F700C000008FE19EE4CA
:101300000197F1F700C000000E94FE0780E00E94F4
:10131000560880FF04C00E94D1080C94052208954D
:101320000E9476090E946A090C94110A0C94100A12
:10133000FB0122818031FFE59F0731F081313FE5DC
:10134000930781F482E001C081E0222319F00E941A
:10135000ED1C02C00E940E1D43E062E081E00E948D
:101360006D0B0EC0222351F09C0122513F452031CC
:10137000310520F482510E94291202C00C94770A90
:1013800080E008959C013F502F3F310509F058F44B
:101390009C013327A901415351094230510518F4EA
:1013A000C901986F0895FC01EE0FFF1FE651FA4F37
:1013B000859194910895CF93DF93EC018FEC860F84
:1013C000823038F58A818823D9F0613311F082E0C8
:1013D00001C081E00E94ED1C8D81982F907F61F00B
:1013E00080FD0AC082958F7090E0039794F083E0AF
:1013F000DF91CF910C94331D8D818F708D8309C047
:10140000613311F082E001C081E0DF91CF910C9453
:101410000E1DDF91CF9108950C949B0B08950895B4
:10142000089508959C013A9521153F4138F5DC0156
:10143000AA27B270AC01442754709C01222738704F
:1014400094FF0FC090FF02C080E101C080E0AB2B91
:1014500009F08062452B09F08064232B69F08068D5
:101460000BC0892F8170AB2B09F08260452B09F0EE
:101470008460232B09F08860FB0109940895CF93C1
:10148000DF93EC01805E9109089710F0209719F422
:101490006FE076E102C06CE578E1CE010E94120AAD
:1014A0008C2FDF91CF910C940215CF93DF93EC0139
:1014B0000E94D015CE01805E9109089710F0209708
:1014C00019F466E176E102C063E678E1CE01DF91CE
:1014D000CF910C94120ACF93DF93EC010E943F0A44
:1014E000CE01DF91CF910C94550A81E0089581E0FF
:1014F00008951F93CF93DF9300D000D01F92CDB7F4
:10150000DEB749835A836B832091430189819A8195
:10151000211112C0662349F00E94E21D182F682F86
:1015200089819A810E948B1D03C00E94B61D182FCD
:1015300069817A81812F04C00E94E21D69817A81CC
:101540000F900F900F900F900F90DF91CF911F9100
:101550000C94BF11FC0140815181628173818481AF
:101560000C94790A1F93CF93DF9390E0FC01E65926
:10157000FB4F1491FC01E659FA4FD491FC01E6515E
:10158000FB4FC491DD2319F081EE0E940215CC239C
:1015900019F086EE0E940215812F0E94FC15CC23C3
:1015A00019F086EE0E94D015DD2331F081EEDF9137
:1015B000CF911F910C94D015DF91CF911F91089579
:1015C000FF920F931F93CF93DF93EC01F62E888148
:1015D000882331F18E010F5F1F4F813031F4C981B3
:1015E0008C2F0E9402158C2F0AC0823029F4898129
:1015F0000E940215E80108C0833021F489810E940D
:10160000D015F8CF0E94B20A21968F2D8823F9F2C7
:10161000EFE9FFE03197F1F700C000008150F6CF0D
:10162000DF91CF911F910F91FF90089560E00C948E
:10163000E00A8F929F92AF92BF92CF92DF92EF9289
:10164000FF920F931F936B017C0181E090E0A0E07B
:10165000B0E04C015D0104C0880C991CAA1CBB1CA5
:101660004A95D2F7AC01BD0104C0440F551F661F57
:10167000771F2A95D2F7482959296A297B2904C05E
:10168000880F991FAA1FBB1F0A95D2F78A019B01D9
:101690000C211D212E213F2140175107620773079E
:1016A00039F4BC01CD016C297D298E299F290AC0FE
:1016B00080959095A095B095BC01CD016C217D21C0
:1016C0008E219F211F910F91FF90EF90DF90CF907F
:1016D000BF90AF909F908F9008950F93382F262F33
:1016E0006091AE017091AF018091B0019091B10114
:1016F000042F432F0E94190B0F910C94C71C0E94BA
:1017000076090E94C21F811102C00E9462200E94BD
:101710002A100C9490090C949609282F2F7041F0F0
:10172000822F90E02A3010F44D9608950697089580
:1017300087E290E00895089581E008950C949C0B51
:10174000CF93C82F0E940C0A8C2F0E949E0BCF9122
:10175000089508950E9480180E94A90B2FEF84E33A
:101760009CE0215080409040E1F700C0000087E7F6
:1017700097E790930108809300080C9405220F933B
:101780001F93CF93DF938C010E94AA0AEC01B8014A
:101790000E949809882309F1B801CE010E94C71060
:1017A0008823D9F0B801CE010E94EC128823A9F059
:1017B000C631FCE5DF0799F008F051C0C130ECE517
:1017C000DE07A1F108F058C0C115DC4509F074C16D
:1017D000F801828181110E94AA0BC0E08CC10E9495
:1017E000B11E982FF80182812091000130910101F2
:1017F000882379F09A7A81E009F480E080932E01C1
:10180000911102C069E201C065E3C9010E94F120A3
:101810000AC080912E01811102C069E201C065E316
:10182000C9010E94FC200E94111FD7CFF8018281BC
:10183000882399F28091DF01C82FC095C170C0FB49
:1018400080F98093DF01CC2329F089E594E00E94A0
:101850005A07C3CF87E494E00E945A074CC1CE3D9B
:10186000ECE5DE0709F42FC108F41FC1CE018A5F41
:101870009C45099708F020C1F8018281882309F46A
:101880001BC10E94C21F811102C00E9462200E94DF
:10189000D51F9093120280931102C031FCE5DF073F
:1018A00009F4C3C008F041C0C830ECE5DE0709F414
:1018B0009AC0F0F4C4308CE5D80709F487C068F406
:1018C000C230FCE5DF0709F477C0C330DC4509F01E
:1018D000E3C080911102826076C0C630ECE5DE077D
:1018E00009F46EC008F07BC08091110288606BC063
:1018F000CC308CE5D80709F485C068F4CA30FCE523
:10190000DF0709F474C008F079C00E948018809144
:101910001102806858C0CE30ECE5DE0709F476C0CD
:1019200008F07FC0809111028BC0CB3F8CE5D807B7
:1019300009F44FC018F5C331FCE5DF0709F47DC099
:1019400078F4C131ECE5DE0709F473C0C231DC453F
:1019500009F0A2C00E948018809111028F7733C0D5
:10196000C5318CE5D80709F472C008F486C0CA3FB7
:10197000DC4509F091C0809112023EC0CF3F8CE55A
:10198000D80709F45FC058F4CD3FFCE5DF0709F440
:1019900044C008F43FC08091120282602DC0C13063
:1019A000EDE5DE0709F475C008F45DC0C230DD4521
:1019B00009F072C080E06EC080911102816003C0A6
:1019C0008091110280618093110266C080911102A2
:1019D00011C0809112028260809312025DC08091DA
:1019E00011028062F0CF809111028064ECCF80916F
:1019F000110288608460E7CF8160EECF8091110290
:101A00008E7FE1CF809111028D7FDDCF8091110219
:101A1000877FD9CF8091120218C0809112028D7FEA
:101A2000DBCF809111028F7ECECF809111028F7D0E
:101A3000CACF809111028F7BC6CF80911102877F20
:101A40008B7FC1CF809112028D7F8E7FC5CF809119
:101A5000110282FB222720F991E0922790FB82F964
:101A600090FB83F9B0CF80911202982F90959170DE
:101A70008E7F892B90FB81F9AFCF0E9480188091D7
:101A8000110287FB222720F991E0922790FB87F92A
:101A90009ACF81E00E9464208091110290911202FD
:101AA0000E94E61F0E94801898CECC3D8CE5D80796
:101AB00091F0CD3DDC45B1F0C801DF91CF911F9190
:101AC0000F910C94750AF8018281882309F485CE60
:101AD0000E94622082CEF8018281882309F47DCEA3
:101AE00080E006C0F8018281882309F476CE82E086
:101AF0000E946D2872CE8C2FDF91CF911F910F9194
:101B0000089580E090E00895CF93DF930E94BF1185
:101B10000E943E0FEC018115904508F041C0C115AF
:101B200080E4D80708F028C1C83ED10510F5C03EB2
:101B3000D10508F09FC1C83AD10578F4C53AD1055E
:101B400008F0A2C0C130D10509F494C108F445C120
:101B5000C430D10508F08EC140C1CF3BD10508F497
:101B60009EC0C03CD10508F438C1CE01805C91090B
:101B7000F5C0C11590E2D90758F4C11521E0D2078C
:101B800008F078C1C03FD10508F427C1D06572C103
:101B9000C11580E3D80708F0E5C0CE019F70DEC014
:101BA000C11595E5D90708F043C0C11524E5D20752
:101BB00008F0F9C0C11582E5D80708F5C11591E50F
:101BC000D90708F0DCC0CE0174E0969587957A9528
:101BD000E1F783709C2F937021E030E002C0220F68
:101BE000331F9A95E2F73C68382BCF70C695C6959F
:101BF00080E2C89FE0011124C22BD32B3BC19E0180
:101C0000237033278C2F86958695C115D34508F010
:101C1000BBC0C1E0D0E002C0CC0FDD1F2A95E2F7C7
:101C200020E2829FC0011124C82BD92BDC6822C17D
:101C3000C11529E5D207A0F4C11588E5D80708F039
:101C4000B7C0C11596E5D90708F0C7C08C2F0E9410
:101C5000D20F8F71C82FD0E0DC2FCC27D0620AC101
:101C6000C1152AE5D20708F4A8C0CE019056811507
:101C7000904208F0B2C08D2F8F710E94D20FDD27E5
:101C8000D0628F71D82BF6C0C53AD10509F4A8C02F
:101C9000C63AD10509F0A7C0C2E8D0E4EBC0C83A03
:101CA000D10509F4A3C0C93AD10509F4A2C0CA3AC2
:101CB000D10509F4A1C0CB3AD10509F4A0C0CC3AB2
:101CC000D10509F49FC0CB3BD10509F49EC0CC3BA4
:101CD000D10509F49DC0CD3AD10509F49CC0C03BA3
:101CE000D10509F49BC0CE3AD10509F49AC0CF3A88
:101CF000D10509F499C0C13BD10509F498C0C23B94
:101D0000D10509F497C0C33BD10509F496C0C43B83
:101D1000D10509F495C0C53BD10509F494C0C63B73
:101D2000D10509F493C0C73BD10509F492C0C83B63
:101D3000D10509F491C0C93BD10509F490C0CD3B50
:101D4000D10509F48FC0CE3BD10509F48EC0CA3B42
:101D5000D10509F48DC0C0E0D4E48CC00E94C20952
:101D6000EC0188C0CE019927D3FF03C0EC01D86CE9
:101D700081C0EC01D06C7EC0DF70D06A7BC0DC2FEC
:101D8000CC27C16FD06A76C0C1E0D0E002C0CC0FD2
:101D9000DD1F2A95E2F720E2829FC0011124C82BA3
:101DA000D92BDA6867C0DC2FCC27C46FD06A62C039
:101DB000DC2FCC27C06FD06A5DC08C2F8F700E9443
:101DC000D20F94E0D695C7959A95E1F7CF70D0E001
:101DD000DC2FCC27D069C82B4DC0C0E0D0E04AC072
:101DE000C1E8D0E447C0C3E8D0E444C0C2EED4E4C4
:101DF00041C0C9EED4E43EC0CAEED4E43BC0C5EB5A
:101E0000D4E438C0C6EBD4E435C0C3EBD4E432C06C
:101E1000C4EBD4E42FC0C7EBD4E42CC0CCECD4E4A6
:101E200029C0CDECD4E426C0C3E8D5E423C0CAE879
:101E3000D5E420C0C2E9D5E41DC0C4E9D5E41AC088
:101E4000C1E2D6E417C0C3E2D6E414C0C4E2D6E4CB
:101E500011C0C5E2D6E40EC0C6E2D6E40BC0C7E2AC
:101E6000D6E408C0CFE6D4E405C0C0E7D4E402C09D
:101E7000CAE2D6E4CE01DF91CF9108958238910570
:101E800069F1B0F48133910509F46DC048F48932E9
:101E9000910509F463C08A32910509F469C0089577
:101EA0008533910509F455C089339105B9F008953A
:101EB000833E910569F138F4803E9105B1F0823E90
:101EC000910509F10895863E9105A9F1873E910596
:101ED000B9F1843E910509F064C023C0209111023C
:101EE00020FD4FC021FD4DC008958091110280FD5D
:101EF00044C08091120280FF44C08091110284FD91
:101F000042C083EE4DC08091110282FF38C0F5CFF0
:101F10008091110282FD33C08091120280FD31C098
:101F2000ECCF8091120281FF32C08091110284FDBA
:101F30002AC087EE35C08091110283FF26C0F5CFFD
:101F40008091110283FD21C08091120281FD1FC08A
:101F5000ECCF8091110285FD1CC01DC08091110243
:101F600085FD19C016C08091110286FD16C017C0EC
:101F70008091110286FD13C010C089E311C082EE6A
:101F80000FC080EE0DC080E00BC086EE09C084EE6D
:101F900007C089E205C085E303C08AE201C081E38E
:101FA00090E008959091110292FF0DC0282F2871A2
:101FB000283019F4877F846006C0282F24712430CC
:101FC00011F48B7F886093FF0DC0282F2871283172
:101FD00019F4877E846106C0282F2471243111F4FE
:101FE0008B7E88612091120220FF0DC0382F38713E
:101FF000383019F4877F816006C0382F3171313055
:1020000011F48E7F886021FF0DC0282F28712831A0
:1020100019F4877E816106C0282F2171213111F4C6
:102020008E7E886194FD877E0895CF93DF9397FF1E
:102030000DC0FB012281222349F0EC010E946910AE
:10204000CE019F770E94AA100E94931081E0DF9139
:10205000CF9108958CE090E00E94942D90E0A0E054
:10206000B0E08093080290930902A0930A02B09313
:102070000B028091DF0180FF0EC0809108021F9249
:102080008F9389E096E09F938F930E94F3070F90C0
:102090000F900F900F900895609108028CE090E0EF
:1020A0000C94A22D809308020E944C108091DF01B5
:1020B00080FF0EC0809108021F928F938AEE95E0F8
:1020C0009F938F930E94F3070F900F900F900F90A4
:1020D00008950E94B11E80930C020E94C41E80913C
:1020E0000802813071F048F0823081F08430A1F430
:1020F00086EE0E94FC1588E10DC082EE0E9402155A
:102100000BC088E193E00E946B0A06C082EE0E9439
:10211000021587E50E94FC158FE39CE90197F1F712
:1021200000C00000089580910802813039F040F02D
:10213000823031F0843051F488E206C08CE204C071
:1021400082EE0E94D01502C00E94FC1580910C0204
:102150000C94C11E0F931F93CF93DF938C01CCE09F
:10216000D0E0C8010C2E02C0969587950A94E2F73C
:102170008F700E948D0B0E94FC152497CC3F8FEF2F
:10218000D80779F7DF91CF911F910F9108950F93A1
:102190001F93CF93DF93EC018B01FB018281882396
:1021A00001F1C33EFCE5DF07B9F050F4C13EECE5B8
:1021B000DE0781F0C23EFCE5DF0799F481E00FC045
:1021C000C43E8CE5D80751F0C53EECE5DE0749F486
:1021D00084E005C080E003C082E001C083E00E948B
:1021E0005210B801CE01DF91CF911F910F910C9445
:1021F000151084E0089550E0440F551F20E2629FBF
:10220000400D511D11249A0160EA869F200D311D59
:102210001124C901839608950F931F93CF93DF93E1
:102220000E94FB108C010E94942DC82FD0E0DC2F5F
:10223000CC27C80101960E94942D9E01282BC9012C
:10224000DF91CF911F910F9108950F931F93CF931B
:10225000DF93122F032F0E94FB10EC01602F0E94CE
:10226000A22D612FCE010196DF91CF911F910F9189
:102270000C94A22DAF92BF92CF92DF92EF92FF9279
:102280000F931F93CF93DF93A12CE12CF12CB12C52
:1022900000E010E0C0E0D0E06701C00ED11EF60102
:1022A000EC0FFD1FEE0FFF1FE953FE4F25913491F8
:1022B0004C2F6B2D8A2D0E9425112196C031D105FE
:1022C00071F7005F1F4FB39485E0B812E3CF80E54C
:1022D000E80EF11CA39484E0A812D9CFDF91CF912E
:1022E0001F910F91FF90EF90DF90CF90BF90AF9034
:1022F0000895EF92FF920F931F93CF93DF93EA011C
:102300007A01E60EF71E8C01C8018396CE15DF0513
:1023100069F0003822E0120720F40E94942D88838F
:1023200001C0188221960F5F1F4FEECFDF91CF9132
:102330001F910F91FF90EF900895EF92FF920F93EE
:102340001F93CF93DF93EA017A01E60EF71E8C010B
:10235000C8018396CE15DF0559F0003822E0120738
:1023600018F468810E94A22D21960F5F1F4FF0CFB5
:10237000DF91CF911F910F91FF90EF900895462F1D
:10238000843038F4753028F4603118F4672F0C94D9
:102390000C1180E090E0089580E108958DE591E0D2
:1023A0000895EF92FF920F931F93CF93DF93EA016B
:1023B0007A01E60EF71E8C01C8018D559D4FCE1592
:1023C000DF0569F00D3521E0120720F40E94942DFD
:1023D000888301C0188221960F5F1F4FEDCFDF91D8
:1023E000CF911F910F91FF90EF900895EF92FF9280
:1023F0000F931F93CF93DF93EA017A01E60EF71E46
:102400008C01C8018D559D4FCE15DF0559F00D3556
:1024100021E0120718F468810E94A22D21960F5F17
:102420001F4FEFCFDF91CF911F910F91FF90EF9052
:102430000895CF93DF93C3EAD2E060E0CE010E941B
:10244000A22D2196C11584E0D807B9F7DF91CF916D
:102450000895EF92FF920F931F93CF93DF9300D0D5
:102460001F92CDB7DEB7F82E8FE08F15B8F18FEF42
:1024700093E00E94942D811131C003EA12E0FF2005
:1024800069F0011584E0180749F1C8010E94942DF4
:10249000811101C0FA940F5F1F4FF1CF19821A8288
:1024A0001B8278018FEFE81AF80AC8010E94942D68
:1024B00089831A82882391F08150833048F40E5F1B
:1024C0001F4FC7010E94942D8A83882339F0780119
:1024D000CE0101960E94160B8701E3CF0F900F905B
:1024E0000F90DF91CF911F910F91FF90EF90089582
:1024F0000F931F93CF93DF93C62FD42F122FFC017E
:1025000082818823C9F0609331010E949D219093BC
:10251000300180932F0180E28C0F883008F057C083
:10252000C77081E001C0880FCA95EAF7DF91CF91AB
:102530001F910F910C940F1680913101681330C0D8
:1025400080912F01909130010E94B521883C910526
:1025500038F500E20D0FCD17B9F080E28C0F88300E
:1025600040F4C77081E001C0880FCA95EAF70E9465
:102570001616083028F581E09D2F977001C0880F4E
:102580009A95EAF70E940F16812F0E94FC150830D9
:10259000F0F4D77081E001C0880FDA95EAF70AC03D
:1025A00080E28C0F883098F4C77081E001C0880FFA
:1025B000CA95EAF7DF91CF911F910F910C941616EF
:1025C000812FDF91CF911F910F910C94FC15DF911A
:1025D000CF911F910F9108959C01CB01233F4CE5B2
:1025E0003407F9F078F4283DFCE53F07B9F0293DC0
:1025F0004CE5340711F1273D3C4531F526E241EE2B
:1026000061EE1EC0253FFCE53F0799F070F0263FC4
:102610003C45D1F427E245EE66EE12C027E245EED6
:102620000EC026E241EE60EE0BC027E245EE64EEFE
:1026300007C026E241EE62EE03C028E241E065EE0B
:102640000E94781280E00895FC018281882319F0AD
:1026500010923101089581E008959093370180939D
:1026600036010895E0913601F0913701309721F05D
:102670000190F081E02D099480E00895EF92FF929F
:102680001F93CF93DF93FC01A0913601B0913701E6
:10269000109709F442C080910C01882341F0809189
:1026A000110287FF04C08081818385E08083EF0170
:1026B0001296ED91FC911397CE0109958091DF015F
:1026C00082FF2BC080FF04C081E396E00E945A077E
:1026D00018E08BE2E82E86E0F82E8091DF0180FF83
:1026E0000BC088811F928F93FF92EF920E94F30795
:1026F0000F900F900F900F90115021961111EDCF68
:102700008091DF0180FF09C089E296E0DF91CF91DF
:102710001F91FF90EF900C945A07DF91CF911F917A
:10272000FF90EF90089520913401309135012817E2
:10273000390771F09093350180933401E0913601AF
:10274000F0913701309721F00680F781E02D099450
:10275000089520913201309133012817390771F023
:102760009093330180933201E0913601F09137016B
:10277000309721F00084F185E02D0994089585B704
:10278000806885BF85B7806885BF089508950C94DB
:10279000C6130C94C7130C94C6130C94C6130E9452
:1027A000BF130E94CB130C94C91381E008950E94BB
:1027B00094210E94FC070E9416220C94CD13CF9303
:1027C000C82F8091DF0182FF1EC080FF04C08AE411
:1027D00096E00E945A078091DF0180FF0CC01F9293
:1027E000CF9385E496E09F938F930E94F3070F9019
:1027F0000F900F900F908091DF0180FF04C083E461
:1028000096E00E945A078C2FCF910C94A00B5F92F8
:102810006F927F928F929F92AF92BF92CF92DF92F0
:10282000EF92FF920F931F93CF93DF93CDB7DEB755
:102830002A970FB6F894DEBF0FBECDBF0E94FE07E9
:102840000E94D513811111C08FEF89838A831B8267
:102850000E949D218160782F9D838C8349815A81BC
:102860006B818D810E94C21456C099E3692E91E05C
:10287000792E00E010E088248394912C502E802F34
:102880000E9456086C01F301A190B1903F01A82667
:10289000B926A114B10431F40F5F1F4F05301105A3
:1028A00069F7D2CF8091DF0181FD0E945F0880E04F
:1028B00090E07401082E02C0EE0CFF1C0A94E2F7AF
:1028C00095012E213F21232B09F18E835F82CE209B
:1028D000DF2081E0CD2809F480E088870E949D21D7
:1028E0008160782F9A8789874E815F8168858A8584
:1028F0000E94C214000F111FF801E75CFE4F808197
:102900009181E826F926F182E08205C001968031A6
:10291000910579F6C1CF0E94321390913801891741
:10292000D9F00E943213809338012A960FB6F8949A
:10293000DEBF0FBECDBFDF91CF911F910F91FF90F2
:10294000EF90DF90CF90BF90AF909F908F907F904F
:102950006F905F900C94DF132A960FB6F894DEBF49
:102960000FBECDBFDF91CF911F910F91FF90EF90E0
:10297000DF90CF90BF90AF909F908F907F906F909F
:102980005F900895CF93DF93CDB7DEB72B970FB647
:10299000F894DEBF0FBECDBF4F83588769877A8713
:1029A0008B87DE01119686E0FD0111928A95E9F789
:1029B00085E0FE01379601900D928A95E1F70E941D
:1029C0007F1E882319F082E00E94791F0E94521E08
:1029D00081110E94031F49815A816B817C818D8105
:1029E0009E810E94501B2B960FB6F894DEBF0FBE3F
:1029F000CDBFDF91CF910895FC01808191810E942C
:102A0000241E0895CF93882309F4C8C0C82F8CEFE3
:102A10008C0F813A68F48C2F0E94C8248111BEC0AB
:102A20006C2F80910001909101010E94F1200CC057
:102A300080E28C0F883058F4C77081E001C0880FA5
:102A4000CA95EAF70E94B41ECF910C94111F8BE532
:102A50008C0F833078F4C53A29F0C63A31F083E818
:102A600090E005C081E890E002C082E890E0CF915C
:102A70000C94931388E58C0F873108F08FC0C83A07
:102A800009F445C0C93A09F445C0CA3A09F445C039
:102A9000CB3A09F445C0CC3A09F445C0CB3B09F424
:102AA00045C0CC3B09F445C0CD3A09F445C0C03B14
:102AB00009F445C0CE3A09F445C0CF3A09F445C0FF
:102AC000C13B09F445C0C23B09F445C0C33B09F40E
:102AD00045C0C43B09F445C0C53B09F445C0C63BED
:102AE00009F445C0C73B09F445C0C83B09F445C0DB
:102AF000C93B09F445C0CD3B09F445C0CE3B09F4C0
:102B000045C0CA3B09F445C080E090E044C082EE75
:102B100090E041C089EE90E03EC08AEE90E03BC07C
:102B200085EB90E038C086EB90E035C083EB90E019
:102B300032C084EB90E02FC087EB90E02CC08CEC8F
:102B400090E029C08DEC90E026C083E891E023C09E
:102B50008AE891E020C082E991E01DC084E991E01B
:102B60001AC081E292E017C083E292E014C084E2CE
:102B700092E011C085E292E00EC086E292E00BC0C6
:102B800087E292E008C08FE690E005C080E790E021
:102B900002C08AE292E0CF910C94A913CF910895DC
:102BA000882349F1682F8CEF860F813A38F48091A1
:102BB0000001909101010E94FC200CC080E2860F70
:102BC000883050F4677081E001C0880F6A95EAF799
:102BD0000E94BA1E0C94111F8BE5860F833020F4DF
:102BE00080E090E00C949313685A673120F480E001
:102BF00090E00C94A9130895CF93C82F0E9402155A
:102C0000C93349F42FEF87EE93E021508040904084
:102C1000E1F700C000008C2FCF910C94D0158823D1
:102C200021F00E94B41E0C94111F0895882321F0F6
:102C30000E94BA1E0C94111F0895CF92DF92EF925A
:102C4000FF920F931F93CF93DF937C01062FC72F23
:102C5000FC01158112951F70D281D1110E94D41EE2
:102C60000E94AA1E882379F0DD2369F080E2800F9C
:102C7000883048F082E00E94791F0E94AA1E91E0ED
:102C8000D82ED92601C0D12CCC2EC2948FE0C822D8
:102C90008C2D90E0FC01E759FF4F0C948E2D8C2F6A
:102CA000807FCF70882311F0C295C07FDD2399F01B
:102CB000CC2309F482C180E2800F883010F001112A
:102CC00004C08C2F0E94B41E03C08C2F0E94C71E0C
:102CD0000E94111F72C1802F0E94D015CC2309F4CD
:102CE00091C180E2800F883010F0011104C08C2F58
:102CF0000E94BA1E03C08C2F0E94CD1E0E94111F7D
:102D000081C18C2F807FCF70803211F0C295C07F3F
:102D1000002319F00130C9F022C0DD2371F0112326
:102D200041F0113031F40E94E71E8C2B0E94EF1EFF
:102D300069C10E94E71E8C2B1DC0112319F01130B0
:102D400009F460C10E94031F25C0DD2321F0163065
:102D500008F058C10EC0153008F054C11BC0DD2367
:102D600061F0112331F0F701858180FF26C18F705A
:102D700085838C2F0E940F1645C1112359F009330A
:102D800009F02CC1FFEF27EE83E0F1502040804096
:102D9000E1F722C18C2F0E94161634C18C2F869524
:102DA0008695837019F0813061F02CC1DD2321F00C
:102DB000802F9C2F937002C080E090E00E949313BC
:102DC00029C1DD2321F0802F9C2F937002C080E069
:102DD00090E00E94A9131EC18C2F837009F045C09A
:102DE000D11114C1402F429546954770440F440FAE
:102DF000602F6F70862F90E0A0E0B0E0042E04C03A
:102E0000880F991FAA1FBB1F0A94D2F704FF10C096
:102E10000FE010E020E030E004C0000F111F221F7F
:102E2000331F4A95D2F7009510952095309503C031
:102E300000E010E09801C695C695C370BC01CD01B5
:102E4000602B712B822B932BC23049F058F4C13088
:102E500019F00E94A11CDAC00E948F1CD7C00E94EA
:102E6000B31CD4C00E948D1CD1C0DD2319F08C2F5F
:102E7000817001C08695882309F4C8C0402F42950F
:102E800046954770440F440F602F6F70862F90E077
:102E9000A0E0B0E0042E04C0880F991FAA1FBB1F3A
:102EA0000A94D2F704FF10C00FE010E020E030E0F9
:102EB00004C0000F111F221F331F4A95D2F700953F
:102EC00010952095309503C000E010E09801C6955C
:102ED000C695C370BC01CD01602B712B822B932B47
:102EE000C23049F058F4C13019F00E94661D8EC0FE
:102EF0000E94541D8BC00E94781D88C00E94C71C70
:102F000085C0CF70DD2339F08C2F0E94ED1C802FFF
:102F10000E940F167BC0802F0E9416168C2F0E94D5
:102F20000E1D74C0023F01F128F4003F41F0013F43
:102F3000A1F03FC0033FF9F0043F39F13AC0DD236F
:102F400041F0153008F05EC08C2F8F710E94331D48
:102F500059C0163008F056C0F7CFDD2339F08C2F5A
:102F60008F710E94ED1C4EC0DD23C9F38C2F8F7131
:102F70000E940E1D47C0DD2329F08C2F8F710E9407
:102F8000D81C40C00E94D31C3DC0DD2349F0CF7146
:102F90008C2F0E94ED1C63E08C2F0E945A1F32C0C0
:102FA00081E00E94791F123068F182E00E94791F4F
:102FB00029C0DD2331F0112391F2802F0E940215E8
:102FC00021C0112399F2093349F49FEFE7EEF3E0B2
:102FD0009150E040F040E1F700C00000802F0E94D7
:102FE000D01510C04C2F4F70602FC7010E94810D6B
:102FF0000E94FE1B0FC04C2F4F70602FC7010E9414
:10300000DB0908C088EF8C0D843020F40E94321355
:103010000E94A00BDD20C9F00E947B1E80FD15C020
:10302000F70112820E94751E0E94ED1CC7010E94CA
:103030002E180E94751EDF91CF911F910F91FF9066
:10304000EF90DF90CF900C940E1DDF91CF911F91E8
:103050000F91FF90EF90DF90CF9008950F931F9303
:10306000CF93DF93EC01988189812B813C81232BC5
:1030700031F08F3F31F481E09F3F19F403C081E0CC
:1030800001C080E080FD13C0CE010E94BF0B8823E9
:1030900071F0688179818A810E942F1E8C010E94C3
:1030A0008A1D0E947B1CB801CE010E941D16DF9173
:1030B000CF911F910F910895882321F00E94C71E80
:1030C0000C94111F0895882321F00E94CD1E0C94AA
:1030D000111F08950E94D41E0E94E41E0E94111F19
:1030E00080E090E00E94931380E090E00C94A9139C
:1030F00080910001909101010E9407210C946A18AF
:103100000E94C41E0C947818E92FE295EF704E2FA0
:1031100050E0FA013297EE30F105B0F4E758FF4F76
:103120000C948E2D803F91F018F4883E68F40EC008
:10313000843F51F40BC0883E48F0813F29F406C01B
:1031400093FB882780F9089580E0089581E0089531
:103150000E94241E0E9484180895CF93DF9300D00C
:1031600000D01F92CDB7DEB70F900F900F900F9049
:103170000F90DF91CF910895CF93DF9300D000D0CF
:1031800000D0CDB7DEB726960FB6F894DEBF0FBEDF
:10319000CDBFDF91CF9108951F93CF93DF93C0915F
:1031A000440116E080914501C81799F0D0E01C9FBA
:1031B000F0011D9FF00D1124EA5BFE4F408151810B
:1031C00062817381848195810E94BC182196C770A9
:1031D000E9CFDF91CF911F910895409176015091F1
:1031E0007701609178017091790180917A019091D5
:1031F0007B010C94BC18CF9380917B0182958F70DA
:1032000009F05FC080917801882309F45AC0809149
:103210004401B091450170917601A09177014091F0
:10322000790150917A0191E07F3F09F090E0692F98
:10323000C6E08B1709F445C04115510521F0AF3F99
:1032400021F020E003C021E001C0262F90E020FD06
:1032500035C0C89FF001C99FF00D1124EA5BFE4FF5
:1032600021812A132BC02081271328C022812111FC
:1032700025C0238134812417350710F421503109EA
:10328000241B350B283C3105C8F420917B012F709D
:10329000206120937B0126E0289FF001299FF00DFB
:1032A0001124E55BFE4F80818F708061808386E70B
:1032B00091E00E942E18CF910C94CC180196877043
:1032C000B8CFCF910895AF92BF92CF92DF92EF9295
:1032D000FF920F931F93CF93DF93CDB7DEB7619724
:1032E0000FB6F894DEBF0FBECDBF8C0185E0F801AC
:1032F000DE011D9601900D928A95E1F7D8014C915F
:1033000011965C9111971296EC9030917601609134
:1033100077018091790190917A01009731F06F3FA8
:1033200031F421E03F3F19F403C021E001C020E067
:10333000B22FB170BB2E20FD60C1F801C380D480D4
:10334000A0907801AA2009F4EEC020917B01C81654
:10335000D90628F0D601A81BB90BCD0104C0809571
:1033600090958C0D9D1DFF24F394883C910580F071
:10337000F12C207F09F09CC07C2DD98AC88A6E2D43
:1033800089890E94AD1886E791E00E942E182DC110
:10339000822F807F09F054C0561314C0431312C00B
:1033A000FE2CE1100FC02F70206120937B010E9442
:1033B000ED1886E791E00E942E1880917B01F801BC
:1033C00085835CC1CD2831F05F3F31F481E04F3F10
:1033D00019F403C081E001C080E080FD03C081E0FA
:1033E0008E2502C080E090E0F82FF170FF2E80FF64
:1033F0001CC0809144012091450136E0821709F4F8
:103400001AC190E0389FF001399FF00D1124EA5B5A
:10341000FE4F6181561306C06081461303C062816E
:10342000E61203C001968770E9CFFE2CEE2009F466
:1034300025C180917B01816080937B01F12C1EC1AD
:10344000561309C0431307C0E11005C080917B01EA
:10345000F8018583A4C04D875E878D859E850E9477
:10346000A818882379F1EE2069F120917B01822F41
:1034700082958F7090E0029774F080917601909120
:10348000770198878F831986DB86CA862C87CE01C1
:1034900007960E942E1886E0F801A6E7B1E0019099
:1034A0000D928A95E1F70E94FB180E94ED180DC05D
:1034B000561771F04D875E878D859E850E94A818EE
:1034C00081111AC0C8010E942E18FF24F394D6C09F
:1034D0004313F0CFE110EECF80917B01F80185839B
:1034E000C8010E942E1886E0E6E7F1E0DF011D9298
:1034F0008A95E9F7FA2CC2C0EE2021F320917B01D6
:10350000822F82958F7090E002972CF28091760145
:10351000909177019A8389831B82DD82CC822E83EE
:10352000CE010196B6CFC816D90628F0F601E81BE1
:10353000F90BCF0104C0809590958C0D9D1D883CA2
:10354000910548F0F12C7C2DD98AC88A6E2D898985
:103550000E94AD184AC0FE2CEE2009F4B3CF5613DA
:1035600033C0431331C020917B0120FD24C0822F42
:1035700082958F70482F50E041155105E1F0D80138
:1035800015962C9315974F30510549F08F5F982F62
:103590009295907F822F8F70892B15968C93C801FE
:1035A0000E942E1886E0F801A6E7B1E001900D9286
:1035B0008A95E1F73DC086E0F801A6E7B1E0019009
:1035C0000D928A95E1F75AC04D875E878D859E855D
:1035D0000E94A81881115FCF80917B018160809348
:1035E0007B01C8010E942E1849C0E6E7F1E086E0A1
:1035F000DF011D928A95E9F71BC0EE2009F462CF26
:103600004D875E878D859E850E94A818F82E882399
:1036100009F458CF86E0F801A6E7B1E001900D92D9
:103620008A95E1F786E791E00E94FC140E94FB185E
:103630000E94ED1823C04D875E878D859E850E9470
:10364000241E292F22952F70223028F49F7039F0E4
:10365000811105C00BC0243028F49F7049F4805EAE
:10366000883020F0C8010E942E18BF2CFB2C06C009
:10367000D80115969C91907F91F7F8CF8F2D619688
:103680000FB6F894DEBF0FBECDBFDF91CF911F9173
:103690000F91FF90EF90DF90CF90BF90AF90089583
:1036A0001F93CF93DF93CDB7DEB72C970FB6F89467
:1036B000DEBF0FBECDBF4F83588769877A878B8760
:1036C0009C87CE0107960E9463198823D1F09F81C1
:1036D00088852A853B85232B31F08F3F31F481E0AB
:1036E0009F3F19F403C081E001C080E080FD47C026
:1036F0004F81588569857A858B859C850E94BC1889
:103700003EC086E0FE013796DE01119601900D92D3
:103710008A95E1F7FF81E8856A857B8561157105EA
:1037200031F0EF3F31F481E0FF3F19F403C081E055
:1037300001C080E080FD23C02091450130E0C90137
:103740000196877099274091440150E084179507AE
:10375000F1F1F983EA837D836C8396E0929FD00137
:10376000939FB00D1124AA5BBE4FFE0131960190CC
:103770000D929A95E1F7809345010E94CC1816E0CE
:103780008091440190914501891771F1189FC00102
:1037900011248A5B9E4F0E946319882329F1E091CE
:1037A00044011E9FF0011124EA5BFE4F40815181CC
:1037B00062817381848195810E94BC18809144014B
:1037C00090E001968770992780934401D9CF0E9499
:1037D00080181092450110924401E6E7F1E086E07E
:1037E000DF011D928A95E9F72C960FB6F894DEBF9B
:1037F0000FBECDBFDF91CF911F910895EF92FF9241
:103800000F931F93CF93DF938C01892B09F46CC026
:10381000F12CEE24E394E8012196F8018491843799
:1038200040F4843008F051C0813081F0823019F1C9
:103830005BC0853709F444C0A8F19CE7980F903726
:1038400008F052C08F770E94D01541C00E5F1F4F05
:10385000FE01849190E2980F983050F48770FE2D0D
:1038600001C0FF0F8A95EAF78F2F0E94D71E14C060
:103870000E9402152DC00E5F1F4FFE01849190E241
:10388000980F983060F48770FE2D01C0FF0F8A9565
:10389000EAF78F2F0E94DD1E0E94111F19C00E949F
:1038A000D01516C00E5F1F4FFE01C491CC2381F0CE
:1038B0008FE99FE00197F1F700C00000C150F6CFFB
:1038C0000E5F1F4FFE01F49003C00E9402158E018F
:1038D0008F2D882309F49FCFEFE9FFE03197F1F7AF
:1038E00000C000008150F5CFDF91CF911F910F9163
:1038F000FF90EF900895089508950C947C1C0C940B
:103900007D1C0E947F1C6093B2017093B301809371
:10391000B4019093B5010C946A180C94811C0F9318
:103920001F930091B2011091B3012091B401309125
:10393000B501602B712B822B932B1F910F910C944F
:10394000811C0F931F930091B2011091B30120913C
:10395000B4013091B50160237123822393231F9119
:103960000F910C94811C0F931F930091B201109141
:10397000B3012091B4013091B501602771278227EE
:1039800093271F910F910C94811C0C947C1C0E9416
:10399000C51C6093AE017093AF018093B00190930A
:1039A000B1010C946A1860E070E0CB010C94C71C64
:1039B0000F931F9341E050E060E070E08A019B01AB
:1039C00004C0000F111F221F331F8A95D2F7C901AF
:1039D000B8011F910F910C94C71C0F931F9341E0E6
:1039E00050E060E070E004C0440F551F661F771F71
:1039F0008A95D2F78091AE019091AF01A091B0016C
:103A0000B091B1018A019B01082B192B2A2B3B2B6A
:103A1000C901B8011F910F910C94C71C0F931F93FC
:103A200041E050E060E070E004C0440F551F661FA5
:103A3000771F8A95D2F74095509560957095809143
:103A4000AE019091AF01A091B001B091B1018A0196
:103A50009B01082319232A233B23C901B8011F9185
:103A60000F910C94C71C0F931F9341E050E060E04E
:103A700070E004C0440F551F661F771F8A95D2F768
:103A80008091AE019091AF01A091B001B091B101D0
:103A90008A019B01082719272A273B27C901B8015A
:103AA0001F910F910C94C71C0F931F930091AE01AF
:103AB0001091AF012091B0013091B101602B712BB9
:103AC000822B932B1F910F910C94C71C0F931F9364
:103AD0000091AE011091AF012091B0013091B10180
:103AE00060237123822393231F910F910C94C71C91
:103AF0000F931F930091AE011091AF012091B0017F
:103B00003091B10160277127822793271F910F9170
:103B10000C94C71C089520E1929F800D1124E82F7A
:103B2000E695E695E695877051E001C0550F8A95B8
:103B3000EAF785E0E89FF0011124E458FE4F20E009
:103B400030E070E04081CB01022E02C0969587954F
:103B50000A94E2F7817081958427852384278193D5
:103B60002F5F3F4F2530310569F7089520E1929F7F
:103B7000800D1124682F669566956695982F97702D
:103B800085E0689FB001112440E050E080E0FB0137
:103B9000E40FF51FE458FE4F208130E0092E02C0EB
:103BA000369527950A94E2F721703327042E01C039
:103BB000220F0A94EAF7822B4F5F5F4F4530510581
:103BC00031F70895BF92CF92DF92EF92FF920F9359
:103BD0001F93CF93DF938C01C090AE01D090AF01C3
:103BE000E090B001F090B1018091B2019091B301E9
:103BF000A091B401B091B501C82AD92AEA2AFB2ABA
:103C0000CFE1D0E0D701C6010C2E04C0B695A79530
:103C1000979587950A94D2F780FD04C0219790F775
:103C2000B12C07C0BC2EB8018C2F0E94840D0197C7
:103C3000A9F38B2DDF91CF911F910F91FF90EF9002
:103C4000DF90CF90BF900895CF93DF93EC010E9457
:103C5000E21DBE010E94840DDF91CF9108951F9354
:103C6000CF93DF93EB0190914301992321F0CB0196
:103C70000E94241E13C0882349F0CB010E94E21D3C
:103C8000182F682FCE010E948B1D04C0CB010E940B
:103C9000B61D182FBE01812F0E94840DDF91CF9198
:103CA0001F9108950E949D212091B9013091BA0180
:103CB0008217930750F00E949D212091B901309105
:103CC000BA01821B930B9C010AC00E949D21209186
:103CD000B9013091BA0120953095280F391F81E044
:103CE000243F314008F480E008958091B801859523
:103CF0008595859508958091B801877008950E94F3
:103D00009D212091B6013091B70182179307A8F049
:103D10000E949D212091B6013091B701821B930B27
:103D2000843F914010F480E013C08091B80182FB81
:103D3000882780F991E089270BC00E949D2120915E
:103D4000B6013091B70120953095820F931FE8CFCF
:103D5000817008959091B801977081E009F480E036
:103D600008958091DE0108959091DE01892B809362
:103D7000DE01089580959091DE0189238093DE0114
:103D800008958093DE0108951092DE0108959091C8
:103D9000DD01892B8093DD01089580959091DD01EF
:103DA00089238093DD0108951092DD01089590919B
:103DB000DC01892B8093DC01089580959091DC01D2
:103DC00089238093DC0108951092DC01089580918D
:103DD000BB01089508950C94EA1E0C94EB1ECF933A
:103DE0009091BB01981769F0C82F0E949D21909374
:103DF000BA018093B901C093BB018C2FCF910C9471
:103E0000ED1ECF9108958091BB01882349F0109257
:103E1000BB011092BA011092B90180E00C94ED1E22
:103E20000895E0910001F09101018091DE0180830D
:103E3000E0910001F091010190818091DD01892BD9
:103E40008083E0910001F091010190818091DC017B
:103E5000892B80838091BB01882321F10E94521E0F
:103E6000882371F08091DF0180FF08C08DE596E026
:103E70009F938F930E94F3070F900F900E94031F50
:103E8000E0910001F091010190818091BB01892BAB
:103E9000808380910001909101010E94692081112D
:103EA0000E94031F80910001909101010C943E1328
:103EB0000C94EA1E98E0899F90011124262B2093F0
:103EC000B8010E94ED1C0E949D219093B701809340
:103ED000B6018091B8018595859585950C94581FFC
:103EE0001092B8011092B7011092B60180E00C94C4
:103EF000581F2091B801809582238093B801982F94
:103F0000977079F430E0482F082E000C550B2417D9
:103F1000350739F08595859585950E940E1D0C9481
:103F2000701F089590932301809322010895829534
:103F3000982F937344E0949F900111248C7C869574
:103F40008695282B822F8575880F2A7A2695822BB5
:103F50000895CF93DF93D92F0E94971FC82F8D2FDD
:103F60000E94971F2C2F30E0322F2227A901482BC7
:103F7000CA01DF91CF9108956FEF7FEF80E090E06D
:103F80000C94C02D80E090E00E949C2D21E08C3E9E
:103F90009E4F09F020E0822F089582E090E00C947B
:103FA000942D83E090E00C94942DCF9384E090E0E6
:103FB0000E94942DC82F81E290E00E94942D2C2F16
:103FC00030E0A901582BCA01CF910895CF93C92F92
:103FD000682F84E090E00E94A22D6C2F81E290E097
:103FE000CF910C94A22DAB01BC018FE090E00C941A
:103FF000B42DAB01BC0183E190E00C94B42D60E0E2
:1040000070E0CB010C94F91F60E070E0CB010E94DE
:10401000F31F0C94FF1F6CEE7EEF80E090E00E9497
:10402000C02D60E082E090E00E94A22D60E083E07D
:1040300090E00E94A22D1092B2011092B301109252
:10404000B4011092B50160E084E090E00E94A22DDE
:1040500060E081E290E00E94A22D60E085E090E0C7
:104060000E94A22D60E086E090E00E94A22D6FEFFA
:1040700087E090E00E94A22D40E050E0BA0188E085
:1040800090E00E94B42D60E08DE090E00E94A22DAF
:1040900040E050E0BA0188E190E00E94B42D60E079
:1040A00087E190E00E94A22D40E050E0BA018CE14F
:1040B00090E00E94B42D60E080E290E00E94A22D8A
:1040C0000C9404200C940B20682F8EE090E00C944C
:1040D000A22DFC01329680910C01882331F0809151
:1040E000110287FF02C09EE101C096E080E091507E
:1040F00028F021912223D9F38F5FF9CF08959C01F5
:10410000FC0132969FEF80E04191461789F09F3F76
:1041100019F4411101C0982F8F5F8630A9F79F3F96
:1041200039F0F901E90FF11D97FDFA9562830895C1
:1041300008959C012A5F3F4FFC014281461301C054
:104140001282019682179307B9F70895262F2695B4
:10415000269526952E3170F4FC01E20FF11D677053
:1041600021E030E001C0220F6A95EAF78281282B16
:10417000228308958091DF0180FF0CC01F926F930E
:104180008DE896E09F938F930E94F3070F900F9016
:104190000F900F900895262F2695269526952E315F
:1041A00078F4FC01E20FF11D677021E030E001C0FE
:1041B000220F6A95EAF720958281282322830895A9
:1041C0008091DF0180FF0CC01F926F938FE696E015
:1041D0009F938F930E94F3070F900F900F900F9073
:1041E000089520910C01222329F02091110227FD2E
:1041F0000C94A6200C947F2020910C01222329F0FE
:104200002091110227FD0C94CB200C949920209131
:104210000C01FC013296222331F08091110287FFBC
:1042200002C08EE101C086E0DF011D928A95E9F7A8
:10423000089508950C9419210C941921CF930E948C
:104240001C210E94FE070E941A21C0E08C2F0E94B0
:104250005608892B29F4CF5FC530C1F780E001C033
:1042600081E0CF9108950E940E0A80911702843058
:1042700049F11092E00120E488E190E00FB6F89453
:10428000A895809360000FBE2093600080E00E949C
:10429000A00B0E940E0A83B7817F846083BF83B71F
:1042A000816083BF7894889583B78E7F83BF0FB674
:1042B000F894A895809160008861809360001092C6
:1042C00060000FBE08950E9480180E9432130E9461
:1042D000A00B0C940F0A1F920F920FB60F9211248D
:1042E0008F939F93AF93BF938091E001811113C08F
:1042F00080910D0290910E02A0910F02B0911002D8
:104300004196A11DB11D80930D0290930E02A093C2
:104310000F02B0931002BF91AF919F918F910F90B8
:104320000FBE0F901F90189582E084BD93E095BD5D
:104330009AEF97BD80936E0008952FB7F8948091FF
:104340000D0290910E02A0910F02B09110022FBFAA
:1043500008952FB7F89460910D0270910E0280912C
:104360000F02909110022FBF0895CF92DF92EF922B
:10437000FF920F931F932FB7F89440910D02509125
:104380000E0260910F02709110022FBF6A017B0133
:10439000EE24FF248C0120E030E0C016D106E206B6
:1043A000F30610F4415051099A01281B390BC90139
:1043B0001F910F91FF90EF90DF90CF900895789428
:1043C0001F920F920FB60F9211248F939F93AF936A
:1043D000BF9380910D0290910E02A0910F02B091B7
:1043E00010020196A11DB11D80930D0290930E0243
:1043F000A0930F02B0931002BF91AF919F918F9144
:104400000F900FBE0F901F90189587E797E7909336
:104410000108809300089AE088E10FB6F894A89507
:10442000809360000FBE90936000FFCF0E94C21F78
:10443000811102C00E9462200E94CD1F8093DF0183
:104440000E94D51F90931202809311020E94D11FE7
:10445000682F70E080E090E00C948D1CCF93C82F03
:104460001F928F9381EB96E09F938F930E94F307A7
:1044700081E090E0A0E0B0E0BC01CD0104C0660F97
:10448000771F881F991FCA95D2F70E948D1C0F9025
:104490000F900F900F90CF910C948018CF93DF93D3
:1044A000482F50E0FA013597EF33F10508F063C269
:1044B000E957FF4F0C948E2D8BE19CE00E945A0728
:1044C00087E59BE00E945A070E94D11F1F928F939D
:1044D00084E59BE09F938F930E94F30782E59BE026
:1044E0000E945A070E94CD1FC82F8FE39BE00E94B5
:1044F0005A071F92CF938AE39BE09F938F930E946A
:10450000F30788E39BE00E945A078EE29BE00E943B
:104510005A078C2F81701F928F938BE29BE09F93A1
:104520008F930E94F30789E29BE00E945A078FE174
:104530009BE00E945A07C1FB882780F91F928F9346
:104540008CE19BE09F938F930E94F3078AE19BE0AD
:104550000E945A078EE09BE00E945A07C2FB882700
:1045600080F91F928F938BE09BE09F938F930E9423
:10457000F30789E09BE00E945A0780E09BE00E94DD
:104580005A07C3FBCC27C0F91F92CF938DEF9AE057
:104590009F938F930E94F3078BEF9AE00E945A0734
:1045A0000E94D51FEC0187EE9AE00E945A07DF9324
:1045B000CF9382EE9AE09F938F930E94F30780EE51
:1045C0009AE00E945A0787EC9AE00E945A078C2FC3
:1045D00081701F928F9384EC9AE09F938F930E9437
:1045E000F3078DB79EB780960FB6F8949EBF0FBEA7
:1045F0008DBF82EC9AE00E945A078BEA9AE00E94F3
:104600005A07C1FB882780F91F928F9388EA9AE0A6
:104610009F938F930E94F30786EA9AE00E945A07BD
:1046200084E99AE00E945A078D2F81701F928F9320
:1046300081E99AE09F938F930E94F3078FE89AE0B5
:104640000E945A078DE79AE00E945A07D695D170CA
:104650001F92DF938AE79AE09F938F930E94F3075C
:1046600088E79AE00E945A0786E69AE00E945A0775
:10467000C2FB882780F91F928F9383E69AE09F936D
:104680008F930E94F30781E69AE00E945A078FE415
:104690009AE00E945A07C3FB882780F91F928F93E4
:1046A0008CE49AE09F938F930E94F3078AE49AE048
:1046B0000E945A0780E49AE00E945A07C4FB8827A8
:1046C00080F91F928F938DE39AE09F938F930E94BE
:1046D000F3078BE39AE00E945A0789E29AE00E946E
:1046E0005A07C5FB882780F91F928F9386E29AE0CC
:1046F0009F938F930E94F30784E29AE00E945A07E7
:1047000088E09AE00E945A07C6FB882780F91F922A
:104710008F9385E09AE09F938F930E94F3078DB764
:104720009EB780960FB6F8949EBF0FBE8DBF83E0F4
:104730009AE00E945A078BEF99E00E945A07C7FB44
:10474000CC27C0F91F92CF9388EF99E09F938F9366
:104750000E94F30786EF99E00E945A070F900F908E
:104760000F900F9006C08AE09CE00E945A070E94BA
:104770006220C1E005C184E498E07FC08091DF0140
:10478000817F8E7F8093DF0189E298E00E945A0743
:1047900086E09CE00E945A0781E08093E101E9CF26
:1047A0000E9480188AEE9BE00E945A079FEF23ED3B
:1047B00080E3915020408040E1F700C000000E945B
:1047C0000522D7CF8091DF01C82FC095C170C0FBF3
:1047D00080F98093DF01CC2319F08EED9BE0BDC002
:1047E00081ED9BE00E945A078091DF01897F877FDE
:1047F0008093DF01BECF9091DF0191FBCC27C0F900
:1048000081E0C827892FC0FB81F98093DF01CC2389
:1048100019F084EC9BE027C086EB9BE02EC09091C2
:10482000DF0192FBCC27C0F981E0C827892FC0FBAC
:1048300082F98093DF01CC2319F087EA9BE013C053
:1048400087E99BE01AC09091DF0193FBCC27C0F968
:1048500081E0C827892FC0FB83F98093DF01CC2337
:1048600051F08BE89BE00E945A078091DF01816044
:104870008093DF0185C08EE79BE00E945A0779CFC5
:104880008AE198E00E945A0785E098E00E945A0762
:1048900089EC97E00E945A0784E997E00E945A0742
:1048A00082E697E00E945A0787E397E0E6CF89E225
:1048B00097E00E945A070E9432131F928F938FE055
:1048C00097E09F938F930E94F30780910C011F92B2
:1048D0008F9388EF96E09F938F930E94F3078091C8
:1048E00006021F928F9385EE96E09F938F930E940E
:1048F000F3078091110287FB882780F91F928F931D
:104900008DEC96E09F938F930E94F3070E94A9215C
:104910009F938F937F936F9386EB96E09F938F93F4
:104920000E94F3078DB79EB746960FB6F8949EBFC8
:104930000FBE8DBF1ECF0E9480189091110297FB71
:10494000CC27C0F981E0C827892FC0FB87F9809365
:104950001102CC2329F084E79BE00E945A0710C083
:1049600089E69BE08ACF895303C08D5101C080E066
:104970000E942E22FECE87E69BE00E945A07C0E0EE
:104980008C2FDF91CF91089580E008950C94C4247A
:10499000CF93C82F8091E101882319F0813031F045
:1049A00038C00E94B11E8232B1F504C00E94B11E0F
:1049B000823261F48C2F0E94C624811104C08C2F96
:1049C0000E944E2224C081E090E021C08C2F0E94E2
:1049D000C42481111BC0C43189F018F4CB3029F0F4
:1049E00010C0C93259F0C83361F489E298E00E94DE
:1049F0005A078DEA96E00E945A0708C01092E1011A
:104A00000CC08BEA96E00E945A0707C081E08170D3
:104A100006C01092E10180E002C080E0F8CFCF91A3
:104A2000089580910502089508959FB7F894109213
:104A3000E4019FBF90911702943009F057C0909104
:104A4000E9009F703091EC00232F217030FD20E8A9
:104A5000922B25E02093E9002091EB0020FF43C03A
:104A60002091EE0027FF3FC02091E201222321F098
:104A70002091E80025FF37C01092E20126E0309136
:104A8000E80035FD15C030911702343061F53091E2
:104A9000EB0035FD28C0215021F481E08093E20134
:104AA00022C0EFE9FFE03197F1F700C00000E7CF47
:104AB0008093F1008091E80085FD0AC08091E800B4
:104AC00080FFFCCF8091E8008E778093E80006C0DD
:104AD0008FB7F89421E02093E4018FBF9F709093EB
:104AE000E90080E008959F709093E9008FEF0895AA
:104AF0000F931F93CF93DF9300D01F92CDB7DEB7F4
:104B00008C010E947D28823011F0843019F584E0F8
:104B100089831B830A838093E9008FEF9091E800DB
:104B2000815095FD06C095ED9A95F1F70000811131
:104B3000F5CF8091E80085FF0DC040E050E063E0D4
:104B400070E0CE0101960E949A288091E8008E774D
:104B50008093E8000F900F900F90DF91CF911F91FD
:104B60000F910895CF93DF9300D01F92CDB7DEB79A
:104B700020911702243029F533E0398380589109B8
:104B80009B838A832093E9008FEF9091E800815006
:104B900095FD06C095ED9A95F1F700008111F5CFCE
:104BA0008091E80085FF0DC040E050E063E070E0D8
:104BB000CE0101960E949A288091E8008E7780931A
:104BC000E8000F900F900F90DF91CF910895CF9351
:104BD000DF93EC010E947D28823011F08430D9F5FA
:104BE00080910C01882339F08091110287FF03C066
:104BF00060E284E002C068E081E08093E9008FEF2A
:104C00009091E800815095FD06C095ED9A95F1F7D9
:104C100000008111F5CF8091E80085FF1CC08091D4
:104C20000C01811105C040E050E068E070E003C075
:104C300070E040E050E0CE010E949A288091E800A8
:104C40008E778093E80080E2FE01A5EEB1E001904E
:104C50000D928A95E1F7DF91CF910895CF9360325D
:104C600019F5209117022430F9F4C091E900CF70B2
:104C70003091EC00232F217030FD20E8C22B22E080
:104C80002093E9002091E80020FF0BC040E050E0B5
:104C900060E270E00E949A288091E8008E7780930D
:104CA000E800CF70C093E900CF9108958BE49CE0B9
:104CB0000E945A0780911602811109C00E94762A2B
:104CC0000E94D32A8091E20084608093E2000895DC
:104CD00087E49CE00E945A0710921602089583E42C
:104CE0009CE00C945A078FE39CE00C945A078BE3EA
:104CF0009CE00E945A070C9463212091E3012F5FEE
:104D0000822F62E30E94822D992319F02093E30100
:104D100008951092E3018091E401882371F180915C
:104D20001702843041F58091E9008F702091EC00EA
:104D3000922F917020FD90E8892B95E09093E900E7
:104D40009091EB0090FF14C09091EE0097FF10C07F
:104D50009091E80095FF03C01092F100F9CF909177
:104D6000E80090FF05C09091E8009E779093E800DE
:104D70008F708093E9001092E401089542E061ECA5
:104D800081E00E94EF2942E261EC84E00E94EF2979
:104D900042E261EC82E00E94EF2942E260EC83E0B3
:104DA0000E94EF2942E261EC85E00C94EF298091AA
:104DB0001902833009F462C030F4813071F082301E
:104DC00009F49BC008958A3009F487C08B3009F438
:104DD0006DC0893009F0A9C020C080911802813AC5
:104DE00009F0A3C08091E800877F8093E80080915C
:104DF0001C0290911D02892B21F460E285EE91E066
:104E000003C060E080E090E070E00E943029809173
:104E1000E8008B778093E800089580911802813232
:104E200009F083C080911C0290911D02009719F037
:104E3000029709F07AC08091E800877F8093E800AC
:104E40008091E80082FD05C0809117028111F8CFA2
:104E50006CC02091F3008091F20090E0922B0297B9
:104E600029F48091F1008B7F813021F48091F10051
:104E7000809305028091E8008B7753C080911802DF
:104E8000813A09F052C080911C0290911D02892B39
:104E900009F04BC08091E800877F8093E800809103
:104EA000E80080FFFCCF80910C0136C08091180291
:104EB0008132D9F580911C0290911D02892BA9F5B0
:104EC0008091E800877F8093E8000E94242A8091E7
:104ED0001A0280930C010C94801880911802813280
:104EE00021F58091E800877F8093E8000E94242AC2
:104EF00080911B0280930602089580911802813AE6
:104F0000A1F48091E800877F8093E8008091E80019
:104F100080FFFCCF809106028093F1008091E80031
:104F20008E778093E8000C94242A08951F93CF93E2
:104F3000DF93CDB7DEB7A0970FB6F894DEBF0FBEF4
:104F4000CDBF84B7877F84BF0FB6F894A8958091B2
:104F50006000886180936000109260000FBE80E85E
:104F600080936100109261000E94CF130E94762A04
:104F70000E94D32A8091E20084608093E20085E160
:104F800095E20E94921F78940E94672D0E94D71389
:104F900082E091E00E942D138AE29CE00E945A0771
:104FA00013E080911702853089F486E29CE00E942C
:104FB0005A070E94332180911502882391F30E94A1
:104FC0001E21882371F30E948428EBCF0E940714CE
:104FD00080911702843029F71093E9008091E8004E
:104FE00082FFDFCF8091E80085FF0AC040E050E0FB
:104FF00060E270E0CE0101960E94E52891E001C0D8
:1050000090E08091E8008B778093E800992349F243
:1050100060E2CE0101960E94D608C3CF0C941028FE
:10502000292F332723303105C9F060F421303105B1
:1050300081F02230310509F047C08BE790E027E886
:105040003CE046C02132310511F12232310561F1D7
:105050003BC082E190E022E03DE03AC099278130F8
:10506000910561F040F08230910559F0039761F5A8
:10507000EFE4FCE008C0E3E8FCE005C0E3E7FCE0A7
:1050800002C0E5E5FCE0849190E09F0121C064301E
:105090007105D0F4660F771FFB01E75EFE4F20819C
:1050A000318189E090E014C06430710568F4FB013F
:1050B000EE0FFF1FEF5EFE4F20813181FB01E35FAA
:1050C000FE4F808190E004C080E090E020E030E07E
:1050D000FA013183208308950895CF93C82F0E9449
:1050E0006C28C0930702CF910895809117028430F5
:1050F00011F081E0089582E0089580910702811106
:1051000002C00C947528089580E189BD82E189BDB3
:1051100009B400FEFDCF8091D8008F7D8093D80028
:105120008091E00082608093E0008091E00081FD4A
:10513000FCCF0895CF92DF92EF92FF920F931F93CF
:10514000CF93DF93EC018B017A010E94432A8111F6
:1051500033C0E114F10439F0F70180819181081B1B
:10516000190BC80FD91FC12CD12C0115110519F12C
:105170008091E80085FD16C08091E8008E778093CD
:10518000E800E114F10449F0F70180819181C80E33
:10519000D91ED182C08285E00FC00E94432A882395
:1051A00021F30AC089918093F10001501109FFEFAA
:1051B000CF1ADF0ADACF80E0DF91CF911F910F91F4
:1051C000FF90EF90DF90CF900895CF92DF92EF9213
:1051D000FF920F931F93CF93DF93EC018B017A0122
:1051E0000E94432A811133C0E114F10439F0F70120
:1051F00080819181081B190BC80FD91FC12CD12C9C
:105200000115110519F18091E80085FD16C0809106
:10521000E8008B778093E800E114F10449F0F7018E
:1052200080819181C80ED91ED182C08285E00FC0D5
:105230000E94432A882321F30AC08091F1008993B8
:1052400001501109FFEFCF1ADF0ADACF80E0DF91BA
:10525000CF911F910F91FF90EF90DF90CF90089525
:1052600020911E0230911F022617370748F0611562
:10527000710539F42091E8002E772093E80001C0F1
:10528000B901FC0120E06115710579F180911702E7
:105290008823F1F18530F1F18091E80083FD3CC075
:1052A0008091E80082FD2EC08091E80080FFEBCF66
:1052B0002091F3008091F20090E0922B611571052E
:1052C00051F08830910538F421912093F10061501C
:1052D00071090196F3CF21E0089709F020E0809151
:1052E000E8008E778093E800CECF2111CFCF0AC09F
:1052F00080911702882361F0853061F08091E80089
:1053000083FD0AC08091E80082FFF2CF80E008951B
:1053100082E0089583E0089581E0089520911E02BF
:1053200030911F022617370748F06115710539F4CF
:105330002091E8002E772093E80001C0B901FC011C
:1053400020E06115710591F180911702882309F41D
:1053500040C0853009F43FC08091E80083FD3DC026
:105360008091E80082FD2FC08091E80080FFE9CFA6
:105370002091F3008091F20090E0922B611571056D
:1053800059F08830910540F424912093F100319632
:10539000615071090196F2CF21E0089709F020E0F1
:1053A0008091E8008E778093E800CBCF2111CCCF9D
:1053B0000AC080911702882361F0853061F08091E6
:1053C000E80083FD0AC08091E80082FFF2CF80E010
:1053D000089582E0089583E0089581E00895982F6C
:1053E000973068F59093E900981739F07091EC00C8
:1053F0002091ED005091F00003C0242F762F50E053
:1054000021FD02C09F5FECCF3091EB003E7F3093D7
:10541000EB003091ED003D7F3093ED003091EB00DB
:1054200031603093EB007093EC002093ED005093CB
:10543000F0002091EE0027FDE5CF80E008958F7009
:105440008093E90081E008958091180287FF11C0E0
:105450008091E80082FD05C0809117028111F8CF8C
:1054600011C08091E8008B770BC0809117028823D0
:1054700049F08091E80080FFF8CF8091E8008E77B6
:105480008093E80008952091E4003091E50095E6CE
:105490004091EC00842F817040FF23C08091E80090
:1054A00080FD1DC080911702882399F0853099F006
:1054B0008091EB0085FD11C04091E4005091E50022
:1054C0002417350729F3915011F09A01E1CF84E0B8
:1054D000089582E0089583E0089581E0089580E0D2
:1054E00008954091E80042FFDDCF08950E94E42A2C
:1054F0000E94EC2AE0EEF0E0808181608083E8ED9C
:10550000F0E080818F77808319BCA7EDB0E08C91AB
:105510008E7F8C9380818F7E8083109216020895F7
:105520000F931F93CF93DF930E94E42A0E94EC2AEB
:10553000C8EDD0E088818F778883888180688883F0
:1055400088818F7D888319BC1092170210921302F4
:10555000109215021092140200EE10E0F801808102
:105560008B7F808388818160888342E060E080E077
:105570000E94EF29E1EEF0E080818E7F8083E2EEF1
:10558000F0E0808181608083808188608083F80181
:1055900080818E7F8083888180618883DF91CF9135
:1055A0001F910F910895E8EDF0E080818F7E808358
:1055B000E7EDF0E080818160808384E082BF81E05C
:1055C000809316020C94902AE8EDF0E080818E7FA3
:1055D00080831092E20008951092DA001092E100A8
:1055E00008951F920F920FB60F9211242F933F939D
:1055F0004F935F936F937F938F939F93AF93BF93DB
:10560000EF93FF938091E10082FF0BC08091E20055
:1056100082FF07C08091E1008B7F8093E1000E94B0
:105620007D268091DA0080FF1FC08091D80080FF26
:105630001BC08091DA008E7F8093DA008091D900C0
:1056400080FF0DC080E189BD82E189BD09B400FE03
:10565000FDCF81E0809317020E94562605C019BC39
:10566000109217020E9468268091E10080FF19C005
:105670008091E20080FF15C08091E2008E7F8093D0
:10568000E2008091E20080618093E2008091D80086
:1056900080628093D80019BC85E0809317020E9435
:1056A00073268091E10084FF30C08091E20084FF86
:1056B0002CC080E189BD82E189BD09B400FEFDCF27
:1056C0008091D8008F7D8093D8008091E1008F7EFB
:1056D0008093E1008091E2008F7E8093E2008091D0
:1056E000E20081608093E20080911302882311F030
:1056F00084E007C08091E30087FD02C081E001C023
:1057000083E0809317020E9477268091E10083FF57
:1057100029C08091E20083FF25C08091E100877F4E
:105720008093E10082E0809317021092130280912F
:10573000E1008E7F8093E1008091E2008E7F809374
:10574000E2008091E20080618093E20042E060E04C
:1057500080E00E94EF298091F00088608093F00043
:105760000E946F26FF91EF91BF91AF919F918F9112
:105770007F916F915F914F913F912F910F900FBE4D
:105780000F901F9018951F920F920FB60F92112431
:105790002F933F934F935F936F937F938F939F9339
:1057A000AF93BF93CF93DF93EF93FF93C091E90043
:1057B000CF708091EC00D82FD17080FDD0E810928E
:1057C000E9008091F000877F8093F00078940E9438
:1057D000072C1092E9008091F00088608093F0001F
:1057E000CD2BCF70C093E900FF91EF91DF91CF9166
:1057F000BF91AF919F918F917F916F915F914F91E9
:105800003F912F910F900FBE0F901F9018951F93EF
:10581000CF93DF93CDB7DEB7AA970FB6F894DEBF6C
:105820000FBECDBFE8E1F2E08091F100819322E06C
:10583000E032F207C9F70E94D7268091E80083FF83
:105840002EC18091180290911902492F50E04A30E0
:10585000510508F024C1FA01EA53FF4F0C948E2D34
:10586000803821F0823809F01AC108C080911402F2
:1058700090911502992389F082600FC080911C02DB
:105880008F70873008F00BC18093E9008091EB00A6
:1058900085FB882780F91092E9009091E800977FB6
:1058A0009093E8008093F1001092F100D1C0282F6E
:1058B0002D7F09F0F4C0882319F0823061F0EFC029
:1058C00080911A02813009F0EAC0933009F080E03B
:1058D000809315022EC080911A0281112AC08091F6
:1058E0001C028F702FEF280F263008F0D8C080934D
:1058F000E9002091EB0020FF1CC0933021F480913F
:10590000EB00806214C09091EB0090619093EB00EB
:1059100021E030E0A90102C0440F551F8A95E2F74B
:105920004093EA001092EA008091EB008860809337
:10593000EB001092E9008091E800877F8093E800F7
:105940000E94242AACC08111AAC010911A021F77AC
:105950008091E3008078812B8093E3008091E800C0
:10596000877F8093E8000E94242A8091E80080FFCE
:10597000FCCF8091E30080688093E300111102C0A6
:1059800082E001C083E08093170289C08058823092
:1059900008F085C080911A0290911B028C3D53E063
:1059A000950779F583E08A838AE289834FB7F89473
:1059B000DE01139620E03EE051E2E32FF0E0509349
:1059C0005700E49120FF03C0E295EF703F5FEF7056
:1059D0008E2F90E0EA3010F0C79601C0C0968D93EC
:1059E0009D932F5F243149F74FBF8091E800877F57
:1059F0008093E8006AE270E0CE0101960E943029AF
:105A000016C060911C0270911D02AE014F5F5F4F86
:105A10000E940E28BC01892B09F441C09091E80036
:105A2000977F9093E80089819A810E948E298091C6
:105A3000E8008B778093E80032C0803881F5809150
:105A4000E800877F8093E800809113028093F10043
:105A50008091E8008E7772CF811121C080911A0267
:105A600090911B0299270297D4F48091E800877FD8
:105A70008093E80080911A02809313020E94242AE6
:105A800080911302811106C08091E30087FD02C05E
:105A900081E001C084E0809317020E94BE268091BD
:105AA000E80083FF0AC08091E800877F8093E800C8
:105AB0008091EB0080628093EB00AA960FB6F89479
:105AC000DEBF0FBECDBFDF91CF911F910895CF9361
:105AD000809117028823A1F0C091E900CF709091C6
