:100000000C9461040C94A8040C94A8040C94A80407
:100010000C94A8040C94A8040C94A8040C94A804B0
:100020000C94A8040C94A8040C94E12A0C94B52B0D
:100030000C942C250C94A8040C94A8040C94A804EB
:100040000C94A8040C94A8040C94A8040C94A80480
:100050000C94B8120C9483250C94A8040C94A80456
:100060000C94A8040C94A8040C94A8040C94A80460
:100070000C94A8040C94A8040C94A8040C94A80450
:100080000C94A8040C94A8040C94A8040C94A80440
:100090000C94A8040C94A8040C94A8040C94A80430
:1000A0000C94A8040C94A8040C94A8043A003B00F7
:1000B00035001E001F002000210022002300240024
:1000C00025003C003D002B0014001A00080015001C
:1000D00017001C0018000C003E003F00390004000F
:1000E0001600070009000A000B000D000E0040007A
:1000F0004100E10029001D001B0006001900050059
:100100001100100042004300E000E300E2000000A4
:10011000000000002C0000000000260027002D0039
:100120002E002A00490053005400550056000000DC
:10013000120013002F00300031004C005F006000FF
:100140006100570000000F00330034002800000059
:100150004B005C005D005E000000000036003700D0
:100160003800E50052004E0059005A005B0058006C
:1001700000000000E600E400500051004F00620063
:100180000000630000000000010001000100010008
:100190000100010001000100010001000100010057
:1001A0000100010001000100010001000100010047
:1001B0000100010001000100010001000100010037
:1001C0000100010001000100010001000100010027
:1001D0000100010001000100010001000100010017
:1001E000010001000100010001000000000000000A
:1001F00001000000000001000100010001000100F9
:1002000001000100010001000100000001000100E7
:1002100001000100010001000100010001000100D6
:1002200000000100010001000100000001000100C8
:1002300001000100000000000100010001000100B8
:1002400001000100010001000100010000000000A8
:100250000100010001000100010001000000010097
:100260000000000001000100010001000100010088
:100270000100010001000100010001000100010076
:100280000100010001000100010001000100010066
:100290000100010001000100010001000100010056
:1002A0000100010001000100010001000100010046
:1002B0000100010001000100010001000100010036
:1002C000010001000100000000000000010000002A
:1002D0000000010001000100010001000100010017
:1002E0000100010001000000010001000100010007
:1002F00001000100010001000100010000000100F7
:1003000001000100010000000100010001000100E6
:1003100000000000010001000100010001000100D7
:1003200001000100010001000000000001000100C7
:1003300001000100010001000000010000000000B8
:1003400001000100010001000100010001000100A5
:100350000100010001000100010001000100010095
:100360000100010001000100010001000100010085
:100370000100010001000100010001000100010075
:100380000100010001000100010001000100010065
:100390000100010001000100010001000100010055
:1003A000010000000000000001000000000001004A
:1003B0000100010001000100010001000100010035
:1003C0000100000001000100010001000100010026
:1003D0000100010001000100000001000100010016
:1003E0000100000001000100010001000000000008
:1003F00001000100010001000100010001000100F5
:1004000001000100000000000100010001000100E6
:1004100001000100000001000000000000000000D9
:10042000000000002A2B280000000000000000004F
:100430000000000000000029000000002C1E3420F5
:10044000212224342627252E362D3738271E1F201B
:100450002122232425263333362E37381F04050660
:100460000708090A0B0C0D0E0F10111213141516A4
:100470001718191A1B1C1D2F3130232D35040506A2
:100480000708090A0B0C0D0E0F1011121314151684
:100490001718191A1B1C1D2F3130354C0000000095
:1004A000000000000000000000000000000000004C
:1004B0007E0F00D4FFFFFFC70000007832190A004A
:1004C000047F3F1F643214643214783C1E1E140AE9
:1004D000052223252628292A2C2D2F303233353684
:1004E000383A3B3D3E4042434547494A4C4E5051C5
:1004F000535557595A5C5E6062646668696B6D6FEC
:1005000071737577797B7D7F81838587898A8C8EEE
:1005100090929496989A9C9E9FA1A3A5A7A8AAACF6
:10052000AEAFB1B3B4B6B8B9BBBCBEBFC1C2C3C530
:10053000C6C7C9CACBCCCDCED0D1D2D2D3D4D5D6D2
:10054000D7D7D8D9D9DADADBDBDBDCDCDCDCDCDD05
:10055000DDDDDDDCDCDCDCDCDBDBDBDADAD9D9D8E9
:10056000D7D7D6D5D4D3D2D2D1D0CECDCCCBCAC981
:10057000C7C6C5C3C2C1BFBEBCBBB9B8B6B4B3B1B0
:10058000AFAEACAAA8A7A5A3A19F9E9C9A9896944B
:1005900092908E8C8A89878583817F7D7B79777520
:1005A00073716F6D6B6968666462605E5C5A5957FF
:1005B000555351504E4C4A4947454342403E3D3BBE
:1005C0003A3836353332302F2D2C2A292826252348
:1005D00022FFAA7F5540000000000000000000003C
:1005E0000001010203040506080A0C0F1114181C6F
:1005F0002024292E33393F464C535B626A7179813E
:100600008A929AA2AAB2B9C1C8CFD5DCE1E7EBF0D1
:10061000F4F7FAFCFDFEFFFEFDFCFAF7F4F0EBE761
:10062000E1DCD5CFC8C1B9B2AAA29A928A81797108
:100630006A625B534C463F39332E2924201C181420
:10064000110F0C0A08060504030201010000000056
:100650000000000000000001010101010101010191
:100660000202020202020202020303030303030363
:100670000304040404040404050505050506060630
:100680000606070707070708080808090909090AED
:100690000A0A0B0B0B0C0C0C0D0D0D0E0E0E0F0F92
:1006A0000F10101111111212131314141515161620
:1006B0001717181819191A1A1B1B1C1D1D1E1E1F8F
:1006C0002020212222232424252626272829292ADE
:1006D0002B2C2D2D2E2F3031323233343536373806
:1006E000393A3B3C3D3E3F40414243444546474802
:1006F000494A4C4D4E4F50515354555658595A5BD8
:100700005D5E5F616264656668696B6C6D6F707277
:10071000737577787A7B7D7E8082838587888A8CE3
:100720008E8F91939596989A9C9EA0A2A3A5A7A917
:10073000ABADAFB1B3B5B7BABCBEC0C2C4C6C9CB0E
:10074000CDCFD1D4D6D8DBDDDFE2E4E7E9EBEEF0C4
:10075000F3F5F8FAFDFF04033000000012034D002A
:1007600065006F00770054006F006F006C000000A0
:1007700010034C004E00450020004C006100620058
:1007800000000403090409025B00030100A0FA0948
:1007900004000001030101000921110100012240B0
:1007A000000705810308000A090401000203000094
:1007B0000009211101000122220007058203200007
:1007C00001070503032000010904020001030000E2
:1007D00000092111010001226D000705840320009A
:1007E0000A12011001000000080912585801F00116
:1007F0000203010660FF0961A1010962150026FFDD
:10080000009520750881020963150026FF009520D8
:1008100075089102C005010980A101850319012A0B
:10082000B700150126B700950175108100C0050CB1
:100830000901A101850419012AA002150126A002BF
:10084000950175108100C005010906A10185050506
:100850000719E029E71500250195087501810205B2
:1008600007190029EF1500250195F0750181020592
:1008700008190129059505750191029501750391E6
:1008800001C005010906A101050719E029E71500C6
:1008900025019508750181029501750881010507FB
:1008A000190029FF150026FF00950675088100052F
:1008B00008190129059505750191029501750391A6
:1008C00001C011241FBECFEFDAE0DEBFCDBF04B6FA
:1008D00003FE27C08091190490911A04A0911B0473
:1008E000B0911C048730904BA740B04BD1F41092CC
:1008F000190410921A0410921B0410921C0414BEC6
:1009000084B7877F84BF0FB6F894A8958091600064
:10091000886180936000109260000FBEE0E0F8E311
:10092000099511E0A0E0B1E0E8E4FEE502C0059021
:100930000D92A63DB107D9F724E0A6EDB1E001C0C4
:100940001D92A931B207E1F70E9497270C94CC2E93
:100950000C9400006E9A769A819A899A0895CF93A2
:10096000C82F0E945006882331F0C0FD06C0769A39
:10097000C1FD05C0899ACF9108957698F9CF8998DD
:10098000FACF0E94940F4FEF6FEF80E00E949E0C11
:100990008BE00E94910F60E070E0CB010E94A723E2
:1009A0000C94B32381E0089581E008950C94D4045D
:1009B00008950C94D8041F93CF93DF9300D000D0F8
:1009C0000F92CDB7DEB749835A836B833091A7026C
:1009D00089819A8131111DC06623B9F02223A9F0C3
:1009E0000E942622182F682F89819A810E94D22185
:1009F00069817A81812F0F900F900F900F900F9047
:100A0000DF91CF911F910C942B160E94FE21182F7D
:100A1000EFCF0E94262269817A81EDCFFC01262F3B
:100A2000408151816281738184810C94DB04CF9376
:100A3000DF93EC0160E00E940E05BE01DF91CF91D3
:100A40000C94D904FF920F931F93CF93DF93E82F59
:100A5000F0E0E45EFB4FF490C82FC695C695C695AE
:100A6000D0E0FE01E455FB4F0491877010E0082EA2
:100A700002C0159507950A94E2F701701127C45634
:100A8000DB4FFE01C491D0E002C0D595C7958A9591
:100A9000E2F7C170DD270115110519F081EE0E9402
:100AA0004E1A209719F086EE0E944E1A8F2D0E9442
:100AB000BC1ACD2B19F086EE0E94941A012B41F03E
:100AC00081EEDF91CF911F910F91FF900C94941ABA
:100AD000DF91CF911F910F91FF900895EF92FF92B8
:100AE0000F931F93CF93DF93EC01162F0AE08881B9
:100AF000882309F454C0813009F04EC089818130C7
:100B000099F47E0122E0E20EF11C8A810E94BC1A57
:100B1000E7012196812F815050F3EFE9FFE03197F3
:100B2000F1F700C00000F7CF823041F47E0182E08F
:100B3000E80EF11C8A810E944E1AEACF833041F4FC
:100B40007E01E2E0EE0EF11C8A810E94941AE0CF51
:100B5000843011F02196DDCF2A81229690E080E04A
:100B6000AE014F5F5F4F2053330B2A30310548F001
:100B7000019778F2EFE9FFE03197F1F700C000004C
:100B8000F7CF089FB001099F700D1124C901860F8E
:100B9000971F2981EA01E4CF0E942205BACFDF9195
:100BA000CF911F910F91FF90EF90089560E00C940A
:100BB0006E058F929F92AF92BF92CF92DF92EF928B
:100BC000FF920F931F936B017C0181E090E0A0E006
:100BD000B0E04C015D0104C0880C991CAA1CBB1C30
:100BE0004A95D2F7B501A4014C015D0104C0880CFF
:100BF000991CAA1CBB1C2A95D2F7482959296A2995
:100C00007B2904C0880F991FAA1FBB1F0A95D2F722
:100C10008A019B010C211D212E213F21041715075C
:100C20002607370789F48C299D29AE29BF29BC01E5
:100C3000CD011F910F91FF90EF90DF90CF90BF906B
:100C4000AF909F908F90089580959095A095B095C6
:100C50008C219D21AE21BF21EACF0F93382F262F63
:100C600060912603709127038091280390912903B6
:100C7000042F432F0E94D9050F910C9410210E943C
:100C8000CD250E947023811102C00E940F240E9472
:100C900027130C94AB080C94AE0808950C944D06E1
:100CA00081E00895CF93C82F0E944E068C2FCF91DC
:100CB0000C94AF0408950E943C1D0E945A062FEF29
:100CC00084E39CE0215080409040E1F700C00000A8
:100CD0000C94A7250F931F93CF93DF93EC0161E052
:100CE0000E940E058C01BE010E94C0138823B9F139
:100CF000BE01C8010E94D604882389F1BE01C80143
:100D00000E941012882359F1BE01C8010E94611788
:100D1000882329F1BE01C8010E94A2178823F9F097
:100D2000BE01C8010E94C5188823C9F0BE01C801D0
:100D30000E94A610882399F08A81882339F0011532
:100D40008CE5180751F00E3D1C4579F0CE01DF917E
:100D5000CF911F910F910C94D2040E945B0680E00A
:100D6000DF91CF911F910F9108950E940F24F7CF2B
:100D700090E080E008950895FC01EE0FFF1FE45419
:100D8000FB4F859194910895CF93DF930E942B168A
:100D90000E94D007EC01811520E5920708F041C0C0
:100DA000811530E4930708F0B4C0803E910518F532
:100DB000803C910508F09DC0883A910570F4853A11
:100DC000910508F08EC081309105F9F00097E9F0A7
:100DD0000497D8F4D0E0C0E018C08F3B9105D0F75D
:100DE000C85AD0E0CC0FDD1FCC5DDE4F0990D88112
:100DF000C02DD4640AC08115904258F4C11581E019
:100E0000D80718F4C83ED10528F7CE01DF91CF915D
:100E10000895C11590E3D90708F071C0CE019F7005
:100E20006AC0811525E5920758F5811534E59307C9
:100E300008F09EC0811542E5940750F4C11581E584
:100E4000D80708F469C0DC2FCC27C16FD06ADDCF8A
:100E5000982F969596959E0123703327C115D345FB
:100E600008F077C0C1E0D0E002C0CC0FDD1F2A95AA
:100E7000E2F720E2929FC0011124C82BD92B67C052
:100E8000C11589E5D807A8F4C11598E5D90708F078
:100E900074C0C11526E5D20708F09CCF8C2F0E94A4
:100EA0006708C82FD0E0DC2FCC27CC27DF71D062B9
:100EB000ACCFC1153AE5D30708F464C0CE01905613
:100EC0008115904208F086CF8D2F8F710E946708A0
:100ED00090E0982F882788279F719C012C2BE9018F
:100EE000E6CFC55AD0E0CE5ADE4FC881D0E0D064FC
:100EF0008CCF805C91090E94BC06EC0186CFCE01AC
:100F00009927D3FF03C0EC01D86C7FCFEC01D06CE4
:100F10007CCFDF70D06A79CFCE01E4E096958795DB
:100F2000EA95E1F783702C2F26952695237090E2A1
:100F3000299F90011124382B8C2F8370C1E0D0E0C1
:100F400002C0CC0FDD1F8A95E2F7C22BD32BDC68E1
:100F50005CCFC1E0D0E002C0CC0FDD1F2A95E2F7E4
:100F600030E2939FC0011124C82BD92BDA684DCFF2
:100F7000D82FCC27C46FD06A48CFDC2FCC27C06FC6
:100F8000D06A43CF8C2F8F700E94670834E0D695CB
:100F9000C7953A95E1F7CF709C2FEC01D06935CF1A
:100FA00082389105B1F1B0F48133910509F475C02F
:100FB00048F48932910509F469C08A32910509F42F
:100FC00073C008958533910509F459C0893391059B
:100FD00001F10895833E9105A9F138F4803E910511
:100FE000F9F0823E910549F10895863E9105A9F1F7
:100FF000873E9105C9F1843E910519F520910B04B6
:1010000021FF1FC080910A0484FD14C087EE90E088
:10101000089520910A042370A1F080EE90E00895D5
:1010200020910A0420FD47C030910B0430FF09C015
:1010300024FF44C090E080E004C020910A0422FD17
:10104000F7CF089520910A0422FD3BC030910B0494
:1010500030FDE3CF24FFF5CFEDCF20910A0423FF2D
:10106000F0CF24FDE7CFD2CF20910A0423FD2CC07E
:1010700030910B0431FFEECF84EE90E00895209183
:101080000A0425FFDECF89E290E0089520910A044A
:1010900025FFD7CF85E390E0089520910A0426FF2D
:1010A000D0CF8AE290E0089520910A0426FFC9CFAC
:1010B00081E390E0089589E390E0089583EE90E065
:1010C000089582EE90E0089586EE90E00895909164
:1010D0000A0492FF06C0282F28712830F9F4877F70
:1010E000846093FF06C0282F28712831F1F4877E91
:1010F000846120910B0420FF06C0382F38713830EE
:10110000D9F4877F816021FF06C0282F28712831FC
:10111000D1F4877E816194FD877E0895282F247104
:101120002430F9F68B7F8860DCCF282F247124319E
:1011300001F78B7E8861DDCF382F3171313019F79F
:101140008E7F8860E0CF282F2171213121F78E7E9C
:101150008861E1CF08950C94AA0808950C94AD0815
:10116000E82FF0E0EE0FFF1FE457FC4F80819181E4
:101170000895089580EA8A95F1F70895A0E6B1E010
:1011800061E070E08D91E82FE295EF70F0E041A111
:101190008F709B0101C0220F8A95EAF7922F9095DC
:1011A000942391A382A1822B82A381E0AA36B8075F
:1011B00049F7A5E5B1E061E070E08D91E82FE29597
:1011C000EF70F0E041A18F709B0101C0220F8A9562
:1011D000EAF7922F9095942391A382A1822B82A368
:1011E00081E0A036B80749F7E8E7F3E0ACE8B3E000
:1011F0008CE893E0119211921D921D928E179F0719
:10120000C9F78AE00E948D090C943F068F929F9245
:10121000AF92BF92CF92DF92EF92FF920F931F9304
:10122000CF93DF9380E6E82E81E0F82E08E713E005
:10123000912CAA24A394B12CF70181917F01C82F8E
:10124000C295CF70D0E099A18F70650101C0CC0C20
:101250008A95EAF7892F8C2989A38AA18C2C8094FE
:1012600088218AA30E94BA08E5E5F1E050E040E059
:1012700030E020E06191A62FA295AF70B0E090968B
:101280008C9190E06F7002C0959587956A95E2F712
:1012900080FD3EC0C501042E02C0880F991F0A942C
:1012A000E2F7282B392B4F5F5F4F4B30510511F779
:1012B00089A1882289A28AA1C82ACAA2F8018081AC
:1012C00091812817390739F13183208381E0982AE9
:1012D0000E5F1F4FFAE6EF16F1E0FF0609F0ACCF04
:1012E000292D4AE06CE873E088E793E00E948E09BC
:1012F0000E944B06892DDF91CF911F910F91FF9096
:10130000EF90DF90CF90BF90AF909F908F90089517
:1013100090E080E0C6CF80E0DACF0895FF920F938F
:101320001F93CF93DF93F82E092F162FD72FC42F9B
:10133000222349F081E08093D8010E945C2590939C
:10134000D7018093D6018091D8018823A1F08091A4
:10135000D6019091D7010E947425069760F0EF2D79
:10136000F02FA12FBD2F90E080E0D0E08C179D07DB
:1013700044F01092D801DF91CF911F910F91FF900F
:101380000895219131912D933D930196EFCFAF9226
:10139000BF92CF92DF92FF920F931F93CF93DF9371
:1013A000362F472FE82FF0E0EA5AF94F71110DC0A0
:1013B0006491762F862FDF91CF911F910F91FF902F
:1013C000DF90CF90BF90AF900895C72FD0E02491C9
:1013D000F22E022F10E056E0659FC0011124EFEFBE
:1013E000F0E0BF010E94832D832F90E0880F991FAA
:1013F00035E5369FD001379FB00D11248A1B9B0B1A
:10140000982F990F980F6F01CC1ADD0AC09ED0015A
:10141000C19EB00DD09EB00D11248B2F949FA001C2
:101420001124452F55276F01C41AD50AC09EA0016B
:10143000C19E500DD09E500D11245F01A91AB10814
:10144000AC9E6001AD9ED00CBC9ED00C1124CD2C66
:10145000DD24EC19FD09E09FE001E19FD00DF09F34
:10146000D00D1124ED2F62307105A1F048F4611503
:10147000710569F06130710589F0EB2F852F07C088
:101480006430710571F088F066307105B1F76E2F28
:10149000722F91CFE22F2B2F8D2FF9CFE22F252FF7
:1014A000F6CFEB2F822F2D2FF2CF2B2F8F2DE52F65
:1014B000EECF0895CF93DF93762FE901682F842F25
:1014C0000E94C709798368838A83DF91CF91089549
:1014D000473E08F046EE0C945A0A8091A003982FDC
:1014E0009E7F61F4817082608093A0038091A3034A
:1014F000873E18F086EE8093A30308958635B0F3F7
:1015000081708465F1CF88E090E00C94652ECF92D5
:10151000DF92EF92FF926B017C010E946D0AB7018E
:10152000A60188E090E0FF90EF90DF90CF900C94C0
:10153000832E6091A0037091A1038091A2039091EA
:10154000A3030C94870AE0EAF3E083E0808311822E
:101550008FEF828386EE8383148260817181828122
:1015600093810C94870A8091A00380FF02C0869526
:10157000089580E008958091A403833018F48F5F6C
:101580008093A4036091A0037091A1038091A203B2
:101590009091A3030C94870A8091A403882319F0E7
:1015A00081508093A4036091A0037091A103809166
:1015B000A2039091A3030C94870A8091A403089539
:1015C0008093A403662351F06091A0037091A1035E
:1015D0008091A2039091A3030C94870A089560E080
:1015E0000C94E00A8091A10308958091A2030895CC
:1015F0008091A303089570E00C943D13609107015E
:101600008091A00380FF0AC08091060123E0829FA1
:10161000C00111248B559C4F0C94FB0A809108014A
:101620009091090123E0829FF0011124EB55FC4FBA
:10163000891750F71182108212828F5F3396F8CF8C
:101640009091A00390FF14C090910801209109018E
:1016500033E0939FF0011124EB55FC4F921710F0EB
:101660000C94FE0A8183608342839F5F3396F6CF9A
:101670000895CF93DF9300D00F92CDB7DEB790914E
:10168000A00390FF0AC09E012F5F3F4F0E94680A8F
:101690004B8169818A810E94200B0F900F900F90DF
:1016A000DF91CF910895CF93DF93EC01EC81F0E0CF
:1016B000EF52FB4F4491E0EAF3E0628181810E94A6
:1016C000390B8C818F5F8C83DF91CF910895CF93FD
:1016D000DF93EC01E0EAF3E0438162818C810E94B8
:1016E000390B8C818F5F8C83DF91CF9108950F939D
:1016F0001F93CF93DF9300D00F92CDB7DEB78C014D
:101700008091D90181110AC09E012F5F3F4F46EEA3
:101710006FEF0E94680A8A818093D901F801648181
:10172000613069F08091D90140E0662361F040E0CA
:10173000623011F44091D90180E060E004C0609112
:10174000D90140E080E00E94200BF801848190E004
:10175000019663E070E00E94972D84830F900F90B4
:101760000F90DF91CF911F910F910895AF92BF928B
:10177000CF92DF92EF92FF920F931F93CF93DF935D
:1017800000D00F92CDB7DEB7182FF62E042FE22E21
:101790009091A00390FF29C0E92FE695AE2FB0E00D
:1017A000A659BE4F8C91809383029E7F923059F54B
:1017B0009E012F5F3F4F812F0E94680A4B816981F4
:1017C0008A810E94200B1093A103F092A203009340
:1017D000A303EE2051F06091A0037091A1038091CA
:1017E000A2039091A3030E94870A0F900F900F907D
:1017F000DF91CF911F910F91FF90EF90DF90CF90ED
:10180000BF90AF900895823019F40091A303DBCF0D
:10181000863019F41091A103D6CF8930D9F38931DC
:1018200091F6E9518E2F8170D82EE695F0E0EF52B7
:10183000FA4FA590B490C12CBB2460910A01C61642
:1018400018F00E94FE0ABFCF2C2D30E0A29EC001EE
:10185000A39E900DB29E900D112470E00E94832DE6
:10186000812FD11013C0860F40910801420F532FD2
:10187000511D9A01220F331F240F351F2B553C4F4A
:10188000402F6F2D0E94680AC394D7CF861BECCFE0
:10189000E0EAF3E09181282F438162818AE0890F99
:1018A0000C94B60B81E00C94480CE0EAF3E09181D3
:1018B000282F4381628186EF890F0C94B60B81E05B
:1018C0000C94550CE0EAF3E0628121E1620F08F428
:1018D0006FEF282F438181810C94B60B81E00C942B
:1018E000620CE0EAF3E0628121E1621B08F460E04F
:1018F000282F438181810C94B60B81E00C94710CEC
:10190000E0EAF3E0438121E1420F08F44FEF282F92
:10191000628181810C94B60B81E00C94800CE0EA2A
:10192000F3E0438121E1421B08F440E0282F62816B
:1019300081810C94B60B81E00C948F0C21E00C9407
:10194000B60B20E00C94B60BEF92FF921F93CF934F
:10195000DF93EC0110E0EE24EA94F12C60910A018F
:10196000161770F00E94FE0A9A818C8190FF27C0A2
:101970008F5F8C83DF91CF911F91FF90EF9008953F
:1019800020910801422F410F5527551FCA019A0186
:10199000220F331F280F391F2B553C4F70E0C70112
:1019A0000E94972D962F8C814091A3036091A203F2
:1019B000199F800D11240E94680A1F5FCFCF8150AC
:1019C000D8CFBF92CF92DF92EF92FF920F931F93E7
:1019D000CF93DF93FC0182810FEF80FF01E010E0E5
:1019E00080910A011817C0F00E94FE0A8091DB0165
:1019F000013009F051C0811102C080910A0181506B
:101A00008093DB01DF91CF911F910F91FF90EF90B9
:101A1000DF90CF90BF900895C0910801C12ED12CC6
:101A2000CC0DDD2DD11DCE01880F991FC80FD91FF8
:101A3000CB55DC4F198218821A8234E0E32EF12C48
:101A4000B12C8091DB018B0D813204F18F71082E56
:101A5000000C990BC816D90691F48091A3038E9DB2
:101A6000A0018F9D500D112455954795559547958B
:101A70009E016091A2038091A1030E94680AB00EAA
:101A8000F1E0EF1AF108E9F61F5FAACF87FFDFCF79
:101A900090910A01890FDBCF90E0019660910A01D5
:101AA00070E00E94972DACCF0F931F93CF93DF93DD
:101AB000809108019091090123E0829FF001112497
:101AC000EB55FC4F891740F1C0E0D3E060910A016B
:101AD000C61740F10E94FE0A209104018091DA01AC
:101AE000820F8093DA0190910501920F9093050186
:101AF000191654F4082E000C990B40910A0141501C
:101B0000550B841795071CF0219520930401DF9154
:101B1000CF911F910F9108951182108212828F5FD1
:101B20003396D0CF0C2F10E070E0C8010E94972DA3
:101B300020910801820F482F50E02091DA01022EF7
:101B4000000C330B02171307BCF020910501022E85
:101B5000000C330B201731077CF08D9F900111246E
:101B60002B553C4F4091A3036091A2038091A103A8
:101B70000E94680ACF5FAACFFA01EE0FFF1FE40FA1
:101B8000F51FEB55FC4F118210821282F3CF0F9399
:101B90001F93CF93DF938C01FC0184819581019683
:101BA0008170992795838483C0E0D5E580910A01EF
:101BB000C81730F0DF91CF911F910F910C94FE0A5E
:101BC00020910801422F4C0F5527551FCA019A0139
:101BD000220F331F280F391F2B553C4F8C2F869512
:101BE000F80144815581840F952F911D817040919A
:101BF000A3036091A2038D9F802D11240E94680A87
:101C0000CF5FD4CF0F931F93CF93DF93EC0110E0FE
:101C100000E090910A019017110609F06CF40E94FF
:101C2000FE0A8C8190E00196817099278C83DF9168
:101C3000CF911F910F91089520910801A801420FA3
:101C4000511D9A01220F331F240F351F2B553C4F76
:101C50004C816091A2038091A10396959017110683
:101C600051F04CF0442349F04091A3030E94680ACC
:101C70000F5F1F4FCECF4423B9F340E0F7CF8F92D1
:101C80009F92AF92BF92CF92DF92EF92FF920F930B
:101C90001F93CF93DF93FC01B280948081E0848313
:101CA00000E015E05BE4A52E88248394EE24EA94FA
:101CB000F12C7BE4C72ED12C80910A01081770F01B
:101CC000DF91CF911F910F91FF90EF90DF90CF9018
:101CD000BF90AF909F908F900C94FE0AC02FD0E0E1
:101CE0001C9FF0011D9FF00D1124E452FE4F911036
:101CF0001CC01382128220910801CE01820F911D17
:101D00009C01220F331F280F391F2B553C4F1C9F5E
:101D1000F0011D9FF00D1124E452FE4F42816181BC
:101D200080810E94680A0F5FC7CF2381222379F147
:101D30002150238334818A2D821B311101C0822FCF
:101D40001C9FF0011D9FF00D1124E452FE4F909155
:101D5000A303899FC0011124B6010E94832D6283D1
:101D6000211104C0332311F01482A38222E02B1529
:101D700010F21C9FF0011D9FF00D1124E452FE4F44
:101D80008091A10380838091A2038183B4CF0E94BC
:101D9000402E823091400CF0AECF82E08B1530F5B2
:101DA0000E94402EB7010E94972D1C9FF0011D9F9D
:101DB000F00D1124E452FE4F808322E02B15C8F46D
:101DC0000E94402E2091A2032695622F70E00E946F
:101DD000972D280F1C9FF0011D9FF00D1124E45238
:101DE000FE4F21831282A382848285CF8091A1033A
:101DF000DCCF2091A203EECFE0EAF3E080818E7F7A
:101E0000808360817181828193810E94870A109210
:101E100084022FEF80E792E0215080409040E1F76C
:101E200000C000000C94FE0AE0EAF3E080818E7F9F
:101E30008083109284022FEF80E792E0215080404F
:101E40009040E1F700C000000C94FE0A6091A003EE
:101E5000669570E04BE050E08BE091E00E94502EE0
:101E6000892B19F481E0809384020E945C25909371
:101E70007D0280937C0208959091A00390FF35C06D
:101E80009170811128C092609093A003662351F055
:101E90006091A0037091A1038091A2039091A3038C
:101EA0000E94870A6091A003669570E04BE050E0C5
:101EB0008BE091E00E94502E892BA1F010928402B9
:101EC00081E080937F024091A3036091A2038091FF
:101ED000A1030C94A10C8B3210F09465D5CF880F20
:101EE000982BD2CF0E94260FEBCF0895682F9091A8
:101EF000A003969581E0890F8B3208F081E00C9465
:101F00003C0F81E00C94760F682F9091A00396957A
:101F10008FEF890F09F48AE20C943C0F81E00C9456
:101F2000840F61E00C943C0FE0EAF3E08081816073
:101F3000808386950C94910F8091A00380FD0C9472
:101F4000FC0E0C94940F60E00C943C0F8091820284
:101F500081112EC00E947023811104C00E940F24A1
:101F60000E94A30A0E94830A6093A0037093A103B6
:101F70008093A2039093A3036E7F61F40E94A30A4F
:101F80000E94830A6093A0037093A1038093A2032D
:101F90009093A3030E946D0A109284028091A00383
:101FA00080FF03C086950E94A30F81E08093820288
:101FB0000895E0EAF3E080818160808386950C9447
:101FC000A30F0F931F93CF93DF93809184028823F5
:101FD00009F49DC080918302E091A003E695E81B7F
:101FE000E0937E028230C9F5F0E0E353FB4FE491C9
:101FF000CE2FD0E003E51BE080917F02882389F09B
:1020000010927F020E945C259E0120953095820FE0
:10201000931F90937D0280937C0210928102109214
:10202000800280917C0290917D020E9474258C1721
:102030009D0708F46CC0E0917C02F0917D02CE0F08
:10204000DF1FD0937D02C0937C028CE792E0F80101
:10205000DF91CF911F910F910994863049F4F0E000
:10206000E653FB4FE491CE2FD0E007E61BE0C4CF50
:10207000893051F4E695F0E0E953FB4FE491CE2F1F
:10208000D0E004EA1CE0B8CF8F3051F4E695F0E0E0
:10209000EC53FB4FE491CE2FD0E001EE1CE0ACCF2F
:1020A000853149F4F0E0EF53FB4FE491CE2FD0E0BF
:1020B00004E51DE0A1CFC8EED3E007EC1DE08831B8
:1020C00009F49ACF833239F4EFEBF4E0C591D4915F
:1020D00007E71BE091CFC4EFD1E002E01EE08432BD
:1020E00009F48ACFC0EDD7E009E51AE0853209F09E
:1020F00083CF8E2F63E00E94772DE92FF0E0E45428
:10210000FB4FE491CE2FD0E00FE31EE075CFDF91BF
:10211000CF911F910F910895FA01811101C0FB0128
:102120000994CF93DF93C82FD62F0E94B30A8C1740
:1021300040F00E94B30A8D1720F4DF91CF910C94E8
:10214000810F8C2FDF91CF910C94910F0F931F93E0
:10215000CF938C01FB01C281CC2309F465C00E949E
:10216000BB228272F801E25CFC45E431F10538F4EF
:10217000E253F14D0C94CD2D0E949C0FC0E08C2FAA
:10218000CF911F910F9108954EE85FE061E87FE0E5
:102190000E948C10F3CF41E85FE06EE87FE0F8CF5B
:1021A0004FE55CE062E57CE0F3CF42E55CE06FE5A3
:1021B0007CE0EECF4DE75CE06EE67CE0E9CF4EE6FA
:1021C0005CE06DE77CE0E4CF4BE95CE06CE87CE050
:1021D000DFCF4CE85CE06BE97CE0DACF4CEC5AE016
:1021E0006BEB7AE0D5CF4BEB5AE06CEC7AE0D0CFDA
:1021F00081E00E94910FC2CF65E082E00E949110C1
:10220000BDCF68E086E0FACF6EE089E0F7CF64E109
:102210008FE0F4CF67E185E1F1CF88E1EACF62E2B8
:1022200089E1ECCF83E2E5CFC1E0A9CF809105043D
:102230000C94A22380910504869586958695089531
:102240008091050481FD07C08260809305040E948F
:10225000A2230C94A31208958091050481FF07C066
:102260008D7F809305040E94A2230C94AF120895E1
:102270008091050481FD0C942C110C942011809107
:1022800005048695817008958091160108950E9435
:102290007023811102C00E940F240E949E2380930C
:1022A0000504803320F08770886280930504909144
:1022B0000504892F817090FF04C0892F869586952B
:1022C00086950C94791280910504982F9695969591
:1022D0009695953040F49F5F990F990F990F8770ED
:1022E000892B809305048091050481608093050407
:1022F0000E94A223809105048695869586950C946C
:10230000791280910504982F987F79F088508093F6
:102310000504887F91E009F490E08091050490FB2A
:1023200080F9809305040E94A2238091050486957C
:10233000869586950C9479128091050480FD13C0D2
:10234000816080930504813019F489E0809305044D
:10235000809105040E94A2238091050486958695AC
:1023600086950C94791208958091050480FF08C029
:102370008E7F809305040E94A22380E00C94791242
:1023800008958091050480FD0C94B4110C949C1167
:1023900090910504892F8695869586958F5F8F711C
:1023A00097708630D8F4880F880F880F892B809318
:1023B000050480910504887F91E009F490E0809104
:1023C000050490FB80F9809305040E94A22380916C
:1023D00005048695869586950C947912909305044C
:1023E000E8CF863008F085E0909105049770282F9B
:1023F000220F220F220F922B90930504987F21E049
:1024000009F420E09091050420FB90F990930504D5
:102410000C9479120E94F111809105040C94A2236E
:10242000FC01DB0112968C918823F9F0EB5BFC45F3
:10243000E730F105D8F4EE51F14D0C94CD2D85E047
:102440000E940A1280E0089580E0FACF0E94811174
:10245000F9CF0E946311F6CF0E94C111F3CF0E9401
:10246000C811F0CF0E943811EDCF81E00895279A6E
:102470002F9808952F980895CF92DF92EF92FF92B0
:102480008C3724E1920750F469E070E00E94832DBC
:10249000CB01FF90EF90DF90CF900895B0E0A0E0E7
:1024A000BC01CD016A50774D8F4F9F4F982F872FDA
:1024B000762F662725EF38E241E050E00E94AB2DF1
:1024C00069017A01CA01B9010E94672D9B01AC0123
:1024D000C701B6010E94672D672F782F892F992792
:1024E0006115710521E08207910591F66FEF7FEF8D
:1024F000CFCFCF93C82F8630F0F481111DC08091CB
:102500008000877F809380000E943A122C2F30E059
:10251000AFEFBFEF0E94DA2D25E030E040E050E061
:102520000E94AB2DC9010E943C1290938D008093B4
:102530008C00CF910895C5E08091800088608093E1
:102540008000E4CF089510928602109285021092C6
:102550008702EFE6F0E08081816080830895EFE6F6
:10256000F0E080818E7F80830E941A110C94791292
:102570001F920F920FB60F9211242F933F934F93F8
:102580005F936F937F938F939F93AF93BF93CF93FB
:10259000EF93FF930E94441140918502509186026F
:1025A0004F5F5F4F94EF899F90011124CA01B901D9
:1025B0000E94832D9093860280938502B901660F55
:1025C000672F661F770B71950E94832D6F7780911F
:1025D0008702823041F4603451F480916F008E7F25
:1025E00080936F0004C0813011F46F37B1F3E62F90
:1025F000F0E0EA52FA4FC4910E941A11282F41E0EC
:1026000051E0C49FC001C59F900D112465E070E0AA
:102610000E94832D269FC001279F900D11240E94A8
:102620003C1290938D0080938C00FF91EF91CF919D
:10263000BF91AF919F918F917F916F915F914F91DA
:102640003F912F910F900FBE0F901F9018950E94F1
:1026500037128AE08093800089E1809381008FEFB8
:102660009FEF90938700809386000E9447110E94FD
:102670003F1181110C94A3120895809A41B34E7FAB
:1026800051B35160EFB7F8949B01220F331F260F0F
:10269000371F280F391F2817390741F4EFBF8FE57F
:1026A00094E00197F1F700C000000895DC016D91FE
:1026B000CD0178E051BB000000C067FF41BB660F51
:1026C000000000C000C000C041BB00C07A9591F777
:1026D000E2CF82E290E00E945D2E803289F483E2B4
:1026E00090E00E945D2E823159F484E290E00E94D5
:1026F0005D2E91E0863009F090E0892F8170089579
:1027000080E0FCCFCF93C82F6FEF811160E282E2AF
:1027100090E00E94712E6FEFC11162E183E290E0C0
:102720000E94712E6FEFC11166E084E290E0CF91BC
:102730000C94712E80E00E9482130C946A230895F9
:1027400085E290E00E945D2E682F70E090E080E0CE
:10275000089585E290E00C94712E0E949F130E94D0
:10276000691381110CC060E070E0CB010E94A913D5
:102770000E94A3150E948D1681E00C948213089587
:10278000CF93FB01C281CC2309F19C0122513F452B
:102790002031310520F582510E949D16C0E08C2F1A
:1027A000CF91089581E00E94362143E062E081E00C
:1027B0000E942D06F3CF81E00E94572143E062E0A2
:1027C00081E00E942D06EBCF82E0F6CF8031FFE55D
:1027D0009F0789F381319F45B9F3C1E0E0CF803194
:1027E000EFE59E07F9F281319F45C9F682E0DBCF24
:1027F0002FEFFC0120830895CF93DF93EC018881B4
:10280000893029F08A3079F0DF91CF9108950E94C4
:102810001A112FEF829FC001112465E070E00E9421
:10282000832D6983F1CF0E943F118983EDCFFC0195
:102830008081893019F08A3069F00895818125E01E
:10284000829FC00111246FEF70E00E94832D862FBC
:102850000C94F1118181811102C00C942C110C9403
:102860002011CF93DF93EC0188818138A9F028F4FF
:10287000803871F0DF91CF910895823881F08338EC
:10288000C9F70E94F20A89830E94F50A8A83F2CF6F
:102890000E94F80A8983EECF0E94B30AFBCF0E9400
:1028A000DD0AF8CFCF93DF93EC0188818138E1F026
:1028B00028F4803869F0DF91CF910895823811F1C2
:1028C0008338C9F70E94F80A482F6A81898108C0B5
:1028D000D9810E94F50AC82F0E94F20A4D2F6C2F51
:1028E000DF91CF910C94A10C89810E94A30F898163
:1028F000811104C0DF91CF910C94140FDF91CF911F
:102900000C94D90F8981DF91CF910C94EF0ADF925B
:10291000EF92FF920F931F93CF93DF93EC01D62E8C
:10292000DC01ED918D01E150E33108F0C9C0F0E028
:10293000E751F14D0C94CD2D198289E08A836D2DDC
:10294000CE01DF91CF911F910F91FF90EF90DF901B
:102950000C948B268981823069F0833071F081304C
:10296000D9F40E9468250E94D32D6A837B838C83CF
:102970009D83E5CF0E94A013F6CF7E0110E0812F4A
:102980000E94B008F701928383831F5FF2E0EF0E8D
:10299000F11C1A30A1F7D3CF6D2DCE010E94F81390
:1029A000CECF89818230C1F76A817B818C819D8104
:1029B0000E94D32D0E94A913C2CF4B816A818981C5
:1029C0000E9475159827892798279D838C83B7CFF8
:1029D0002C813D813227232732274B816A818981CF
:1029E0000E948E15ACCF0E94A315A9CFCD010E94E5
:1029F0001714C8010E945214A2CFCD010E94FC13EB
:102A0000C8010E9431149BCF0E9416110E94990A9E
:102A100096CF0E943816898392CF0E943A16982743
:102A2000892798279A8389838ACF6B8170E089816F
:102A30009A81AE014C5F5F4F9827892798270E94A3
:102A40003D167DCF6B8170E089819A81AE014C5F2C
:102A50005F4F9827892798270E94631670CF0E949E
:102A60008D166DCF0E946315D6CF6B8170E0898182
:102A70009A81AE014C5F5F4F9827892798270E9463
:102A8000DB155DCF6B8170E089819A81AE014C5F6F
:102A90005F4F9827892798270E94011650CF0E94E0
:102AA0009A134DCF0E948B262FEF81EE94E0215098
:102AB00080409040E1F700C000000E94A7253FCF72
:102AC0008FEF88833CCF84E0089550E0440F551F7A
:102AD00096E1699F400D511D11249CED899F400D89
:102AE000511D1124CA01869608950F931F93CF9309
:102AF000DF930E9465158C010E945D2EC82FD0E0E7
:102B0000DC2FCC27C80101960E945D2E9E01282B48
:102B1000C901DF91CF911F910F9108950F931F93DA
:102B2000CF93DF93122F032F0E946515EC01602FC6
:102B30000E94712E612FCE010196DF91CF911F91DE
:102B40000F910C94712EAF92BF92CF92DF92EF92C1
:102B5000FF921F93CF93DF938CEAC82E80E0D82E8C
:102B6000D0E07601C0E014C0F50125913491412FE9
:102B70006C2F8D2F0E948E1582E0A80EB11C1F5F56
:102B80001B3091F786E1E80EF11CCF5FCA3019F0D7
:102B9000570110E0E9CFDF5F8CEDC80ED11CD430B7
:102BA00001F7DF91CF911F91FF90EF90DF90CF90D1
:102BB000BF90AF900895EF92FF920F931F93CF9322
:102BC000DF93EC018A017C01E60EF71ECE018696AA
:102BD000CE15DF0539F4DF91CF911F910F91FF9052
:102BE000EF900895C03723E0D20740F40E945D2E95
:102BF000F80180830F5F1F4F2196E8CFF801108204
:102C0000F9CFCF92DF92EF92FF920F931F93CF9362
:102C1000DF937C016A018C01060F171FEC01CE01C6
:102C20008696C017D10749F4DF91CF911F910F917C
:102C3000FF90EF90DF90CF900895C03723E0D20748
:102C400040F4FE01EE19FF09EC0DFD1D60810E94AC
:102C5000712E2196E4CF462F843038F47A3028F450
:102C60006B3018F4672F0C94751590E080E0089590
:102C700080E108958AE690E00895EF92FF920F9325
:102C80001F93CF93DF93EC018A017C01E60EF71EC0
:102C9000CE018A569C4FCE15DF0539F4DF91CF91D6
:102CA0001F910F91FF90EF900895CA36D10540F41F
:102CB0000E945D2EF80180830F5F1F4F2196E8CFA1
:102CC000F8011082F9CFCF92DF92EF92FF920F932B
:102CD0001F93CF93DF937C016A018C01060F171FAE
:102CE000EC01CE018A569C4FC017D10749F4DF9101
:102CF000CF911F910F91FF90EF90DF90CF900895AB
:102D0000CA36D10540F4FE01EE19FF09EC0DFD1D98
:102D100060810E94712E2196E4CFCF93DF93C6E9A4
:102D2000D3E060E0CE010E94712E2196C11584E0AF
:102D3000D807B9F7DF91CF910895DF92EF92FF9214
:102D40000F931F93CF93DF9300D000D0CDB7DEB7A2
:102D5000F82E8FE08F1540F08FEF93E00E945D2EEC
:102D600006E913E08823C1F00F900F900F900F90A9
:102D7000DF91CF911F910F91FF90EF90DF90089519
:102D8000011584E0180781F3C8010E945D2E8111AE
:102D900001C0FA940F5F1F4FF110F2CF19821A820F
:102DA0001B821C82DD24D39478018FEFE81AF80A85
:102DB000C8010E945D2E89831A828823A9F29FEFA1
:102DC000980F933078F48A83D9820E5F1F4FC70122
:102DD0000E945D2E8B83882339F2CE0101960E94DA
:102DE000D605E2CF8701F9CF0F931F93CF93DF93DF
:102DF000C62FD42F022FFC0182818823C9F0609353
:102E00008A020E945C25909389028093880280E266
:102E10008C0F883008F050C0C77081E001C0880F67
:102E2000CA95EAF7DF91CF911F910F910C94CF1AB9
:102E300010918A02161335C0809188029091890200
:102E40000E947425883C910560F5C0E2CD0F1D17E6
:102E5000B9F080E2810F883040F4177081E001C042
:102E6000880F1A95EAF70E94D61AC83048F481E014
:102E70009D2F977001C0880F9A95EAF70E94CF1A8C
:102E8000802F0E94BC1AC830B8F4D77081E001C00E
:102E9000880FDA95EAF7DF91CF911F910F910C948B
:102EA000D61A80E28C0F883038F4C77081E001C0F8
:102EB000880FCA95EAF7EFCFDF91CF911F910F915D
:102EC00008959C01CB01233F4CE5340731F190F488
:102ED000283DFCE53F07E9F0293D4CE5340769F161
:102EE000273D3C4579F426E241EE61EE0E94F4165E
:102EF00080E00895253FFCE53F07B9F090F0263FBC
:102F00003C45B9F0FC0182818823D1F010928A02FD
:102F1000089527E245EE65EEE9CF26E241EE60EE48
:102F2000E5CF27E245EE64EEE1CF26E241EE62EE28
:102F3000DDCF27E245EE66EED9CF28E241E0EBCFC8
:102F400081E00895CF93DF93EC01FB018281882318
:102F500009F419C1C230FCE5DF07C0F1C6319CE5B8
:102F6000D90730F09E012A5F3C452930310570F5C4
:102F70000E94832390930B0480930A04C031ECE5F4
:102F8000DE0709F4CFC008F05BC0C8308CE5D80775
:102F900009F4B6C088F5C430ECE5DE0709F4A8C032
:102FA000C0F4C2308CE5D80709F49CC080910A04B3
:102FB0008260C330DC4509F498C080910A04909186
:102FC0000B040E9491230E943C1D80E0DF91CF9171
:102FD000089580910A048061C630ECE5DE0709F4AB
:102FE00084C080910A048860C730DC4508F47DC045
:102FF00080910A04806279C0CC308CE5D80709F44E
:1030000089C070F480910A048C60CA30ECE5DE0758
:1030100009F46BC008F478C080910A048E7F65C003
:10302000CE308CE5D80709F479C080910A048B7FF3
:10303000CF30DC4508F459C080910A048F7E55C01A
:10304000CB3FECE5DE0709F457C030F5C3318CE522
:10305000D80709F46FC078F4C131ECE5DE0709F454
:1030600065C0C231DC4509F0A8CF0E943C1D8091AB
:103070000A048F773AC0C5318CE5D80709F462C0DD
:1030800008F476C080910B048160CA3FDC4509F0EA
:1030900094CF80930B0491CFCF3FFCE5DF0709F479
:1030A0004DC088F480910B048D7FCD3F9CE5D907FE
:1030B00081F380910B048E7FCE3FDC4550F38091ED
:1030C0000B048360E6CFC130FDE5DF0709F459C08A
:1030D00008F444C080E0C230DD4509F06ECF0E94A4
:1030E00011246BCF80910A04816080930A0465CF1C
:1030F00080910A048460F9CF80910B048260C9CF6B
:1031000080910A048064F1CF0E943C1D80910A04E2
:103110008068EBCF80910A048D7FE7CF80910A040D
:10312000877FE3CF80910A048F7DDFCF80910A04EF
:103130008F7BDBCF80910A04837FD7CF80910B04F4
:103140008C7FA7CF80910A0482FB992790F921E018
:10315000922790FB82F990FB83F9C7CF80910B04F3
:10316000982F909591708E7F892B90FB81F991CF4C
:103170000E943C1D90910A04892F97FB87F9805883
:10318000B4CF81E0ACCF81E021CFCF93DF93EB01CF
:1031900086319C4511F50E94BB229A81992399F0B2
:1031A0008A7A91E009F490E090938B02811109C032
:1031B00089E20E9496220E94072380E0DF91CF914E
:1031C000089585E3F6CF80918B02811104C089E2D6
:1031D0000E949D22F0CF85E3FBCF81E0EFCF90935B
:1031E0009102809390020895E0919002F0919102F3
:1031F000309721F00190F081E02D099480E008954E
:10320000E0919002F0919102309799F02091230182
:10321000222359F020910A0427FF07C0DC012C91DA
:1032200011962C93119725E02C930280F381E02DC9
:103230000994089520918E0230918F022817390742
:1032400071F090938F0280938E02E0919002F09142
:103250009102309721F00680F781E02D09940895BE
:1032600020918C0230918D022817390771F09093CC
:103270008D0280938C02E0919002F0919102309740
:1032800021F00084F185E02D0994089585B78068C8
:1032900085BF85B7806885BF089508950C94AA04FA
:1032A00008950C9450190E9446190E944D190C94CF
:1032B0004E1981E008950C9459190E9453250E94DB
:1032C000BE080E94AD130E94E1250E9447110E9492
:1032D000A60F0C9451197F928F929F92AF92BF923A
:1032E000CF92DF92EF92FF920F931F93CF93DF93D2
:1032F000CDB7DEB72A970FB6F894DEBF0FBECDBFAD
:103300000E9406090E945B19882309F473C043E9EF
:10331000A42E42E0B42E10E000E0702E802F0E9418
:10332000B0086C01F501819091905F0188169906B3
:1033300009F45AC08091530381FD0E94B90880E0CE
:10334000EE24E394F12C8C249D2494012E213F2122
:10335000232B09F443C08E837F82CE20DF2081E0BF
:10336000CD2809F480E088870E945C258160782F51
:103370009A8789874E815F8168858A850E941F1A96
:10338000000F111FF801ED56FD4F80819181E82655
:10339000F926F182E0820E94E10F0E94A2120E94AF
:1033A000F418909192028917B1F10E94F418809359
:1033B00092022A960FB6F894DEBF0FBECDBFDF9102
:1033C000CF911F910F91FF90EF90DF90CF90BF9022
:1033D000AF909F908F907F900C9452068F5FEE0C71
:1033E000FF1C8B3009F0B1CF0F5F1F4F0A30110562
:1033F00009F093CF8FEF89838A831B820E945C251B
:103400008160782F9D838C8349815A816B818D8166
:103410000E941F1AC0CF2A960FB6F894DEBF0FBEC7
:10342000CDBFDF91CF911F910F91FF90EF90DF9073
:10343000CF90BF90AF909F908F907F900895CF9343
:10344000DF93CDB7DEB72B970FB6F894DEBF0FBE74
:10345000CDBF4F83588769877A878B871E821D82ED
:1034600085E0FE013796DE01119601900D928A9556
:10347000E1F749815A816B817C818D819E812B96F8
:103480000FB6F894DEBF0FBECDBFDF91CF910C9485
:10349000B21FFC01808191810C946822CF93C82FC8
:1034A000882309F43FC08CEF8C0F813AA0F46C2F75
:1034B00080911701909118010E942A24882329F0F5
:1034C0008C2F0E949D220E9407238C2F0E949622FF
:1034D000CF910C94072380E28C0F883048F4C7709A
:1034E00081E001C0880FCA95EAF70E94BE22F0CFA2
:1034F000EBE5EC0FE33040F4F0E0ED53FE4F80815C
:1035000090E0CF910C941A19C85AC73158F4EC2F97
:10351000F0E0EE0FFF1FEB56FE4F80819181CF91BF
:103520000C943019CF910895882329F19CEF980FBE
:10353000913A20F40E949D220C94072390E2980F68
:10354000983050F4877091E001C0990F8A95EAF79E
:10355000892F0E94C422F0CF9BE5980F933020F46E
:1035600090E080E00C941A19885A873120F490E09A
:1035700080E00C9430190895CF93C82F0E944E1A02
:10358000C93349F42FEF87EE93E0215080409040FB
:10359000E1F700C000008C2FCF910C94941A88237F
:1035A00021F00E94BE220C9407230895882321F065
:1035B0000E94C4220C9407230895BF92CF92DF92F9
:1035C000EF92FF920F931F93CF93DF936C01D62F4F
:1035D000C72FFC01058102950F70128111110E9405
:1035E000DB220E94B422E82E882391F01123D1F02F
:1035F0008C2F807F803421F080E28D0F883090F016
:1036000082E00E9452230E94B42291E0E82EE92633
:10361000BC2EB2949FE0B922EB2DF0E0E450F14DC6
:103620000C94CD2DE12CF4CF0C2F0F70C07F11F036
:103630000295007F1123A9F0002359F080E28D0F3D
:10364000883010F0D11109C0802F0E94BE220E9444
:1036500007238D2F0E944E1A14C0802F0E94CE2265
:10366000F6CF8D2F0E94941A002359F080E28D0F1F
:10367000883010F0D1112CC0802F0E94C4220E94EB
:1036800007232B2D2850330B2430310520F40E94C2
:10369000F4180E945206EE2009F493C10E94B02251
:1036A00080FD8FC1F60112820E94AA220E9436215B
:1036B000C6010E94021D0E94AA22DF91CF911F9194
:1036C0000F91FF90EF90DF90CF90BF900C94572117
:1036D000802F0E94D422D3CFFC2FFF70FF2EC07FFB
:1036E000C03219F0F29480EFF822DD2369F0D13076
:1036F00049F1112391F1002351F1F601858180FFF9
:10370000A8CF8F70858323C0112381F0011106C0DB
:103710000E94EE228F290E94CF1AB3CF0130C1F749
:103720000E94EE228F290E94F422ABCF011106C025
:103730000E94FD228F2D0E94D61AA3CF013009F4DA
:10374000A0CFF6CF112329F0063008F09ACF8F2DA5
:10375000E2CF053008F095CFEDCF002359F3D933F0
:1037600049F4FFEF27EE33E0F15020403040E1F71D
:1037700000C000008D2F0E94941A83CF8C2F869555
:103780008695837069F0813009F07BCF8D2F9C2F57
:103790009370111102C090E080E00E94301971CF47
:1037A0008D2F9C2F9370111102C090E080E00E9439
:1037B0001A1967CF8C2F837009F041C0111161CFA6
:1037C0004D2F429546954770440F440F0D2F0F70B3
:1037D00010E030E020E0042E04C0000F111F221F73
:1037E000331F0A94D2F760E070E0CB01D4FF0FC022
:1037F0006FE070E080E090E004C0660F771F881FE4
:10380000991F4A95D2F76095709580959095C695C9
:10381000C695C370602B712B822B932BC23049F05D
:1038200058F4C13019F00E94E8202BCF0E94D62016
:1038300028CF0E94FA2025CF0E94D42022CF86953F
:10384000112311F08C2F8170882309F41ACF4D2F8A
:10385000429546954770440F440F0D2F0F7010E0AE
:1038600030E020E0042E04C0000F111F221F331F80
:103870000A94D2F760E070E0CB01D4FF0FC06FE094
:1038800070E080E090E004C0660F771F881F991FEA
:103890004A95D2F76095709580959095C695C69596
:1038A000C370602B712B822B932BC23049F058F4DC
:1038B000C13019F00E94AD21E4CE0E949B21E1CEDF
:1038C0000E94BF21DECE0E941021DBCECF701123DB
:1038D00029F08C2F0E9436218D2F1DCF8D2F0E9415
:1038E000D61A8C2F0E945721CCCED23F89F160F49A
:1038F000D03FC9F0D13F29F1112309F442C0011191
:10390000A8CE8C2F8F7121C0D33F39F1D43FA1F7BE
:10391000112369F1CF718C2F0E94362163E08C2F27
:103920000E943D23AECE112341F0053008F0A9CE10
:103930008C2F8F710E947A21A4CE063008F0A1CE80
:10394000F7CF8C2F8F71112369F20E94362199CE07
:103950008C2F8F711123C9F3C5CF112329F08C2F20
:103960008F710E9421218DCE0E941C218ACE81E080
:103970000E945223023008F484CE82E00E94522337
:1039800080CE002359F0D93309F0F4CE8FEF97EEB3
:10399000E3E081509040E040E1F7EACE8C2F8F7158
:1039A000A1CF4C2F4F706D2FC6010E94B8060E9408
:1039B0004C2067CE4C2F4F706D2FC6010E94BB0666
:1039C00060CEDF91CF911F910F91FF90EF90DF902C
:1039D000CF90BF9008950F931F93CF93DF93EC0187
:1039E000688179818A810E9472228C010E94D12192
:1039F0000E94D320B801CE01DF91CF911F910F918A
:103A00000C94DD1ACF93DF93EC018B819C81892B81
:103A100029F08881998189238F3F59F4DF91CF91D3
:103A20000895CE010E94EB1CCE01DF91CF910C9442
:103A30001705CE010E946A068111F3CF0E94B422BD
:103A4000882361F38A81882349F382E0DF91CF9153
:103A50000C9452230E94DB220E94EB220E94072337
:103A600090E080E00E941A1990E080E00C943019F8
:103A70000E94A4220C942A1D0E94CB220C94381D73
:103A8000E92FE295EF70E250EE3070F4F0E0E45F81
:103A9000F04D0C94CD2D803F19F020F4883E20F499
:103AA00081E00895843FE1F380E00895883EC0F30B
:103AB000813FD1F7F5CF93FB882780F908950E94C5
:103AC00068220C94401DCF93DF9300D000D00F925A
:103AD000CDB7DEB70F900F900F900F900F90DF9142
:103AE000CF910895CF93DF9300D000D000D0CDB711
:103AF000DEB726960FB6F894DEBF0FBECDBFDF91BE
:103B0000CF9108951F93CF93DF93C091A80216E041
:103B10008091A9028C1304C0DF91CF911F91089569
:103B2000D0E01C9FF0011D9FF00D1124E655FD4FC4
:103B30004081518162817381848195810E94721DCF
:103B40002196C770E5CF4091DA025091DB02609177
:103B5000DC027091DD028091DE029091DF020C9414
:103B6000721D1F93CF93DF938091DF02807FA9F4B2
:103B70008091DC02882389F08091A802C091A9027B
:103B80006091DA027091DB02A091DD02B091DE0259
:103B9000D62FD72316E0C81304C0DF91CF911F9111
:103BA000089590E0109711F0DF3F19F401968770A7
:103BB000F2CF189F9001199F300D1124F901E6559D
:103BC000FD4F41814713F2CF40814613EFCF428131
:103BD0004111ECCF438154814A1B5B0B483C51059A
:103BE00028F78091DF028F7080618093DF02F901F6
:103BF000E155FD4F80818F70806180838AED92E076
:103C00000E94021DDF91CF911F910C94821DAF92F3
:103C1000BF92CF92DF92EF92FF920F931F93CF93B9
:103C2000DF93CDB7DEB761970FB6F894DEBF0FBE56
:103C3000CDBF8C0185E0F801DE011D9601900D924B
:103C40008A95E1F7F80140815181E2808AEDC82E22
:103C500082E0D82E6091DD027091DE02611571055F
:103C600009F461C19091DA022091DB02892F82234D
:103C70008F3F09F458C1A380B480F090DC02F501B5
:103C8000E61BF70BFF2009F4FCC08091DF02382F00
:103C9000307FE83CF10508F0B2C0311179C0FE2C4C
:103CA000251323C0941321C0E1101FC08F708061C1
:103CB0008093DF020E94A31DC6010E94021D809115
:103CC000DF02F80185838F2D61960FB6F894DEBF71
:103CD0000FBECDBFDF91CF911F910F91FF90EF905D
:103CE000DF90CF90BF90AF900895AB2829F0842F3C
:103CF00085238F3F09F033C180E0F82FF170DF2E6C
:103D000080FF3CC08091A8022091A90236E0821376
:103D100015C04D875E878D859E850E946822292F5C
:103D200022952F702230F0F0243018F59F70F1F0BA
:103D3000F8019581907FD1F4D12C1EC090E0389F7E
:103D4000F001399FF00D1124E655FD4F6181651397
:103D500006C06081641303C062816E110FC00196BA
:103D60008770D5CF9F7011F0882331F3805E883043
:103D700018F3C8010E94021DFD2CA5CFEE2009F406
:103D8000A2CF8091DF0281608093DF02F12C9BCF74
:103D9000251306C0941304C0F801EE2009F48DC069
:103DA0004D875E878D859E850E945F1D882319F152
:103DB000EE2009F18091DF02803270F02091DA026A
:103DC0003091DB0238872F831986BB86AA868C87C1
:103DD000CE0107960E94021D86E0F801AAEDB2E02E
:103DE00001900D928A95E1F70E94B11D0E94A31DDA
:103DF000FF24F39468CFC8010E94021DF9CF31114E
:103E000013C07A2DB98AA88A6E2D89890E94631DF4
:103E10008AED92E00E94021D86E0F60111928A95D9
:103E2000E9F70E94A31DB2CF25130FC094130DC054
:103E3000E1100BC0F8018583C8010E94021D86E0D5
:103E4000F60111928A95E9F73ECF4D875E878D8501
:103E50009E850E945F1D882371F2EE2061F28091A1
:103E6000DF02803208F4B8CF2091DA023091DB0211
:103E70003A8329831B82BD82AC828E83CE01019658
:103E8000A9CFE83CF10508F041C0FE2CEE2009F472
:103E9000B2CF25132AC0941328C08091DF0280FD81
:103EA0001BC0982F907FC1F0F8018583903F31F0BF
:103EB000982F907F905F8F70892B8583C8010E9417
:103EC000021D86E0F801AAEDB2E001900D928A95FC
:103ED000E1F70E94A31DF7CE86E0F801AAEDB2E05B
:103EE00001900D928A95E1F7EECE4D875E878D8524
:103EF0009E850E945F1D81116FCF8091DF028160DE
:103F00008093DF02C8010E94021DDDCE7A2DB98A9E
:103F1000A88A6E2D89890E94631D86E0F6011192A0
:103F20008A95E9F7D6CFEE2009F465CF4D875E87F5
:103F30008D859E850E945F1DF82E882309F45BCF36
:103F400086E0F801AAEDB2E001900D928A95E1F7C2
:103F50008AED92E00E94491A0E94B11DBACF81E019
:103F60008E25CBCE1F93CF93DF93CDB7DEB72C97A3
:103F70000FB6F894DEBF0FBECDBF4F835887698759
:103F80007A878B879C87CE0107960E94071E88231D
:103F900069F08A859B85892B39F04F815885842F5C
:103FA00085238F3F09F071C016E05FC086E0FE01F7
:103FB0003796DE01119601900D928A95E1F78A8578
:103FC0009B85892B89F388859F8189238F3F61F3A6
:103FD0002091A90230E0C90101968770992740918C
:103FE000A8024817190671F40E943C1D1092A902FC
:103FF0001092A80286E0EAEDF2E0DF011D928A95B8
:10400000E9F7D2CF96E0929FD001939FB00D112493
:10401000A655BD4FFE01319601900D929A95E1F79C
:104020008093A9020E94821DBFCF819FC0011124ED
:1040300086559D4F0E94071E8823E9F0E091A80253
:104040001E9FF0011124E655FD4F40815181628190
:104050007381848195810E94721D8091A80290E0F5
:104060000196877099278093A8028091A802909169
:10407000A9028913DACF2C960FB6F894DEBF0FBED3
:10408000CDBFDF91CF911F91089569857A858B858A
:104090009C850E94721D88CFEF92FF920F931F9311
:1040A000CF93DF938C01892B81F0F12CEE24E394E4
:1040B000E8012196F8018491843770F4843008F087
:1040C0005FC08130B1F08230A1F1DF91CF911F91BB
:1040D0000F91FF90EF900895853709F44CC008F4D4
:1040E0003DC09CE7980F903780F78F770E94941A15
:1040F00049C00E5F1F4FFE01849190E2980F9830E7
:1041000060F48770FE2D01C0FF0F8A95EAF78F2FAC
:104110000E94DE220E94072302C00E944E1A8F2DA9
:10412000815030F2EFE9FFE03197F1F700C0000075
:10413000F7CF0E5F1F4FFE01849190E2980F9830E9
:1041400050F48770FE2D01C0FF0F8A95EAF78F2F7C
:104150000E94E422DFCF0E94941AE1CF0E5F1F4F2E
:10416000FE01C491C150D8F28FE99FE00197F1F7A9
:1041700000C00000F7CF0E5F1F4FFE01F490CFCFBD
:104180000E944E1A8E01CBCF08950C94C4200E9439
:10419000C52060932A0370932B0380932C03909384
:1041A0002D030C942A1D08950C94C7200F931F9380
:1041B00000912A0310912B0320912C0330912D03A1
:1041C000602B712B822B932B1F910F910C94C72086
:1041D0000F931F9300912A0310912B0320912C031E
:1041E00030912D0360237123822393231F910F911C
:1041F0000C94C7200F931F9300912A0310912B0357
:1042000020912C0330912D0360277127822793275B
:104210001F910F910C94C7200C94C4200C940C2176
:104220000E940E2160932603709327038093280336
:10423000909329030C942A1D60E070E0CB010C944C
:1042400010210F931F9341E050E060E070E08A017D
:104250009B0104C0000F111F221F331F8A95D2F744
:10426000C901B8011F910F910C9410210F931F9356
:1042700041E050E060E070E004C0440F551F661F4D
:10428000771F8A95D2F78091260390912703A091FA
:104290002803B09129038A019B01082B192B2A2B93
:1042A0003B2BC901B8011F910F910C9410210F9362
:1042B0001F9341E050E060E070E004C0440F551FE0
:1042C000661F771F8A95D2F7CB01BA01609570956A
:1042D0008095909500912603109127032091280343
:1042E0003091290360237123822393231F910F911F
:1042F0000C9410210F931F9341E050E060E070E0B8
:1043000004C0440F551F661F771F8A95D2F780910E
:10431000260390912703A0912803B09129038A01D5
:104320009B01082719272A273B27C901B8011F919C
:104330000F910C9410210F931F930091260310915D
:1043400027032091280330912903602B712B822BA6
:10435000932B1F910F910C9410210F931F93009199
:10436000260310912703209128033091290360230D
:104370007123822393231F910F910C9410210F938B
:104380001F93009126031091270320912803309159
:10439000290360277127822793271F910F910C947F
:1043A000102108952BE0929F800D1124982F977073
:1043B00041E001C0440F9A95EAF786958695869567
:1043C00095E0899FF0011124E052FD4F90E080E0DC
:1043D00070E05191DF0111979B01082E02C03695C4
:1043E00027950A94E2F72170219525272423252774
:1043F0002C9301968530910561F708952BE0929FEB
:10440000800D1124982F977086958695869525E0C6
:10441000829FF0011124E052FD4F50E040E080E027
:10442000219130E0092E02C0369527950A94E2F7D3
:1044300021703327042E01C0220F0A94EAF7822B41
:104440004F5F5F4F4530510559F70895BF92CF92A6
:10445000DF92EF92FF920F931F93CF93DF938C0124
:10446000C0902603D0902703E0902803F090290302
:1044700080912A0390912B03A0912C03B0912D03DE
:10448000C82AD92AEA2AFB2ACFE1D0E0BC2ED701DC
:10449000C6010C2E04C0B695A795979587950A94EA
:1044A000D2F780FD0EC0219788F7B12C8B2DDF91BC
:1044B000CF911F910F91FF90EF90DF90CF90BF9021
:1044C0000895B8018C2F0E94C406019761F3EECFC6
:1044D000CF93DF93EC010E942622BE01DF91CF91A2
:1044E0000C94C4061F93CF93DF93EB019091A70226
:1044F000992331F0CB01DF91CF911F910C94682269
:10450000882379F0CB010E942622182F682FCE0134
:104510000E94D221BE01812FDF91CF911F910C9477
:10452000C406CB010E94FE21182FF4CF682F809182
:104530001701909118010C94AA24682F80911701FB
:10454000909118010C94B524809117019091180155
:104550000C94C02480912E038595859585950895AA
:1045600080912E038770089590912E03977081E0BB
:1045700009F480E0089580915203089590915203C8
:10458000892B80935203089580959091520398232C
:1045900090935203089510925203089590915103FD
:1045A000892B80935103089580959091510398230E
:1045B00090935103089510925103089590915003E0
:1045C000892B8093500308958095909150039823F0
:1045D00090935003089510925003089580912F03F3
:1045E000089508950C94F12290912F03981721F0CB
:1045F00080932F030C94F222089580912F03882337
:1046000029F010922F0380E00C94F2220895E0919B
:104610001701F0911801809152038083E0911701F6
:10462000F0911801808190915103892B8083E09152
:104630001701F0911801808190915003892B80839C
:1046400090912F03992381F0E0911701F0911801C7
:104650008081892B808380911701909118010E949D
:10466000162481110E94FD2280911701909118015A
:104670000C94001908950C943A2398E0899F9001B6
:104680001124622B60932E030E94362180912E0309
:104690008595859585950C943B2310922E0380E09B
:1046A0000C943B2390912E038095892380932E03B5
:1046B000282F277071F4282F082E000C330B921727
:1046C000130639F08595859585950E9457210C94A0
:1046D0004D2308956FEF7FEF90E080E00C948F2ED4
:1046E00090E080E00E946B2E21E08C3E9E4F09F00E
:1046F00020E0822F089582E090E00C945D2E83E00C
:1047000090E00C945D2ECF9384E090E00E945D2EAB
:10471000C82F81E290E00E945D2E982F8C2FCF91C0
:104720000895CF93C92F682F84E090E00E94712EE6
:104730006C2F81E290E0CF910C94712E86E090E096
:104740000C945D2E682F86E090E00C94712EAB01E6
:10475000BC018FE090E00C94832EAB01BC0183E19F
:1047600090E00C94832E60E070E0CB010C94AD23BC
:104770006CEE7EEF90E080E00E948F2E60E082E0A1
:1047800090E00E94712E60E083E090E00E94712E24
:1047900010922A0310922B0310922C0310922D03D7
:1047A00060E084E090E00E94712E60E081E290E0A1
:1047B0000E94712E60E085E090E00E94712E60E022
:1047C00086E090E00E94712E6FEF87E090E00E94FB
:1047D000712E40E050E0BA0188E090E00E94832E04
:1047E00060E08DE090E00E94712E40E050E0BA0160
:1047F00088E190E00E94832E60E087E190E00E94D3
:10480000712E40E050E0BA018CE190E00E94832ECE
:1048100060E080E290E00E94712E0C94C1040C9440
:10482000B823682F8EE090E00C94712EFC01329634
:1048300080912301882321F080910A049EE187FF63
:1048400096E080E0915008F4089521912223D1F35D
:104850008F5FF8CF662301F1209123012223F1F02D
:1048600020910A0427FF1AC0462F46954695469583
:104870004E3190F4677021E030E002C0220F331F08
:104880006A95E2F7840F911DFC01828190E0282354
:10489000392381E0232B69F480E00895FC013296EE
:1048A00008962191261721F0E817F907D1F7F4CFE0
:1048B00081E008959C01FC0132969FEF80E04191D8
:1048C000461751F09F3F19F4411101C0982F8F5F97
:1048D0008630A9F79F3F09F40895290F311D97FDF0
:1048E0003A95F90162830895FC0132960896219168
:1048F000261303C0DF0111971C92E817F907B9F7D7
:104900000895E62FE695E695E695EE3168F4E80F12
:10491000F92FF11D677021E030E001C0220F6A9588
:10492000EAF78281822B82830895E62FE695E69549
:10493000E695EE3170F4E80FF92FF11D677021E074
:1049400030E001C0220F6A95EAF720958281282382
:104950002283089520912301222329F020910A0423
:1049600027FD0C9481240C945A24209123012223A6
:1049700029F020910A0427FD0C9495240C947424AA
:10498000FC01329680912301882351F080910A0422
:1049900087FF06C08EE1DF011D928A95E9F7089531
:1049A00086E0F9CF089508950C94D3240E94D4246E
:1049B00080911004843061F11092540388E190E0FA
:1049C00020E40FB6F894A895809360000FBE209362
:1049D000600080E00E94791280E00E9452060E94EE
:1049E000D42483B7817F846083BF83B7816083BF12
:1049F0007894889583B78E7F83BF0FB6F894A89577
:104A000080916000886180936000109260000FBE0A
:104A100008950895CF930E94D2240E9406090E940F
:104A20000925C0E08C2F0E94B008892B31F4CF5F9C
:104A3000CA30C1F780E0CF91089581E0FCCF08959E
:104A40000C941F250E943C1D0E9447110E94F418DF
:104A50000E9452060C9420251F921FB61F9211240B
:104A60008F939F93AF93BF9380915403811113C091
:104A70008091060490910704A0910804B091090464
:104A80004196A11DB11D8093060490930704A09345
:104A90000804B0930904BF91AF919F918F911F902B
:104AA0001FBE1F90189582E084BD93E095BD9AEFDC
:104AB00097BD80936E0008952FB7F89480910604F7
:104AC00090910704A0910804B09109042FBF0895A4
:104AD0002FB7F89460910604709107048091080440
:104AE000909109042FBF08959C014FB7F8948091CD
:104AF000060490910704A0910804B09109044FBFE7
:104B0000821B930B089578941F921FB61F92112455
:104B10008F939F93AF93BF93809106049091070466
:104B2000A0910804B09109040196A11DB11D8093C4
:104B3000060490930704A0930804B0930904BF915E
:104B4000AF919F918F911F901FBE1F90189581E08C
:104B50008093E00080E28093D8001092C9008FE13A
:104B60009EE40197F1F700C0000087E090EBDC01C4
:104B70008093190490931A04A0931B04B0931C040F
:104B800088E19CE00FB6F894A895809360000FBE72
:104B900090936000FFCF0C949A130E9406098FE354
:104BA0009CE90197F1F700C000000E94060980E02F
:104BB0000E94B00880FF04C00E94CB250C94A7255A
:104BC00008950E947023811102C00E940F240E9448
:104BD0007B23809353030E94832390930B04809341
:104BE0000A040E947F23682F70E090E080E00C941C
:104BF000D4208091750308950895CF93DF9300D05A
:104C00000F92CDB7DEB790911004943011F58983DF
:104C10007B836A839093E9008FEF9091E800815045
:104C200095FD06C095ED9A95F1F700008111F5CF3D
:104C30008091E80085FF0DC050E040E063E070E047
:104C4000CE0101960E9487288091E8008E7780939C
:104C5000E8000F900F900F90DF91CF910895CF93C0
:104C6000DF93EC010E946A28823011F0843031F425
:104C7000BE0184E0DF91CF910C94FD25DF91CF91AF
:104C80000895BC0183E00C94FD25CF93DF93EC01E4
:104C90000E946A28823011F08430B9F58091230196
:104CA0008823B1F180910A0487FF32C060E284E07A
:104CB0008093E9008FEF9091E800815095FD06C048
:104CC00095ED9A95F1F700008111F5CF8091E800FC
:104CD00085FF1BC08091230170E050E040E081110E
:104CE00004C050E040E068E070E0CE010E948728F8
:104CF0008091E8008E778093E80080E2FE01A5E5D0
:104D0000B3E001900D928A95E1F7DF91CF9108957C
:104D100068E081E0CDCFCF93FC01603221F5809136
:104D20001004843001F5C091E900CF702091EC00AF
:104D3000922F917020FD90E8C92B82E08093E900CA
:104D40008091E80080FF0CC050E040E060E270E03D
:104D5000CF010E9487288091E8008E778093E80039
:104D6000CF70C093E900CF91089580910F04811115
:104D700009C00E94662A0E94C32A8091E2008460D2
:104D80008093E200089510920F0408950895089505
:104D90000C94222542E061EC81E00E94E22942E28B
:104DA00061EC84E00E94E22942E261EC82E00E9430
:104DB000E22942E260EC83E00C94E2298091120443
:104DC000833009F461C030F48130D1F1823009F4CC
:104DD0009DC008958A3009F489C08B3009F46FC0F2
:104DE000893009F050C080911104813209F04BC024
:104DF0008091150490911604009719F0029709F01C
:104E000042C08091E800877F8093E8008091E800AD
:104E100082FF35C09091F3008091F200029729F44F
:104E20008091F1008B7F813021F48091F10080939B
:104E300075038091E8008B778093E8000C94162A24
:104E400080911104813AF9F48091E800877F809382
:104E5000E8008091150490911604892B61F460E2BA
:104E600085E593E070E00E9425298091E8008B772A
:104E70008093E800089560E090E080E0F3CF8091B7
:104E800010048111C3CF089580911104813AD9F79C
:104E90008091150490911604892BA9F78091E80060
:104EA000877F8093E8008091E80080FFFCCF8091AD
:104EB00023018093F1008091E8008E77BDCF80912F
:104EC0001104813201F78091150490911604892B09
:104ED000D1F68091E800877F8093E8000E94162A2F
:104EE00080911304809323010C943C1D8091110444
:104EF000813249F68091E800877F8093E8000E9424
:104F0000162A8091140480937603089580911104E9
:104F1000813A09F0B8CF8091E800877F8093E8005C
:104F20008091E80080FFFCCF80917603C2CFCDB79F
:104F3000DEB7A0970FB6F894DEBF0FBECDBF84B723
:104F4000877F84BF0FB6F894A89580916000886130
:104F500080936000109260000FBE80E890E00FB672
:104F6000F89480936100909361000FBE0E945319E2
:104F70000E94662A0E94C32A8091E2008460809386
:104F8000E20078940E944C2D0E945D1989E191E025
:104F90000E94EF1813E080911004853039F10E94CF
:104FA0006B19809110048430B1F71093E90080915F
:104FB000E80082FFF0CF8091E80090E085FF09C013
:104FC00050E040E060E270E0CE0101960E94D628F9
:104FD00091E08091E8008B778093E8009923D9F2E3
:104FE00060E2CE0101960E948714D5CF0E94D6249C
:104FF00080910E04882379F20E940A25882359F2B1
:105000000E947128C8CF0C940528292F33272330FC
:10501000310521F168F42130310509F449C022300D
:10502000310509F44AC090E080E030E020E029C07A
:105030002132310581F122323105A9F76330710542
:1050400090F7FB01EE0FFF1FE753FE4F20813181E8
:105050006A537E4FFB01808190E013C09927813015
:10506000910599F0009741F08230910589F00397FE
:10507000D1F6E6E5F7E002C0E2E8F7E0849190E0DF
:105080009F01FA01318320830895E0E7F7E0F6CF2E
:10509000ECE5F7E0F3CF6330710528F6660F771F74
:1050A000FB01E153FE4F2081318189E090E0E9CF9F
:1050B00082E190E021EE37E0E4CF8BE590E026E856
:1050C00037E0DFCF80911004843011F482E008953E
:1050D00081E0089580917703811102C00C946228C9
:1050E000089580E189BD82E189BD09B400FEFDCF4C
:1050F0008091D8008F7D8093D8008091E0008260FD
:105100008093E0008091E00081FDFCCF0895AF9294
:10511000BF92CF92DF92FF920F931F93CF93DF93B3
:105120006C01EB018A010E94352AF82E811123C0FF
:105130000115110539F0F80180819181C81BD90B47
:10514000C80ED91EB12CA12C2097A9F08091E8009F
:1051500085FD22C08091E8008E778093E8000115DC
:105160001105A1F0F80180819181A80EB91EB182CC
:10517000A08285E0F82E8F2DDF91CF911F910F91A6
:10518000FF90DF90CF90BF90AF9008950E94352A96
:105190008823D1F2F82EEFCFF60181916F01809331
:1051A000F1002197FFEFAF1ABF0ACECFAF92BF92A7
:1051B000CF92DF92FF920F931F93CF93DF936C01F7
:1051C000EB018A010E94352AF82E811123C00115B6
:1051D000110539F0F80180819181C81BD90BC80EE7
:1051E000D91EB12CA12C2097A9F08091E80085FD53
:1051F00022C08091E8008B778093E80001151105AB
:10520000A1F0F80180819181A80EB91EB182A0821F
:1052100085E0F82E8F2DDF91CF911F910F91FF9098
:10522000DF90CF90BF90AF9008950E94352A8823D9
:10523000D1F2F82EEFCF8091F100F60181936F014A
:105240002197FFEFAF1ABF0ACECFFC018091170460
:105250009091180486179707A0F06115710529F43D
:105260009091E8009E779093E80090E061157105B9
:1052700051F4911108C08091E80082FF34C080E0B1
:105280000895BC01F2CF809110048823C1F18530CC
:10529000C1F18091E80083FD30C08091E80082FD7B
:1052A000EACF8091E80080FFE1CF8091F300209168
:1052B000F200382F6115710519F02830310558F0CA
:1052C00091E02830310509F090E02091E8002E7738
:1052D0002093E800CBCF81918093F1006150710958
:1052E0002F5F3F4FE7CF80911004882341F0853036
:1052F00041F08091E80083FFBECF81E0089582E015
:10530000089583E00895FC0180911704909118049A
:1053100086179707A0F06115710529F48091E800C0
:105320008E778093E80090E06115710551F491113A
:1053300008C08091E80082FF35C080E00895BC017C
:10534000F2CF809110048823C9F18530C9F1809192
:10535000E80083FD31C08091E80082FDEACF8091B2
:10536000E80080FFE1CF8091F3002091F200382F18
:105370006115710519F02830310558F091E0283099
:10538000310509F090E08091E8008E778093E80085
:10539000CBCF84918093F1003196615071092F5FDA
:1053A0003F4FE6CF80911004882341F0853041F0D3
:1053B0008091E80083FFBDCF81E0089582E00895E9
:1053C00083E00895982F973028F08F708093E9003C
:1053D00081E008959093E900242F762F50E09817EC
:1053E00031F07091EC002091ED005091F00021FD22
:1053F00002C09F5FE8CF3091EB003E7F3093EB001F
:105400003091ED003D7F3093ED003091EB00316045
:105410003093EB007093EC002093ED005093F0007C
:105420002091EE0027FDE5CF80E0089580911104E2
:1054300087FF13C08091E80082FF06C08091E800DA
:105440008B778093E80004C0809110048111F2CF23
:105450000895809110048823D9F38091E80080FF9B
:10546000F8CF8091E8008E77ECCF2091E400309166
:10547000E50095E6A9012091EC00822F817020FFC4
:1054800006C08091E80080FF06C080E0089520916A
:10549000E80022FD1AC080911004882389F085302D
:1054A00089F08091EB0085FD0FC02091E4003091E0
:1054B000E50042175307F9F29150E1F684E00895B0
:1054C00082E0089583E0089581E008950E94D42A3F
:1054D0000E94DC2AE0EEF0E0808181608083E8EDCC
:1054E000F0E080818F77808319BCA7EDB0E08C91CC
:1054F0008E7F8C9380818F7E808310920F0408951D
:105500000F931F93CF93DF930E94D42A0E94DC2A2B
:10551000C8EDD0E088818F77888388818068888310
:1055200088818F7D888319BC1092100410920C041E
:1055300010920E0410920D0400EE10E0F80180812C
:105540008B7F808388818160888342E060E080E097
:105550000E94E229E1EEF0E080818E7F8083E2EE1E
:10556000F0E0808181608083808188608083F801A1
:1055700080818E7F8083888180618883DF91CF9155
:105580001F910F910895E8EDF0E080818F7E808378
:10559000E7EDF0E080818160808384E082BF81E07C
:1055A00080930F040C94802AE8EDF0E080818E7FD8
:1055B00080831092E20008951092DA001092E100C8
:1055C00008951F920F920FB60F9211242F933F93BD
:1055D0004F935F936F937F938F939F93AF93BF93FB
:1055E000EF93FF938091E10082FF0BC08091E20076
:1055F00082FF07C08091E1008B7F8093E1000E94D1
:105600004B2D8091DA0080FF19C08091D80080FF77
:1056100015C08091DA008E7F8093DA008091D900E6
:1056200080FF96C080E189BD82E189BD09B400FE9A
:10563000FDCF81E0809310040E94B5268091E100A7
:1056400080FF19C08091E20080FF15C08091E200C8
:105650008E7F8093E2008091E20080618093E2007F
:105660008091D80080628093D80019BC85E0809337
:1056700010040E94C7268091E10084FF2BC0809116
:10568000E20084FF27C080E189BD82E189BD89B540
:10569000982F917080FFFBCF8091D8008F7D8093F1
:1056A000D8008091E1008F7E8093E1008091E2003C
:1056B0008F7E8093E2008091E20081608093E2001F
:1056C00080910C04882309F449C084E0809310047D
:1056D0000E94C8268091E10083FF29C08091E200EA
:1056E00083FF25C08091E100877F8093E10082E005
:1056F0008093100410920C048091E1008E7F8093BF
:10570000E1008091E2008E7F8093E2008091E200D0
:1057100080618093E20042E060E080E00E94E22944
:105720008091F00088608093F0000E94C626FF916F
:10573000EF91BF91AF919F918F917F916F915F9109
:105740004F913F912F910F900FBE0F901F90189582
:1057500019BC109210040E94C32670CF8091E30000
:1057600087FD93E090931004B3CF1F920F920FB672
:105770000F9211242F933F934F935F936F937F93D7
:105780008F939F93AF93BF93CF93DF93EF93FF9349
:10579000D091E900DF708091EC00C82FC17080FDCE
:1057A000C0E81092E9008091F000877F8093F000BC
:1057B00078940E94F92B1092E9008091F0008860A3
:1057C0008093F000CD2BCF70C093E900FF91EF9153
:1057D000DF91CF91BF91AF919F918F917F916F9109
:1057E0005F914F913F912F910F900FBE0F901F909F
:1057F00018951F93CF93DF93CDB7DEB7AA970FB657
:10580000F894DEBF0FBECDBF81E194E02091F1009E
:10581000FC012193CF01F4E089319F07B9F70E9481
:10582000DE268091E80083FF1EC1809111049091D3
:1058300012049A3008F017C1E92FF0E0E65EF04D4F
:105840000C94CD2D803899F0823809F00CC18091EC
:1058500015048F70873008F006C18093E9008091AD
:10586000EB0085FB882780F91092E90006C0809143
:105870000D0490910E04911182609091E800977F41
:105880009093E8008093F1001092F1008091E8007D
:105890008E77E5C0882309F4D3C0823009F0E3C0D5
:1058A000809113048111D6C0809115048F702FEF61
:1058B000280F263008F0D7C08093E9002091EB0034
:1058C00020FFC8C0933031F48091EB008062809358
:1058D000EB00C0C09091EB0090619093EB0021E051
:1058E00030E001C0220F8A95EAF72093EA00109277
:1058F000EA008091EB008860EACF8111B4C010917A
:1059000013041F778091E3008078812B8093E3005C
:105910008091E800877F8093E8000E94162A80919A
:10592000E80080FFFCCF8091E30080688093E30073
:1059300082E0111183E08093100495C0805882307A
:1059400008F091C080911304909114048C3D23E0E1
:105950009207A1F583E08A838AE289834FB7F8949E
:10596000DE01139620E03EE051E2E32FF0E0509399
:105970005700E49120FF03C0E295EF703F5FEF70A6
:105980008E2F90E0EA30C0F0C7968D939D932F5FE5
:10599000243159F74FBF8091E800877F8093E8005A
:1059A0006AE270E0CE0101960E9425298091E8000C
:1059B0008B778093E80057C0C096E7CF60911504BD
:1059C00070911604AE014F5F5F4F0E940328BC0127
:1059D000892B09F448C09091E800977F9093E800E4
:1059E00089819A810E948329E1CF8038E1F58091F5
:1059F000E800877F8093E80080910C048093F10099
:105A000045CF811130C090911304923060F58091A0
:105A1000E800877F8093E80090930C040E94162A88
:105A200080910C04882311F084E005C08091E3008C
:105A300087FDFACF81E0809310040E94CA2613C02C
:105A400080911304813079F481E0933009F080E093
:105A500080930E041092E9008091E800877F809384
:105A6000E8000E94162A8091E80083FF0AC0809116
:105A7000E800877F8093E8008091EB00806280934C
:105A8000EB00AA960FB6F894DEBF0FBECDBFDF9134
:105A9000CF911F9108950895CF938091100488238A
:105AA000A1F0C091E900CF709091EC00892F817036
:105AB00090FD80E8C82B1092E9008091E80083FDFA
:105AC0000E94F92BCF70C093E900CF910895DB01BC
:105AD0008F939F930E94E92DBF91AF91A29F800D5C
