:100000000C94C9020C9410030C9410030C9410036C
:100010000C9410030C9410030C9410030C94100314
:100020000C9410030C9410030C94BE270C948F288E
:100030000C948B220C9410030C9410030C9410035A
:100040000C9410030C9410030C9410030C941003E4
:100050000C9410030C94E2220C9410030C941003E3
:100060000C9410030C9414030C9444030C9410038C
:100070000C9410030C9410030C9410030C941003B4
:100080000C9410030C9410030C9410030C941003A4
:100090000C9410030C9410030C9410030C94100394
:1000A0000C9410030C9410030C941003290000000E
:1000B0000000C25C53005400550056005F00600011
:1000C000610057005C005D005E00000059005A00AE
:1000D0005B005800620000006300000001000000A7
:1000E0000000010001000100010001000100010009
:1000F00001000100010001000100000001000100F9
:1001000001000100010000000100000001000000EA
:1001100000000100010001000100010001000100D8
:1001200001000100010001000100000001000100C8
:1001300001000100010000000100000001000000BA
:1001400000000100010001000100010001000100A8
:100150000100010001000100010000000100010098
:10016000010001000100000001000000000000008B
:10017000000000002A2B2800000000000000000002
:100180000000000000000029000000002C1E3420A8
:10019000212224342627252E362D3738271E1F20CE
:1001A0002122232425263333362E37381F04050613
:1001B0000708090A0B0C0D0E0F1011121314151657
:1001C0001718191A1B1C1D2F3130232D3504050655
:1001D0000708090A0B0C0D0E0F1011121314151637
:1001E0001718191A1B1C1D2F3130354C0000000048
:1001F00000000000000000000000000000000000FF
:100200007E0F00D4FFFFFFC70000007832190A00FC
:10021000047F3F1F643214643214783C1E1E140A9B
:10022000052223252628292A2C2D2F303233353636
:10023000383A3B3D3E4042434547494A4C4E505177
:10024000535557595A5C5E6062646668696B6D6F9E
:1002500071737577797B7D7F81838587898A8C8EA1
:1002600090929496989A9C9E9FA1A3A5A7A8AAACA9
:10027000AEAFB1B3B4B6B8B9BBBCBEBFC1C2C3C5E3
:10028000C6C7C9CACBCCCDCED0D1D2D2D3D4D5D685
:10029000D7D7D8D9D9DADADBDBDBDCDCDCDCDCDDB8
:1002A000DDDDDDDCDCDCDCDCDBDBDBDADAD9D9D89C
:1002B000D7D7D6D5D4D3D2D2D1D0CECDCCCBCAC934
:1002C000C7C6C5C3C2C1BFBEBCBBB9B8B6B4B3B163
:1002D000AFAEACAAA8A7A5A3A19F9E9C9A989694FE
:1002E00092908E8C8A89878583817F7D7B797775D3
:1002F00073716F6D6B6968666462605E5C5A5957B2
:10030000555351504E4C4A4947454342403E3D3B70
:100310003A3836353332302F2D2C2A2928262523FA
:1003200022FFAA7F554000010101010101010101E5
:100330000202020202020202020303030303030396
:100340000304040404040404050505050506060663
:100350000606070707070708080808090909090A20
:100360000A0A0B0B0B0C0C0C0D0D0D0E0E0E0F0FC5
:100370000F10101111111212131314141515161653
:100380001717181819191A1A1B1B1C1D1D1E1E1FC2
:100390002020212222232424252626272829292A11
:1003A0002B2C2D2D2E2F3031323233343536373839
:1003B000393A3B3C3D3E3F40414243444546474835
:1003C000494A4C4D4E4F50515354555658595A5B0B
:1003D0005D5E5F616264656668696B6C6D6F7072AB
:1003E000737577787A7B7D7E8082838587888A8C17
:1003F0008E8F91939596989A9C9EA0A2A3A5A7A94B
:10040000ABADAFB1B3B5B7BABCBEC0C2C4C6C9CB41
:10041000CDCFD1D4D6D8DBDDDFE2E4E7E9EBEEF0F7
:10042000F3F5F8FAFDFF0403300000001203450065
:10043000560049004C00200050006100640000009C
:1004400010034C004E00450020004C00610062008B
:1004500000000403090409025B00030100A0FA097B
:1004600004000001030101000921110100012240E3
:10047000000705810308000A0904010002030000C7
:10048000000921110100012222000705820320003A
:100490000107050303200001090402000103000015
:1004A00000092111010001226D00070584032000CD
:1004B0000A12011001000000080912282301E301BB
:1004C0000203010660FF0961A1010962150026FF10
:1004D000009520750881020963150026FF0095200C
:1004E00075089102C005010980A101850319012A3F
:1004F000B700150126B700950175108100C0050CE5
:100500000901A101850419012AA002150126A002F2
:10051000950175108100C005010906A10185050539
:100520000719E029E71500250195087501810205E5
:1005300007190029EF1500250195F07501810205C5
:100540000819012905950575019102950175039119
:1005500001C005010906A101050719E029E71500F9
:10056000250195087501810295017508810105072E
:10057000190029FF150026FF009506750881000562
:1005800008190129059505750191029501750391D9
:1005900001C011241FBECFEFDAE0DEBFCDBF04B62D
:1005A00003FE27C08091700590917105A09172059E
:1005B000B09173058730904BA740B04BD1F41092A7
:1005C000700510927105109272051092730514BE99
:1005D00084B7877F84BF0FB6F894A8958091600098
:1005E000886180936000109260000FBEE0E0F8E345
:1005F000099512E0A0E0B1E0E6E4FDE502C0059057
:100600000D92A43BB107D9F725E0A4EBB2E001C0FD
:100610001D92A037B207E1F70E949B040C94522E62
:100620000C940000789408951F921FB61F92112415
:100630002F933F934F938F939F93EF93FF9320912B
:10064000C8003091CE008091B60290E001968F777D
:1006500099274091B50248171906A1F02871809397
:10066000B60287549D4FFC0130832093B402FF9162
:10067000EF919F918F914F913F912F911F901FBEAE
:100680001F90189522E0F1CF8F938FB78F939F9390
:10069000EF93FF939091B8028091B7029817A9F059
:1006A0008091B70290E001968F7799278093B702E7
:1006B000875C9C4FFC0180818093CE00FF91EF917D
:1006C0009F918F918FBF8F9118958091C9008F7DD9
:1006D0008093C900F3CFCF93DF93EC01F89410928D
:1006E000B8021092B7021092B6021092B5020E94A0
:1006F0001203D7FF04C082E08093C800DF77D09355
:10070000CD00C093CC0088E98093C90086E0809337
:10071000CA00DF91CF9108952091B80230E02F5F99
:100720003F4F2F7733279091B70292171306D9F3D3
:10073000F901E75CFC4F80832093B8028091C900E7
:1007400080628093C9000895CF93DF93EC01899173
:10075000811103C0DF91CF9108950E948C03F7CFE0
:100760008091B903089508959F938F938DE291E04E
:100770009F938F9383ED94E09F938F930E94DE2A43
:100780000F900F900F900F900F900F9083ED94E0CB
:100790000C94A4030F931F93CF93DF93EC018C81F0
:1007A000282F082E000C330B3F938F938B81282F1B
:1007B000082E000C330B3F938F938A81282F082E2D
:1007C000000C330B3F938F938981282F082E000C48
:1007D000330B3F938F9386E491E09F938F9303EDC8
:1007E00014E01F930F930E94DE2AC8010E94A40305
:1007F00088811F928F9387E691E09F938F931F9339
:100800000F930E94DE2A8DB79EB742960FB6F894DA
:100810009EBF0FBE8DBFC801DF91CF911F910F9179
:100820000C94A403FC0187811F928F9386811F92F1
:100830008F9385811F928F9384811F928F938381E1
:100840001F928F9382811F928F9380811F928F932B
:1008500081E891E09F938F9383ED94E09F938F9332
:100860000E94DE2A8DB79EB742960FB6F8949EBFBF
:100870000FBE8DBF83ED94E00C94A4038AEE91E04B
:100880000E94A4038FE097E20197F1F700C00000F7
:1008900081ED91E00E94A4038FE097E20197F1F7C8
:1008A00000C0000082EF91E00E94A4038FE097E275
:1008B0000197F1F700C000008CEB91E00E94A403C7
:1008C0008FE097E20197F1F700C0000087E092E027
:1008D0000E94A4038FE097E20197F1F700C00000A7
:1008E000089583E390E00E946B032FEF80E792E08E
:1008F000215080409040E1F700C000000C943E047D
:10090000089580916705843059F40E94C21682527E
:10091000914081F00E94F41A82E291E00C94BD169D
:100920000E94C2168450914029F00E94F41A84E07B
:1009300091E0F4CF0895CDB7DEB7A0970FB6F89445
:10094000DEBF0FBECDBF84B7877F84BF0FB6F894DC
:10095000A89580916000886180936000109260008B
:100960000FBE80E890E00FB6F894809361009093FA
:1009700061000FBE0E9427170E9443270E94A027F4
:100980008091E20084608093E20078948FEF9091F0
:1009900067058150943041F0EFE3FFE13197F1F7C3
:1009A00000C000008111F3CF0E9471040E948004F6
:1009B0000E94311713E00E943D1780916705843033
:1009C00019F00E948104F7CF1093E9008091E800AC
:1009D00082FFF7CF8091E80090E085FF09C050E0EA
:1009E00040E060E270E0CE0101960E94B32591E004
:1009F0008091E8008B778093E800992311F360E2FF
:100A0000CE0101960E945F12DCCF0E94BD0F4FEF16
:100A10006FEF80E00E94C00C8BE00E94BA0F60E094
:100A200070E0CB010E9455210C94612181E0089572
:100A300081E008950C94180508950C941C051F93EB
:100A4000CF93DF9300D000D00F92CDB7DEB74983AC
:100A50005A836B833091390489819A8131111DC089
:100A60006623B9F02223A9F00E94DD1F182F682FFA
:100A700089819A810E948A1F69817A81812F0F90D2
:100A80000F900F900F900F90DF91CF911F910C94CA
:100A9000F7130E94B61F182FEFCF0E94DD1F698148
:100AA0007A81EDCFFC01262F4081518162817381D3
:100AB00084810C941F05CF93DF93EC0160E00E94CA
:100AC0005205BE01DF91CF910C941D05FF920F934B
:100AD0001F93CF93DF93E82FF0E0E459FE4FF4909B
:100AE000C82FC695C695C695D0E0FE01E450FE4FCE
:100AF0000491877010E0082E02C0159507950A949E
:100B0000E2F701701127C451DE4FFE01C491D0E01D
:100B100002C0D595C7958A95E2F7C170DD2701150A
:100B2000110519F081EE0E940618209719F086EE43
:100B30000E9406188F2D0E947418CD2B19F086EE96
:100B40000E944C18012B41F081EEDF91CF911F9153
:100B50000F91FF900C944C18DF91CF911F910F9142
:100B6000FF900895EF92FF920F931F93CF93DF931F
:100B7000EC01162F0AE08881882309F454C08130E3
:100B800009F04EC08981813099F47E0122E0E20EA5
:100B9000F11C8A810E947418E7012196812F8150EF
:100BA00050F3EFECF7E03197F1F700C00000F7CF1A
:100BB000823041F47E0182E0E80EF11C8A810E94BD
:100BC0000618EACF833041F47E01E2E0EE0EF11C1C
:100BD0008A810E944C18E0CF843011F02196DDCF3D
:100BE0002A81229690E080E0AE014F5F5F4F205354
:100BF000330B2A30310548F0019778F2EFECF7E03B
:100C00003197F1F700C00000F7CF089FB001099FAE
:100C1000700D1124C901860F971F2981EA01E4CFC5
:100C20000E946605BACFDF91CF911F910F91FF907F
:100C3000EF90089560E00C94B2058F929F92AF926E
:100C4000BF92CF92DF92EF92FF920F931F936B01AF
:100C50007C0181E090E0A0E0B0E04C015D0104C0C7
:100C6000880C991CAA1CBB1C4A95D2F7B501A4019B
:100C70004C015D0104C0880C991CAA1CBB1C2A9560
:100C8000D2F7482959296A297B2904C0880F991F5E
:100C9000AA1FBB1F0A95D2F78A019B010C211D21B7
:100CA0002E213F21041715072607370789F48C29C1
:100CB0009D29AE29BF29BC01CD011F910F91FF9045
:100CC000EF90DF90CF90BF90AF909F908F9008955E
:100CD00080959095A095B0958C219D21AE21BF2146
:100CE000EACF0F93382F262F6091810470918204F0
:100CF0008091830490918404042F432F0E941D0649
:100D00000F910C94C81E0E942C230E942721811150
:100D100002C00E94BD210C94E9080C94EC080895CF
:100D20000C948F0681E008950C949206CF93C82FFF
:100D30000E9490068C2FCF910C94940608950E94E7
:100D4000F41A0E949E062FE78AE196E02150804027
:100D50009040E1F700C000000C9406230F931F930E
:100D6000CF93DF93EC0161E00E9452058C01BE013C
:100D70000E94CD11882389F1BE01C8010E941A0585
:100D8000882359F1BE01C8010E942F15882329F13B
:100D9000BE01C8010E9470158823F9F0BE01C80188
:100DA0000E9493168823C9F0BE01C8010E94CF108B
:100DB000882399F08A81882339F001158CE518077A
:100DC00051F00E3D1C4579F0CE01DF91CF911F917E
:100DD0000F910C9416050E949F0680E0DF91CF9141
:100DE0001F910F9108950E94BD21F7CF90E080E000
:100DF00008950895FC01EE0FFF1FE45FFD4F8591FC
:100E000094910895CF93DF930E94F7130E940E08E8
:100E1000EC01811520E5920708F041C0811530E40E
:100E2000930708F0B4C0803E910518F5803C910509
:100E300008F09DC0883A910570F4853A910508F054
:100E40008EC081309105F9F00097E9F00497D8F44D
:100E5000D0E0C0E018C08F3B9105D0F7C85AD0E071
:100E6000CC0FDD1FC35FDD4F0990D881C02DD46446
:100E70000AC08115904258F4C11581E0D80718F4D2
:100E8000C83ED10528F7CE01DF91CF910895C11555
:100E900090E3D90708F071C0CE019F706AC0811538
:100EA00025E5920758F5811534E5930708F09EC0B3
:100EB000811542E5940750F4C11581E5D80708F47F
:100EC00069C0DC2FCC27C16FD06ADDCF982F9695F3
:100ED00096959E0123703327C115D34508F077C03E
:100EE000C1E0D0E002C0CC0FDD1F2A95E2F720E27E
:100EF000929FC0011124C82BD92B67C0C11589E569
:100F0000D807A8F4C11598E5D90708F074C0C11531
:100F100026E5D20708F09CCF8C2F0E94A508C82F89
:100F2000D0E0DC2FCC27CC27DF71D062ACCFC1154D
:100F30003AE5D30708F464C0CE019056811590427B
:100F400008F086CF8D2F8F710E94A50890E0982F12
:100F5000882788279F719C012C2BE901E6CFC55A71
:100F6000D0E0C55CDD4FC881D0E0D0648CCF805C20
:100F700091090E94FA06EC0186CFCE019927D3FF92
:100F800003C0EC01D86C7FCFEC01D06C7CCFDF705C
:100F9000D06A79CFCE01E4E096958795EA95E1F79E
:100FA00083702C2F26952695237090E2299F90011F
:100FB0001124382B8C2F8370C1E0D0E002C0CC0FFD
:100FC000DD1F8A95E2F7C22BD32BDC685CCFC1E032
:100FD000D0E002C0CC0FDD1F2A95E2F730E2939FEC
:100FE000C0011124C82BD92BDA684DCFD82FCC27BC
:100FF000C46FD06A48CFDC2FCC27C06FD06A43CFF4
:101000008C2F8F700E94A50834E0D695C7953A952D
:10101000E1F7CF709C2FEC01D06935CF8238910574
:10102000B1F1B0F48133910509F475C048F4893207
:10103000910509F469C08A32910509F473C00895D5
:101040008533910509F459C08933910501F108955B
:10105000833E9105A9F138F4803E9105F9F0823E76
:10106000910549F10895863E9105A9F1873E9105C4
:10107000C9F1843E910519F52091620521FF1FC039
:101080008091610584FD14C087EE90E00895209161
:1010900061052370A1F080EE90E008952091610534
:1010A00020FD47C03091620530FF09C024FF44C0D5
:1010B00090E080E004C02091610522FDF7CF089503
:1010C0002091610522FD3BC03091620530FDE3CFE8
:1010D00024FFF5CFEDCF2091610523FFF0CF24FD54
:1010E000E7CFD2CF2091610523FD2CC0309162055E
:1010F00031FFEECF84EE90E008952091610525FF49
:10110000DECF89E290E008952091610525FFD7CFD9
:1011100085E390E008952091610526FFD0CF8AE213
:1011200090E008952091610526FFC9CF81E390E00A
:10113000089589E390E0089583EE90E0089582EEAB
:1011400090E0089586EE90E008959091610592FFF9
:1011500006C0282F28712830F9F4877F846093FF18
:1011600006C0282F28712831F1F4877E84612091F0
:10117000620520FF06C0382F38713830D9F4877FD8
:10118000816021FF06C0282F28712831D1F4877E85
:10119000816194FD877E0895282F24712430F9F60B
:1011A0008B7F8860DCCF282F2471243101F78B7E60
:1011B0008861DDCF382F3171313019F78E7F88602B
:1011C000E0CF282F2171213121F78E7E8861E1CF78
:1011D00008950C94E80808950C94EB08E82FF0E0CB
:1011E000E75EFA4F80810895089580E58A95F1F7CA
:1011F0000895A2E4B2E061E070E08D91E82FE295FD
:10120000EF70F0E041A18F709B0101C0220F8A9521
:10121000EAF7922F9095942391A382A1822B82A327
:1012200082E0A834B80749F7AEE3B2E061E070E0CD
:101230008D91E82FE295EF70F0E041A18F709B0156
:1012400001C0220F8A95EAF7922F9095942391A3DB
:1012500082A1822B82A382E0A234B80749F7E3E19E
:10126000F5E0A9E1B5E089E195E011921D928E17B4
:101270009F07D9F786E00E94BF090C9483068F92DE
:101280009F92AF92BF92CF92DF92EF92FF920F9315
:101290001F93CF93DF9382E4A82E82E0B82E03E160
:1012A00015E0912CCC24C394D12CF50181915F01E0
:1012B000C82FC295CF70D0E099A18F70760101C080
:1012C000EE0C8A95EAF7892F8E2989A38AA18E2CA4
:1012D000809488218AA30E94F508EEE3F2E050E0B2
:1012E00040E020E03191A32FA295AF70B0E090963E
:1012F0008C9190E03F7002C0959587953A95E2F702
:1013000080FD39C08C2D042E01C0880F0A94EAF7A5
:10131000282B4F5F5F4F4430510521F789A1882268
:1013200089A28AA1E82AEAA2F8018081281729F176
:10133000208381E0982A0F5F1F4FF8E4AF16F2E098
:10134000BF0609F0B2CF292D46E069E175E083E1DF
:1013500095E00E94C0090E948D06892DDF91CF91F2
:101360001F910F91FF90EF90DF90CF90BF90AF90C3
:101370009F908F90089580E0CBCF80E0DBCF0895E1
:10138000FF920F931F93CF93DF93F82E092F162F01
:10139000D72FC42F222349F081E08093BC030E9401
:1013A000BB229093BB038093BA038091BC03882334
:1013B000A1F08091BA039091BB030E94D3220697BB
:1013C00060F0EF2DF02FA12FBD2FCE0FDF2FD11DFD
:1013D000EC17FD0741F41092BC03DF91CF911F91F0
:1013E0000F91FF90089581918D93F2CFAF92BF92AC
:1013F000CF92DF92FF920F931F93CF93DF93362FFD
:10140000472FE82FF0E0EA5DFC4F71110DC06491A9
:10141000762F862FDF91CF911F910F91FF90DF9054
:10142000CF90BF90AF900895C72FD0E02491F22EB7
:10143000022F10E056E0659FC0011124EFEFF0E0AD
:10144000BF010E94402A832F90E0880F991F35E545
:10145000369FD001379FB00D11248A1B9B0B982F0C
:10146000990F980F6F01CC1ADD0AC09ED001C19E62
:10147000B00DD09EB00D11248B2F949FA00111248C
:10148000452F55276F01C41AD50AC09EA001C19EE1
:10149000500DD09E500D11245F01A91AB108AC9EC9
:1014A0006001AD9ED00CBC9ED00C1124CD2CDD244F
:1014B000EC19FD09E09FE001E19FD00DF09FD00DF8
:1014C0001124ED2F62307105A1F048F4611571050A
:1014D00069F06130710589F0EB2F852F07C064300A
:1014E000710571F088F066307105B1F76E2F722FBB
:1014F00091CFE22F2B2F8D2FF9CFE22F252FF6CF73
:10150000EB2F822F2D2FF2CF2B2F8F2DE52FEECF0C
:101510000895CF93DF93762FE901682F842F0E94DF
:10152000F609798368838A83DF91CF91089580914A
:101530001F05982F9E7F29F48170826080931F057C
:1015400008958635E8F381708465F8CF88E090E0EF
:101550000C94782DCF92DF92EF92FF926B017C0179
:101560000E94970AB701A60188E090E0FF90EF90F3
:10157000DF90CF900C94962D60911F0570912005FF
:1015800080912105909122050C94AA0AEFE1F5E0E3
:1015900083E0808311828FEF828383831482608152
:1015A0007181828193810C94AA0A80911F0580FF2A
:1015B00002C08695089580E00895809123058330C8
:1015C00018F48F5F8093230560911F0570912005AB
:1015D00080912105909122050C94AA0A80912305FF
:1015E000882319F081508093230560911F05709125
:1015F000200580912105909122050C94AA0A8091E2
:101600002305089580932305662351F060911F05FB
:101610007091200580912105909122050C94AA0AD1
:10162000089560E00C94020B80912005089580914C
:101630002105089580912205089570E00C943F11D2
:101640006091110180911F0580FF0AC080911001F7
:1016500023E0829FC00111248C5D9A4F0C941D0BD6
:10166000809112019091130123E0829FF0011124D7
:10167000EC5DFA4F891750F71182108212828F5F4A
:101680003396F8CF90911F0590FF14C090911201EE
:101690002091130133E0939FF0011124EC5DFA4F88
:1016A000921710F00C94200B8183608342839F5F1C
:1016B0003396F6CF0895CF93DF9300D00F92CDB736
:1016C000DEB790911F0590FF0AC09E012F5F3F4F2C
:1016D0000E94890A4B8169818A810E94420B0F9086
:1016E0000F900F90DF91CF910895CF93DF93EC018E
:1016F000EC81F0E0EF5DFD4F4491EFE1F5E06281B8
:1017000081810E945B0B8C818F5F8C83DF91CF91F5
:101710000895CF93DF93EC01EFE1F5E0438162811F
:101720008C810E945B0B8C818F5F8C83DF91CF91CA
:1017300008950F931F93CF93DF9300D00F92CDB7EF
:10174000DEB78C018091BD0381110AC09E012F5F1D
:101750003F4F4FEF6FEF0E94890A8A818093BD034C
:10176000F8016481613069F08091BD0340E0662337
:1017700061F040E0623011F44091BD0380E060E030
:1017800004C06091BD0340E080E00E94420BF8017C
:10179000848190E0019663E070E00E94542A848383
:1017A0000F900F900F90DF91CF911F910F9108959F
:1017B000AF92BF92CF92DF92EF92FF920F931F935F
:1017C000CF93DF9300D00F92CDB7DEB7182FF62E50
:1017D000042FE22E90911F0590FF29C0E92FE69576
:1017E000AE2FB0E0A85BBD4F8C91809326049E7F06
:1017F000923059F59E012F5F3F4F812F0E94890A39
:101800004B8169818A810E94420B10932005F092DE
:10181000210500932205EE2051F060911F05709183
:10182000200580912105909122050E94AA0A0F901F
:101830000F900F90DF91CF911F910F91FF90EF903C
:10184000DF90CF90BF90AF900895823019F400914F
:101850002205DBCF863019F410912005D6CF8930D0
:10186000D9F3893191F6E9518E2F8170D82EE69502
:10187000F0E0EF5DFC4FA590B490C12CBB246091CB
:101880001401C61618F00E94200BBFCF2C2D30E09B
:10189000A29EC001A39E900DB29E900D112470E0F7
:1018A0000E94402A812FD11013C0860F409112014F
:1018B000420F532F511D9A01220F331F240F351F42
:1018C0002C5D3A4F402F6F2D0E94890AC394D7CFC9
:1018D000861BECCFEFE1F5E09181282F43816281F7
:1018E0008AE0890F0C94D80B81E00C946A0CEFE12C
:1018F000F5E09181282F4381628186EF890F0C9456
:10190000D80B81E00C94770CEFE1F5E0628121E1E6
:10191000620F08F46FEF282F438181810C94D80B5C
:1019200081E00C94840CEFE1F5E0628121E1621B1F
:1019300008F460E0282F438181810C94D80B81E06A
:101940000C94930CEFE1F5E0438121E1420F08F4A0
:101950004FEF282F628181810C94D80B81E00C9489
:10196000A20CEFE1F5E0438121E1421B08F440E0E5
:10197000282F628181810C94D80B81E00C94B10CEA
:1019800021E00C94D80B20E00C94D80BEF92FF923E
:101990001F93CF93DF93EC0110E0EE24EA94F12C37
:1019A00060911401161770F00E94200B9A818C81AF
:1019B00090FF27C08F5F8C83DF91CF911F91FF90A5
:1019C000EF90089520911201422F410F5527551F86
:1019D000CA019A01220F331F280F391F2C5D3A4F7D
:1019E00070E0C7010E94542A962F8C8140912205F5
:1019F00060912105199F800D11240E94890A1F5FA3
:101A0000CFCF8150D8CFAF92BF92CF92DF92EF92DB
:101A1000FF920F931F93CF93DF93FC0182810FEF0F
:101A200080FF01E010E043E1A42E8091140118171B
:101A3000C8F00E94200B8091BF03013009F055C00F
:101A4000811102C08091140181508093BF03DF9106
:101A5000CF911F910F91FF90EF90DF90CF90BF90AB
:101A6000AF900895C0911201C12ED12CCC0DDD2D67
:101A7000D11DCE01880F991FC80FD91FCC5DDA4F39
:101A8000198218821A8234E0E32EF12CB12C809155
:101A9000BF038B0D84311CF16A2D0E94322A892FDD
:101AA000082E000C990BC816D90691F480912205D6
:101AB0008E9DA0018F9D500D1124559547955595EC
:101AC00047959E0160912105809120050E94890A19
:101AD000B00EF1E0EF1AF108D1F61F5FA6CF87FF35
:101AE000DFCF90911401890FDBCF90E001966091D8
:101AF000140170E00E94542AA8CF0F931F93CF9334
:101B0000DF93809112019091130123E0829FF001F5
:101B10001124EC5DFA4F891740F1C0E0D3E06091E9
:101B20001401C61740F10E94200B20910E018091F4
:101B3000BE03820F8093BE0390910F01920F90938A
:101B40000F01191654F4082E000C990B4091140142
:101B50004150550B841795071CF0219520930E01D9
:101B6000DF91CF911F910F910895118210821282FF
:101B70008F5F3396D0CF0C2F10E070E0C8010E9429
:101B8000542A20911201820F482F50E02091BE0369
:101B9000022E000C330B02171307BCF020910F012B
:101BA000022E000C330B201731077CF08D9F900123
:101BB00011242C5D3A4F40912205609121058091BE
:101BC00020050E94890ACF5FAACFFA01EE0FFF1FFE
:101BD000E40FF51FEC5DFA4F118210821282F3CFF1
:101BE0000F931F93CF93DF938C01FC018481958128
:101BF00001968170992795838483C0E0D5E5809113
:101C00001401C81730F0DF91CF911F910F910C9400
:101C1000200B20911201422F4C0F5527551FCA014E
:101C20009A01220F331F280F391F2C5D3A4F8C2F3A
:101C30008695F80144815581840F952F911D8170FF
:101C400040912205609121058D9F802D11240E94D5
:101C5000890ACF5FD4CF0F931F93CF93DF93EC010B
:101C600010E000E0909114019017110609F06CF457
:101C70000E94200B8C8190E00196817099278C83C3
:101C8000DF91CF911F910F91089520911201A8012A
:101C9000420F511D9A01220F331F240F351F2C5D57
:101CA0003A4F4C81609121058091200596959017BF
:101CB000110651F04CF0442349F0409122050E9456
:101CC000890A0F5F1F4FCECF4423B9F340E0F7CF0F
:101CD0008F929F92AF92BF92CF92DF92EF92FF923C
:101CE0000F931F93CF93DF93FC01B280948081E028
:101CF000848300E015E05BE4A52E88248394EE2421
:101D0000EA94F12C7BE4C72ED12C809114010817A2
:101D100070F0DF91CF911F910F91FF90EF90DF90C6
:101D2000CF90BF90AF909F908F900C94200BC02FBE
:101D3000D0E01C9FF0011D9FF00D1124E054FC4FDA
:101D400091101CC01382128220911201CE01820FC9
:101D5000911D9C01220F331F280F391F2C5D3A4F14
:101D60001C9FF0011D9FF00D1124E054FC4F428197
:101D7000618180810E94890A0F5FC7CF238122235E
:101D800079F12150238334818A2D821B311101C0C6
:101D9000822F1C9FF0011D9FF00D1124E054FC4F79
:101DA00090912205899FC0011124B6010E94402A0A
:101DB0006283211104C0332311F01482A38222E034
:101DC0002B1510F21C9FF0011D9FF00D1124E05403
:101DD000FC4F809120058083809121058183B4CFC1
:101DE0000E94C12A823091400CF0AECF82E08B1568
:101DF00030F50E94C12AB7010E94542A1C9FF001AD
:101E00001D9FF00D1124E054FC4F808322E02B1520
:101E1000C8F40E94C12A209121052695622F70E006
:101E20000E94542A280F1C9FF0011D9FF00D1124C1
:101E3000E054FC4F21831282A382848285CF80915B
:101E40002005DCCF20912105EECFEFE1F5E0808188
:101E50008E7F808360817181828193810E94AA0A32
:101E6000109227042FE788E391E0215080409040B2
:101E7000E1F700C000000C94200BEFE1F5E0808159
:101E80008E7F8083109227042FE788E391E0215012
:101E900080409040E1F700C000000C94200B60915E
:101EA0001F05669570E04BE050E085E191E00E94EF
:101EB000D12A892B19F481E0809327040E94BB2248
:101EC0009093200480931F04089590911F0590FF24
:101ED00035C09170811128C0926090931F056623D0
:101EE00051F060911F05709120058091210590911E
:101EF00022050E94AA0A60911F05669570E04BE0DA
:101F000050E085E191E00E94D12A892BA1F0109246
:101F1000270481E0809322044091220560912105ED
:101F2000809120050C94C30C8B3210F09465D5CFB2
:101F3000880F982BD2CF0E944F0FEBCF0895682FB8
:101F400090911F05969581E0890F8B3208F081E012
:101F50000C94650F81E00C949F0F682F90911F05E2
:101F600096958FEF890F09F48AE20C94650F81E052
:101F70000C94AD0F61E00C94650FEFE1F5E080810A
:101F80008160808386950C94BA0F80911F0580FD37
:101F90000C94250F0C94BD0F60E00C94650F80919C
:101FA000250481112EC00E942721811104C00E94A6
:101FB000BD210E94C60A0E94A60A60931F05709365
:101FC000200580932105909322056E7F61F40E9485
:101FD000C60A0E94A60A60931F057093200580938D
:101FE0002105909322050E94970A10922704809160
:101FF0001F0580FF03C086950E94CC0F81E080936F
:1020000025040895EFE1F5E0808181608083869565
:102010000C94CC0F0F931F93CF93DF9380912704E1
:10202000882309F49DC080912604E0911F05E69560
:10203000E81BE09321048230C9F5F0E0E35EFD4F38
:10204000E491CE2FD0E005E71BE0809122048823A5
:1020500089F0109222040E94BB229E0120953095A7
:10206000820F931F9093200480931F0410922404E6
:102070001092230480911F04909120040E94D32287
:102080008C179D0708F46CC0E0911F04F0912004A8
:10209000CE0FDF1FD0932004C0931F048FE194E084
:1020A000F801DF91CF911F910F910994863049F487
:1020B000F0E0E65EFD4FE491CE2FD0E009E81BE0B2
:1020C000C4CF893051F4E695F0E0E95EFD4FE4912C
:1020D000CE2FD0E006EC1CE0B8CF8F3051F4E6955F
:1020E000F0E0EC5EFD4FE491CE2FD0E003E01DE088
:1020F000ACCF853149F4F0E0EF5EFD4FE491CE2F97
:10210000D0E00DE71DE0A1CFC8EED3E000EF1DE069
:10211000883109F49ACF833239F4EFE0F2E0C591C7
:10212000D49109E91BE091CFC4EFD1E00BE21EE0AE
:10213000843209F48ACFC0EDD7E008E81AE085328E
:1021400009F083CF8E2F63E00E94262AE92FF0E06A
:10215000E45FFD4FE491CE2FD0E008E61EE075CF9E
:10216000DF91CF911F910F910895FA01811101C064
:10217000FB010994CF93DF93C82FD62F0E94D50A75
:102180008C1740F00E94D50A8D1720F4DF91CF9173
:102190000C94AA0F8C2FDF91CF910C94BA0F0F9350
:1021A0001F93CF938C01FB01C281CC2309F465C03E
:1021B0000E9472208272F801E25CFC45E431F10574
:1021C00038F4EC5AF14D0C94682A0E94C50FC0E017
:1021D0008C2FCF911F910F91089547EB5FE06AEA32
:1021E0007FE00E94B510F3CF4AEA5FE067EB7FE043
:1021F000F8CF41E85CE064E77CE0F3CF44E75CE0E3
:1022000061E87CE0EECF4FE95CE060E97CE0E9CF9B
:1022100040E95CE06FE97CE0E4CF4DEB5CE06EEA26
:102220007CE0DFCF4EEA5CE06DEB7CE0DACF4EEE97
:102230005AE06DED7AE0D5CF4DED5AE06EEE7AE0E2
:10224000D0CF81E00E94BA0FC2CF65E082E00E9449
:10225000BA10BDCF68E086E0FACF6EE089E0F7CF34
:1022600064E18FE0F4CF67E185E1F1CF88E1EACF67
:1022700062E289E1ECCF83E2E5CFC1E0A9CF3E9AEB
:1022800048B14F7B58B15064EFB7F8949B01220FCF
:10229000331F260F371F280F391F2817390741F41E
:1022A000EFBF8FE292E00197F1F700C000000895C0
:1022B000DC016D91CD0178E058B967FF48B9660F30
:1022C000000000C048B9000000C000C000C000C04D
:1022D00000C000C000C000C000C000C000C000C0FE
:1022E00000C000C000C07A9539F7D7CF82E290E0F5
:1022F0000E94702D813289F483E290E00E94702D5B
:10230000823059F484E290E00E94702D91E0853093
:1023100009F090E0892F8170089580E0FCCFCF9381
:10232000C82F6FEF811161E282E290E00E94842D5C
:102330006FEFC11162E083E290E00E94842D6FEFA5
:10234000C11165E084E290E0CF910C94842D80E08F
:102350000E948F110C942121089585E290E00E9443
:10236000702D682F70E090E080E0089585E290E0A5
:102370000C94842D0E94AC110E94761181110CC026
:1023800060E070E0CB010E94B6110E9471130E94C0
:102390005B1481E00C948F110895CF93FB01C281EF
:1023A000CC2309F19C0122513F452031310520F514
:1023B00082510E946B14C0E08C2FCF91089581E070
:1023C0000E94EE1E43E062E081E00E947106F3CFBE
:1023D00081E00E940F1F43E062E081E00E947106ED
:1023E000EBCF82E0F6CF8031FFE59F0789F38131A3
:1023F0009F45B9F3C1E0E0CF8031EFE59E07F9F2E8
:1024000081319F45C9F682E0DBCF2FEFFC012083AD
:102410000895CF93DF93EC0188818138A9F028F4E7
:10242000803871F0DF91CF910895823881F0833840
:10243000C9F70E94140B89830E94170B8A83F2CF7D
:102440000E941A0B8983EECF0E94D50AFBCF0E940F
:10245000FF0AF8CFCF93DF93EC0188818138E1F058
:1024600028F4803869F0DF91CF910895823811F116
:102470008338C9F70E941A0B482F6A81898108C0E6
:10248000D9810E94170BC82F0E94140B4D2F6C2F5F
:10249000DF91CF910C94C30C89810E94CC0F89816C
:1024A000811104C0DF91CF910C943D0FDF91CF914A
:1024B0000C9402108981DF91CF910C94110BEF9253
:1024C000FF920F931F93CF93DF93EC01062FDC0154
:1024D000ED91CD01E150E33108F0BFC0F0E0E859E3
:1024E000F14D0C94682A198289E08A83602FCE010D
:1024F000DF91CF911F910F91FF90EF900C94EA2301
:102500008981823069F0833071F08130D9F40E9482
:10251000C7220E946E2A6A837B838C839D83E6CFC9
:102520000E94AD11F6CF7E01B2E0EB0EF11C10E07F
:10253000812F0E94EE08F70181937F011F5F163003
:10254000B9F7D4CF602FCE010E940512CFCF898179
:102550008230C1F76A817B818C819D810E946E2AC5
:102560000E94B611C3CF4B816A8189810E944313B7
:102570009827892798279D838C83B8CF2C813D810C
:102580003227232732274B816A8189810E945C137D
:10259000ADCF0E947113AACF0E942A12A7CF0E942A
:1025A0000912A4CF0E94BC0AA1CF0E9404148983FF
:1025B0009DCF0E9406149827892798279A8389839C
:1025C00095CF6B8170E089819A81AE014C5F5F4F3E
:1025D0009827892798270E94091488CF6B8170E07B
:1025E00089819A81AE014C5F5F4F98278927982790
:1025F0000E9430147BCF0E945B1478CF0E9430136E
:10260000D6CF6B8170E089819A81AE014C5F5F4FBC
:102610009827892798270E94A91368CF6B8170E0BB
:1026200089819A81AE014C5F5F4F9827892798274F
:102630000E94CE135BCF0E94A71158CFCE010E94FB
:10264000EA23FFEF20E782E0F15020408040E1F7ED
:1026500000C000000E94062349CF8FEF888346CF39
:1026600084E0089598E0699FB001112450E0440F80
:10267000551F640F751F90E3899F600D711D112414
:10268000CB01869608950F931F93CF93DF930E94FB
:1026900032138C010E94702DC82FD0E0DC2FCC2784
:1026A000C80101960E94702D9E01282BC901DF915F
:1026B000CF911F910F9108950F931F93CF93DF93A5
:1026C000122F032F0E943213EC01602F0E94842DE1
:1026D000612FCE010196DF91CF911F910F910C9444
:1026E000842DAF92BF92CF92DF92EF92FF921F9311
:1026F000CF93DF938CEAC82E80E0D82ED0E076010D
:10270000C0E014C0F50125913491412F6C2F8D2F1D
:102710000E945C1382E0A80EB11C1F5F143091F779
:1027200088E0E80EF11CCF5FC63019F0570110E0C9
:10273000E9CFDF5F80E3C80ED11CD43001F7DF9111
:10274000CF911F91FF90EF90DF90CF90BF90AF900F
:102750000895EF92FF920F931F93CF93DF93EC01B5
:102760008A017C01E60EF71ECE018696CE15DF05A6
:1027700039F4DF91CF911F910F91FF90EF90089561
:10278000C03CD10540F40E94702DF80180830F5F9A
:102790001F4F2196E9CFF8011082F9CFCF92DF9237
:1027A000EF92FF920F931F93CF93DF937C016A0107
:1027B0008C01060F171FEC01CE018696C017D107BA
:1027C00049F4DF91CF911F910F91FF90EF90DF902F
:1027D000CF900895C03CD10540F4FE01EE19FF09E9
:1027E000EC0DFD1D60810E94842D2196E5CF462FC2
:1027F000843038F4763028F4643018F4672F0C9461
:10280000431390E080E0089580E108958AE193E029
:102810000895EF92FF920F931F93CF93DF93EC01F4
:102820008A017C01E60EF71ECE018A519F4FCE151C
:10283000DF0539F4DF91CF911F910F91FF90EF9059
:102840000895CA3123E0D20740F40E94702DF801A8
:1028500080830F5F1F4F2196E7CFF8011082F9CFD9
:10286000CF92DF92EF92FF920F931F93CF93DF935C
:102870007C016A018C01060F171FEC01CE018A5101
:102880009F4FC017D10749F4DF91CF911F910F914E
:10289000FF90EF90DF90CF900895CA3123E0D207E8
:1028A00040F4FE01EE19FF09EC0DFD1D60810E9450
:1028B000842D2196E3CFCF93DF93C6EED0E060E086
:1028C000CE010E94842D2196C11584E0D807B9F766
:1028D000DF91CF910895DF92EF92FF920F931F93B4
:1028E000CF93DF9300D000D0CDB7DEB7F82E8FE0C6
:1028F0008F1540F08FEF93E00E94702D06EE10E0F0
:102900008823C1F00F900F900F900F90DF91CF911F
:102910001F910F91FF90EF90DF900895011584E0D3
:10292000180781F3C8010E94702D811101C0FA942B
:102930000F5F1F4FF110F2CF19821A821B821C8287
:10294000DD24D39478018FEFE81AF80AC8010E94B9
:10295000702D89831A828823A9F29FEF980F9330F4
:1029600078F48A83D9820E5F1F4FC7010E94702DB1
:102970008B83882339F2CE0101960E941A06E2CF9A
:102980008701F9CF0F931F93CF93DF93C62FD42FD7
:10299000022FFC0182818823C9F060932A040E94DF
:1029A000BB22909329048093280480E28C0F883006
:1029B00008F050C0C77081E001C0880FCA95EAF7DF
:1029C000DF91CF911F910F910C94871810912A04D9
:1029D000161335C080912804909129040E94D322B7
:1029E000883C910560F5C0E2CD0F1D17B9F080E27B
:1029F000810F883040F4177081E001C0880F1A956C
:102A0000EAF70E948E18C83048F481E09D2F977035
:102A100001C0880F9A95EAF70E948718802F0E94BC
:102A20007418C830B8F4D77081E001C0880FDA9507
:102A3000EAF7DF91CF911F910F910C948E1880E2ED
:102A40008C0F883038F4C77081E001C0880FCA95B8
:102A5000EAF7EFCFDF91CF911F910F9108959C017D
:102A6000CB01233F4CE5340731F190F4283DFCE5E0
:102A70003F07E9F0293D4CE5340769F1273D3C4526
:102A800079F426E241EE61EE0E94C21480E00895DE
:102A9000253FFCE53F07B9F090F0263F3C45B9F0F3
:102AA000FC0182818823D1F010922A04089527E244
:102AB00045EE65EEE9CF26E241EE60EEE5CF27E296
:102AC00045EE64EEE1CF26E241EE62EEDDCF27E295
:102AD00045EE66EED9CF28E241E0EBCF81E00895E4
:102AE000CF93DF93EC01FB018281882309F419C1A4
:102AF000C230FCE5DF07C0F1C6319CE5D90730F0F4
:102B00009E012A5F3C452930310570F50E943A212B
:102B10009093620580936105C031ECE5DE0709F40E
:102B2000CFC008F05BC0C8308CE5D80709F4B6C048
:102B300088F5C430ECE5DE0709F4A8C0C0F4C23063
:102B40008CE5D80709F49CC0809161058260C33090
:102B5000DC4509F498C080916105909162050E945E
:102B600048210E94F41A80E0DF91CF91089580916E
:102B700061058061C630ECE5DE0709F484C0809110
:102B800061058860C730DC4508F47DC0809161052F
:102B9000806279C0CC308CE5D80709F489C070F424
:102BA000809161058C60CA30ECE5DE0709F46BC0EA
:102BB00008F478C0809161058E7F65C0CE308CE5C9
:102BC000D80709F479C0809161058B7FCF30DC454F
:102BD00008F459C0809161058F7E55C0CB3FECE56C
:102BE000DE0709F457C030F5C3318CE5D80709F486
:102BF0006FC078F4C131ECE5DE0709F465C0C2317D
:102C0000DC4509F0A8CF0E94F41A809161058F7706
:102C10003AC0C5318CE5D80709F462C008F476C023
:102C2000809162058160CA3FDC4509F094CF8093B2
:102C3000620591CFCF3FFCE5DF0709F44DC088F472
:102C4000809162058D7FCD3F9CE5D90781F380910E
:102C500062058E7FCE3FDC4550F380916205836034
:102C6000E6CFC130FDE5DF0709F459C008F444C0E0
:102C700080E0C230DD4509F06ECF0E94BF216BCFEE
:102C80008091610581608093610565CF80916105C8
:102C90008460F9CF809162058260C9CF809161051F
:102CA0008064F1CF0E94F41A809161058068EBCFB7
:102CB000809161058D7FE7CF80916105877FE3CFAC
:102CC000809161058F7DDFCF809161058F7BDBCFA8
:102CD00080916105837FD7CF809162058C7FA7CFDC
:102CE0008091610582FB992790F921E0922790FB62
:102CF00082F990FB83F9C7CF80916205982F909558
:102D000091708E7F892B90FB81F991CF0E94F41AEC
:102D100090916105892F97FB87F98058B4CF81E0A6
:102D2000ACCF81E021CFCF93DF93EB0186319C457F
:102D300011F50E9472209A81992399F08A7A91E084
:102D400009F490E090932B04811109C089E20E945C
:102D50004D200E94BE2080E0DF91CF91089585E351
:102D6000F6CF80912B04811104C089E20E94542087
:102D7000F0CF85E3FBCF81E0EFCF909331048093D8
:102D80003004089580913004909131040895E091C9
:102D90003004F0913104309721F00190F081E02D62
:102DA000099480E00895E0913004F0913104309767
:102DB00099F020912C01222359F02091610527FFE1
:102DC00007C0DC012C9111962C93119725E02C93D0
:102DD0000280F381E02D0994089520912E04309112
:102DE0002F042817390771F090932F0480932E0435
:102DF000E0913004F0913104309721F00680F781A2
:102E0000E02D0994089520912C0430912D04281769
:102E1000390771F090932D0480932C04E0913004D5
:102E2000F0913104309721F00084F185E02D099470
:102E3000089585B7806885BF85B7806885BF089588
:102E4000089508950C94201708950C9424170E9457
:102E500019170E9421170C94221781E008950C94F1
:102E60002D170E94B2220E94F9080E94BA110E94F6
:102E700040230E94CF0F0C942517AF92BF92CF92A0
:102E8000DF92EF92FF920F931F93CF93DF93CDB713
:102E9000DEB72A970FB6F894DEBF0FBECDBF0E94F3
:102EA0003F090E942F17882309F45FC083E3A82EEF
:102EB00084E0B82E10E000E0C02E802F0E94EE08C3
:102EC000E82EF501D1905F01D81609F448C0809131
:102ED000AE0481FD0E94F40880E0FF24F394DE2418
:102EE0009D2D9F21B9F18E83CF82EF2081E009F4DF
:102EF00080E088870E94BB228160782F9A8789872B
:102F00004E815F8168858A850E94D717F801ED5C44
:102F1000FB4F8081F826F0820E940A100E94C7169B
:102F200090913204891791F10E94C7168093320460
:102F30002A960FB6F894DEBF0FBECDBFDF91CF91BA
:102F40001F910F91FF90EF90DF90CF90BF90AF90C7
:102F50000C9496068F5FFF0C843009F0C1CF0F5F91
:102F60001F4F0630110509F0A7CF8FEF89838A83A1
:102F70001B820E94BB228160782F9D838C834981B4
:102F80005A816B818D810E94D717C6CF2A960FB6C2
:102F9000F894DEBF0FBECDBFDF91CF911F910F918F
:102FA000FF90EF90DF90CF90BF90AF900895CF93B8
:102FB000DF93CDB7DEB72B970FB6F894DEBF0FBE09
:102FC000CDBF4F83588769877A878B871E821D8282
:102FD00085E0FE013796DE01119601900D928A95EB
:102FE000E1F749815A816B817C818D819E812B968D
:102FF0000FB6F894DEBF0FBECDBFDF91CF910C941A
:103000006A1DFC01808191810C941F20CF93C82FF1
:10301000882309F43FC08CEF8C0F813AA0F46C2F09
:1030200080912001909121010E94D821882329F0CC
:103030008C2F0E9454200E94BE208C2F0E944D2075
:10304000CF910C94BE2080E28C0F883048F4C7707A
:1030500081E001C0880FCA95EAF70E947520F0CF81
:10306000EBE5EC0FE33040F4F0E0EF55FD4F8081ED
:1030700090E0CF910C94ED16C85AC73158F4EC2F5C
:10308000F0E0EE0FFF1FED58FD4F80819181CF9151
:103090000C940317CF910895882329F19CEF980F82
:1030A000913A20F40E9454200C94BE2090E2980F94
:1030B000983050F4877091E001C0990F8A95EAF733
:1030C000892F0E947B20F0CF9BE5980F933020F44E
:1030D00090E080E00C94ED16885A873120F490E05F
:1030E00080E00C9403170895CF93C82F0E94061810
:1030F000C93349F42FEF83EF91E021508040904095
:10310000E1F700C000008C2FCF910C944C1888235D
:1031100021F00E9475200C94BE200895882321F090
:103120000E947B200C94BE200895BF92CF92DF9224
:10313000EF92FF920F931F93CF93DF936C01D62FE3
:10314000C72FFC01058102950F70128111110E9499
:1031500092200E946B20E82E882391F01123D1F059
:103160008C2F807F803421F080E28D0F883090F0AA
:1031700082E00E9409210E946B2091E0E82EE9265E
:10318000BC2EB2949FE0B922EB2DF0E0E558F14D52
:103190000C94682AE12CF4CF0C2F0F70C07F11F033
:1031A0000295007F1123A9F0002359F080E28D0FD2
:1031B000883010F0D11109C0802F0E9475200E9424
:1031C000BE208D2F0E94061814C0802F0E948520DB
:1031D000F6CF8D2F0E944C18002359F080E28D0FFE
:1031E000883010F0D1112CC0802F0E947B200E94CB
:1031F000BE202B2D2850330B2430310520F40E94A3
:10320000C7160E949606EE2009F493C10E9467201B
:1032100080FD8FC1F60112820E9461200E94EE1E85
:10322000C6010E94BA1A0E946120DF91CF911F91BE
:103230000F91FF90EF90DF90CF90BF900C940F1FF5
:10324000802F0E948B20D3CFFC2FFF70FF2EC07FDA
:10325000C03219F0F29480EFF822DD2369F0D1300A
:1032600049F1112391F1002351F1F601858180FF8D
:10327000A8CF8F70858323C0112381F0011106C070
:103280000E94A5208F290E948718B3CF0130C1F773
:103290000E94A5208F290E94AB20ABCF011106C050
:1032A0000E94B4208F2D0E948E18A3CF013009F404
:1032B000A0CFF6CF112329F0063008F09ACF8F2D3A
:1032C000E2CF053008F095CFEDCF002359F3D93385
:1032D00049F4FFEF23EF31E0F15020403040E1F7B7
:1032E00000C000008D2F0E944C1883CF8C2F869534
:1032F0008695837069F0813009F07BCF8D2F9C2FEC
:103300009370111102C090E080E00E94031771CF0A
:103310008D2F9C2F9370111102C090E080E00E94CD
:10332000ED1667CF8C2F837009F041C0111161CF6A
:103330004D2F429546954770440F440F0D2F0F7047
:1033400010E030E020E0042E04C0000F111F221F07
:10335000331F0A94D2F760E070E0CB01D4FF0FC0B6
:103360006FE070E080E090E004C0660F771F881F78
:10337000991F4A95D2F76095709580959095C6955E
:10338000C695C370602B712B822B932BC23049F0F2
:1033900058F4C13019F00E94A01E2BCF0E948E1E3F
:1033A00028CF0E94B21E25CF0E948C1E22CF869568
:1033B000112311F08C2F8170882309F41ACF4D2F1F
:1033C000429546954770440F440F0D2F0F7010E043
:1033D00030E020E0042E04C0000F111F221F331F15
:1033E0000A94D2F760E070E0CB01D4FF0FC06FE029
:1033F00070E080E090E004C0660F771F881F991F7F
:103400004A95D2F76095709580959095C695C6952A
:10341000C370602B712B822B932BC23049F058F470
:10342000C13019F00E94651FE4CE0E94531FE1CE07
:103430000E94771FDECE0E94C81EDBCECF70112304
:1034400029F08C2F0E94EE1E8D2F1DCF8D2F0E94F4
:103450008E188C2F0E940F1FCCCED23F89F160F4C2
:10346000D03FC9F0D13F29F1112309F442C0011125
:10347000A8CE8C2F8F7121C0D33F39F1D43FA1F753
:10348000112369F1CF718C2F0E94EE1E63E08C2F07
:103490000E94F420AECE112341F0053008F0A9CEF1
:1034A0008C2F8F710E94321FA4CE063008F0A1CE5F
:1034B000F7CF8C2F8F71112369F20E94EE1E99CEE7
:1034C0008C2F8F711123C9F3C5CF112329F08C2FB5
:1034D0008F710E94D91E8DCE0E94D41E8ACE81E0AB
:1034E0000E940921023008F484CE82E00E94092162
:1034F00080CE002359F0D93309F0F4CE8FEF93EF4B
:10350000E1E081509040E040E1F7EACE8C2F8F71EE
:10351000A1CF4C2F4F706D2FC6010E94F6060E945E
:10352000041E67CE4C2F4F706D2FC6010E94F90606
:1035300060CEDF91CF911F910F91FF90EF90DF90C0
:10354000CF90BF9008950F931F93CF93DF93EC011B
:10355000688179818A810E9429208C010E94891FBB
:103560000E948B1EB801CE01DF91CF911F910F9168
:103570000C949518CF93DF93EC018B819C81892B60
:1035800029F08881998189238F3F59F4DF91CF9168
:103590000895CE010E94A31ACE01DF91CF910C9421
:1035A0005B05CE010E94AE068111F3CF0E946B2015
:1035B000882361F38A81882349F382E0DF91CF91E8
:1035C0000C9409210E9492200E94A2200E94BE20F9
:1035D00090E080E00E94ED1690E080E00C940317EC
:1035E0000E945B200C94E21A0E9482200C94F01A34
:1035F000E92FE295EF70E250EE3070F4F0E0E5571D
:10360000F14D0C94682A803F19F020F4883E20F494
:1036100081E00895843FE1F380E00895883EC0F39F
:10362000813FD1F7F5CF93FB882780F908950E9459
:103630001F200C94F81ACF93DF9300D000D00F9284
:10364000CDB7DEB70F900F900F900F900F90DF91D6
:10365000CF910895CF93DF9300D000D000D0CDB7A5
:10366000DEB726960FB6F894DEBF0FBECDBFDF9152
:10367000CF9108951F93CF93DF93C0913A0416E042
:1036800080913B048C1304C0DF91CF911F9108956A
:10369000D0E01C9FF0011D9FF00D1124E45CFB4F56
:1036A0004081518162817381848195810E942A1BAE
:1036B0002196C770E5CF40916C0450916D046091E4
:1036C0006E0470916F0480917004909171040C9459
:1036D0002A1B1F93CF93DF9380917104807FA9F4FD
:1036E00080916E04882389F080913A04C0913B0454
:1036F00060916C0470916D04A0916F04B09170049E
:10370000D62FD72316E0C81304C0DF91CF911F91A5
:10371000089590E0109711F0DF3F19F4019687703B
:10372000F2CF189F9001199F300D1124F901E45C2C
:10373000FB4F41814713F2CF40814613EFCF4281C7
:103740004111ECCF438154814A1B5B0B483C51052E
:1037500028F7809171048F70806180937104F90162
:10376000EF5BFB4F80818F70806180838CE694E0FB
:103770000E94BA1ADF91CF911F910C943A1BAF921D
:10378000BF92CF92DF92EF92FF920F931F93CF934E
:10379000DF93CDB7DEB761970FB6F894DEBF0FBEEB
:1037A000CDBF8C0185E0F801DE011D9601900D92E0
:1037B0008A95E1F7F80140815181E2808CE6C82EBC
:1037C00084E0D82E60916F047091700461157105CA
:1037D00009F461C190916C0420916D04892F8223BA
:1037E0008F3F09F458C1A380B480F0906E04F501B6
:1037F000E61BF70BFF2009F4FCC080917104382F01
:10380000307FE83CF10508F0B2C0311179C0FE2CE0
:10381000251323C0941321C0E1101FC08F70806155
:10382000809371040E945B1BC6010E94BA1A8091AA
:103830007104F80185838F2D61960FB6F894DEBF71
:103840000FBECDBFDF91CF911F910F91FF90EF90F1
:10385000DF90CF90BF90AF900895AB2829F0842FD0
:1038600085238F3F09F033C180E0F82FF170DF2E00
:1038700080FF3CC080913A0420913B0436E08213E3
:1038800015C04D875E878D859E850E941F20292F3C
:1038900022952F702230F0F0243018F59F70F1F04F
:1038A000F8019581907FD1F4D12C1EC090E0389F13
:1038B000F001399FF00D1124E45CFB4F6181651329
:1038C00006C06081641303C062816E110FC001964F
:1038D0008770D5CF9F7011F0882331F3805E8830D8
:1038E00018F3C8010E94BA1AFD2CA5CFEE2009F4E6
:1038F000A2CF80917104816080937104F12C9BCFE1
:10390000251306C0941304C0F801EE2009F48DC0FD
:103910004D875E878D859E850E94171B882319F130
:10392000EE2009F180917104803270F020916C04D6
:1039300030916D0438872F831986BB86AA868C87C1
:10394000CE0107960E94BA1A86E0F801ACE6B4E010
:1039500001900D928A95E1F70E94691B0E945B1B02
:10396000FF24F39468CFC8010E94BA1AF9CF31112D
:1039700013C07A2DB98AA88A6E2D89890E941B1BD3
:103980008CE694E00E94BA1A86E0F60111928A95BC
:10399000E9F70E945B1BB2CF25130FC094130DC033
:1039A000E1100BC0F8018583C8010E94BA1A86E0B5
:1039B000F60111928A95E9F73ECF4D875E878D8596
:1039C0009E850E94171B882371F2EE2061F2809180
:1039D0007104803208F4B8CF20916C0430916D04EA
:1039E0003A8329831B82BD82AC828E83CE010196ED
:1039F000A9CFE83CF10508F041C0FE2CEE2009F407
:103A0000B2CF25132AC0941328C08091710480FD81
:103A10001BC0982F907FC1F0F8018583903F31F053
:103A2000982F907F905F8F70892B8583C8010E94AB
:103A3000BA1A86E0F801ACE6B4E001900D928A95DE
:103A4000E1F70E945B1BF7CE86E0F801ACE6B4E03C
:103A500001900D928A95E1F7EECE4D875E878D85B8
:103A60009E850E94171B81116FCF80917104816028
:103A700080937104C8010E94BA1ADDCE7A2DB98AEA
:103A8000A88A6E2D89890E941B1B86E0F60111927F
:103A90008A95E9F7D6CFEE2009F465CF4D875E878A
:103AA0008D859E850E94171BF82E882309F45BCF15
:103AB00086E0F801ACE6B4E001900D928A95E1F75A
:103AC0008CE694E00E9401180E94691BBACF81E045
:103AD0008E25CBCE1F93CF93DF93CDB7DEB72C9738
:103AE0000FB6F894DEBF0FBECDBF4F8358876987EE
:103AF0007A878B879C87CE0107960E94BF1B8823FD
:103B000069F08A859B85892B39F04F815885842FF0
:103B100085238F3F09F071C016E05FC086E0FE018B
:103B20003796DE01119601900D928A95E1F78A850C
:103B30009B85892B89F388859F8189238F3F61F33A
:103B400020913B0430E0C90101968770992740918C
:103B50003A044817190671F40E94F41A10923B04B3
:103B600010923A0486E0ECE6F4E0DF011D928A95BB
:103B7000E9F7D2CF96E0929FD001939FB00D112428
:103B8000A45CBB4FFE01319601900D929A95E1F72E
:103B900080933B040E943A1BBFCF819FC001112438
:103BA000845C9B4F0E94BF1B8823E9F0E0913A049C
:103BB0001E9FF0011124E45CFB4F40815181628122
:103BC0007381848195810E942A1B80913A0490E040
:103BD00001968770992780933A0480913A049091D6
:103BE0003B048913DACF2C960FB6F894DEBF0FBED4
:103BF000CDBFDF91CF911F91089569857A858B851F
:103C00009C850E942A1B88CFEF92FF920F931F93EF
:103C1000CF93DF938C01892B81F0F12CEE24E39478
:103C2000E8012196F8018491843770F4843008F01B
:103C30005FC08130B1F08230A1F1DF91CF911F914F
:103C40000F91FF90EF900895853709F44CC008F468
:103C50003DC09CE7980F903780F78F770E944C18F3
:103C600049C00E5F1F4FFE01849190E2980F98307B
:103C700060F48770FE2D01C0FF0F8A95EAF78F2F41
:103C80000E9495200E94BE2002C00E9406188F2D1F
:103C9000815030F2EFECF7E03197F1F700C000000F
:103CA000F7CF0E5F1F4FFE01849190E2980F98307E
:103CB00050F48770FE2D01C0FF0F8A95EAF78F2F11
:103CC0000E949B20DFCF0E944C18E1CF0E5F1F4F58
:103CD000FE01C491C150D8F28FEC97E00197F1F743
:103CE00000C00000F7CF0E5F1F4FFE01F490CFCF52
:103CF0000E9406188E01CBCF08950C947C1E0E9462
:103D00007D1E60938504709386048093870490934E
:103D100088040C94E21A08950C947F1E0F931F934D
:103D200000918504109186042091870430918804C5
:103D3000602B712B822B932B1F910F910C947F1E64
:103D40000F931F930091850410918604209187049E
:103D50003091880460237123822393231F910F9154
:103D60000C947F1E0F931F9300918504109186047D
:103D70002091870430918804602771278227932738
:103D80001F910F910C947F1E0C947C1E0C94C41EEA
:103D90000E94C61E60938104709382048093830402
:103DA000909384040C94E21A60E070E0CB010C94D0
:103DB000C81E0F931F9341E050E060E070E08A015D
:103DC0009B0104C0000F111F221F331F8A95D2F7D9
:103DD000C901B8011F910F910C94C81E0F931F9336
:103DE00041E050E060E070E004C0440F551F661FE2
:103DF000771F8A95D2F78091810490918204A091D7
:103E00008304B09184048A019B01082B192B2A2B6F
:103E10003B2BC901B8011F910F910C94C81E0F9341
:103E20001F9341E050E060E070E004C0440F551F74
:103E3000661F771F8A95D2F7CB01BA0160957095FE
:103E400080959095009181041091820420918304C3
:103E50003091840460237123822393231F910F9157
:103E60000C94C81E0F931F9341E050E060E070E097
:103E700004C0440F551F661F771F8A95D2F78091A3
:103E8000810490918204A0918304B09184048A01FA
:103E90009B01082719272A273B27C901B8011F9131
:103EA0000F910C94C81E0F931F93009181041091E1
:103EB00082042091830430918404602B712B822B27
:103EC000932B1F910F910C94C81E0F931F93009179
:103ED0008104109182042091830430918404602332
:103EE0007123822393231F910F910C94C81E0F936B
:103EF0001F930091810410918204209183043091DA
:103F0000840460277127822793271F910F910C94B7
:103F1000C81E0895990F990F890F982F977041E047
:103F200001C0440F9A95EAF786958695869595E0A7
:103F3000899FF0011124EE58FB4F30E020E070E043
:103F40005191DF011197CB01022E02C09695879502
:103F50000A94E2F7817081958527842385278C93C5
:103F60002F5F3F4F2530310559F70895990F990F6D
:103F7000890F982F977086958695869525E0829F64
:103F8000F0011124EE58FB4F50E040E080E0219119
:103F900030E0092E02C0369527950A94E2F7217089
:103FA0003327042E01C0220F0A94EAF7822B4F5FB9
:103FB0005F4F4530510559F70895BF92CF92DF9278
:103FC000EF92FF920F931F93CF93DF938C01C090DA
:103FD0008104D0908204E0908304F0908404809166
:103FE000850490918604A0918704B0918804C82A22
:103FF000D92AEA2AFB2ACFE1D0E0BC2ED701C6019C
:104000000C2E04C0B695A795979587950A94D2F77C
:1040100080FD0EC0219788F7B12C8B2DDF91CF91B9
:104020001F910F91FF90EF90DF90CF90BF90089578
:10403000B8018C2F0E940207019761F3EECFCF9356
:10404000DF93EC010E94DD1FBE01DF91CF910C9444
:1040500002071F93CF93DF93EB01909139049923CB
:1040600031F0CB01DF91CF911F910C941F20882359
:1040700079F0CB010E94DD1F182F682FCE010E941E
:104080008A1FBE01812FDF91CF911F910C940207EF
:10409000CB010E94B61F182FF4CF682F809120010A
:1040A000909121010C945822682F809120019091C9
:1040B00021010C94632280912001909121010C94A4
:1040C0006E228091890485958595859508958091C6
:1040D00089048770089590918904977081E009F4AC
:1040E00080E008958091AD0408959091AD04892BEE
:1040F0008093AD04089580959091AD04982390939A
:10410000AD0408951092AD0408959091AC04892BEC
:104110008093AC04089580959091AC04982390937B
:10412000AC0408951092AC0408959091AB04892BCF
:104130008093AB04089580959091AB04982390935D
:10414000AB0408951092AB04089580918A040895F9
:1041500008950C94A82090918A04981721F08093D8
:104160008A040C94A920089580918A04882329F058
:1041700010928A0480E00C94A9200895E091200117
:10418000F09121018091AD048083E0912001F091B4
:10419000210180819091AC04892B8083E0912001E2
:1041A000F091210180819091AB04892B80839091C3
:1041B0008A04992381F0E0912001F091210180810E
:1041C000892B808380912001909121010E94C4213C
:1041D00081110E94B42080912001909121010C94C2
:1041E000D31608950C94F12098E0899F9001112432
:1041F000622B609389040E94EE1E8091890485954C
:10420000859585950C94F2201092890480E00C9499
:10421000F220909189048095892380938904282F26
:10422000277071F4282F082E000C330B92171306F9
:1042300039F08595859585950E940F1F0C94042172
:1042400008956FEF7FEF90E080E00C94A22D90E056
:1042500080E00E947E2D21E08C3E9E4F09F020E000
:10426000822F089582E090E00C94702D83E090E01E
:104270000C94702DCF9384E090E00E94702DC82F95
:1042800081E290E00E94702D982F8C2FCF9108959D
:10429000CF93C92F682F84E090E00E94842D6C2F6B
:1042A00081E290E0CF910C94842DAB01BC018FE0B2
:1042B00090E00C94962DAB01BC0183E190E00C944E
:1042C000962D60E070E0CB010C945B216CEE7EEFEC
:1042D00090E080E00E94A22D60E082E090E00E94E9
:1042E000842D60E083E090E00E94842D109285048C
:1042F00010928604109287041092880460E084E093
:1043000090E00E94842D60E081E290E00E94842D84
:1043100060E085E090E00E94842D60E086E090E01F
:104320000E94842D6FEF87E090E00E94842D40E092
:1043300050E0BA0188E090E00E94962D60E08DE0A8
:1043400090E00E94842D40E050E0BA0188E190E0C6
:104350000E94962D60E087E190E00E94842D40E06D
:1043600050E0BA018CE190E00E94962D60E080E27E
:1043700090E00E94842D0C9405050C946621682F12
:104380008EE090E00C94842DFC01329680912C01FB
:10439000882321F0809161059EE187FF96E080E00F
:1043A000915008F4089521912223D1F38F5FF8CF23
:1043B000662301F120912C012223F1F02091610567
:1043C00027FF1AC0462F4695469546954E3190F4E4
:1043D000677021E030E002C0220F331F6A95E2F7D8
:1043E000840F911DFC01828190E02823392381E014
:1043F000232B69F480E00895FC0132960896219100
:10440000261721F0E817F907D1F7F4CF81E00895D6
:104410009C01FC0132969FEF80E04191461751F0DC
:104420009F3F19F4411101C0982F8F5F8630A9F783
:104430009F3F09F40895290F311D97FD3A95F90121
:1044400062830895FC01329608962191261303C0D9
:10445000DF0111971C92E817F907B9F70895E62FC5
:10446000E695E695E695EE3168F4E80FF92FF11D33
:10447000677021E030E001C0220F6A95EAF782817F
:10448000822B82830895E62FE695E695E695EE3138
:1044900070F4E80FF92FF11D677021E030E001C0E2
:1044A000220F6A95EAF720958281282322830895B6
:1044B00020912C01222329F02091610527FD0C94E5
:1044C0002F220C94082220912C01222329F02091E4
:1044D000610527FD0C9443220C942222FC013296A4
:1044E00080912C01882351F08091610587FF06C0DF
:1044F0008EE1DF011D928A95E9F7089586E0F9CFF4
:1045000008950C9480220E94F41A0E94C7160E94FB
:1045100096060C9481221F921FB61F9211248F932E
:104520009F93AF93BF938091AF04811113C080918B
:104530005D0590915E05A0915F05B0916005419683
:10454000A11DB11D80935D0590935E05A0935F054D
:10455000B0936005BF91AF919F918F911F901FBE47
:104560001F90189582E084BD93E095BD9DE797BDAF
:1045700080936E0008952FB7F89480915D05909117
:104580005E05A0915F05B09160052FBF08952FB71C
:10459000F89460915D0570915E0580915F05909142
:1045A00060052FBF08959C014FB7F89480915D0579
:1045B00090915E05A0915F05B09160054FBF821B91
:1045C000930B089578941F921FB61F9211248F9316
:1045D0009F93AF93BF9380915D0590915E05A091ED
:1045E0005F05B09160050196A11DB11D80935D0529
:1045F00090935E05A0935F05B0936005BF91AF9166
:104600009F918F911F901FBE1F90189581E08093FE
:10461000E00080E28093D8001092C9008FE097E21A
:104620000197F1F700C0000087E090EBDC01809378
:10463000700590937105A0937205B093730588E19E
:104640009CE00FB6F894A895809360000FBE9093FD
:104650006000FFCF0C94A7110E943F098FE19EE4F8
:104660000197F1F700C000000E943F0980E00E941E
:10467000EE0880FF04C00E942A230C9406230895AC
:104680000E942721811102C00E94BD210E94322177
:104690008093AE040E943A21909362058093610555
:1046A0000E943621682F70E090E080E00C948C1E10
:1046B0008091D00408950895CF93DF9300D00F9296
:1046C000CDB7DEB790916705943011F589837B8370
:1046D0006A839093E9008FEF9091E800815095FDF7
:1046E00006C09AE69A95F1F700C08111F5CF809146
:1046F000E80085FF0DC050E040E063E070E0CE01CF
:1047000001960E9464258091E8008E778093E800EE
:104710000F900F900F90DF91CF910895CF93DF937B
:10472000EC010E945D25823011F0843031F4BE012D
:1047300084E0DF91CF910C945C23DF91CF910895B9
:10474000BC0183E00C945C23CF93DF93EC010E94C7
:104750005D25823011F08430B9F580912C018823D9
:10476000B1F18091610587FF32C060E284E08093FF
:10477000E9008FEF9091E800815095FD06C09AE620
:104780009A95F1F700C08111F5CF8091E80085FF7F
:104790001BC080912C0170E050E040E0811104C00A
:1047A00050E040E068E070E0CE010E946425809116
:1047B000E8008E778093E80080E2FE01A0EBB4E091
:1047C00001900D928A95E1F7DF91CF91089568E00D
:1047D00081E0CDCFCF93FC01603221F58091670558
:1047E000843001F5C091E900CF702091EC00922F48
:1047F000917020FD90E8C92B82E08093E9008091C0
:10480000E80080FF0CC050E040E060E270E0CF01C3
:104810000E9464258091E8008E778093E800CF7035
:10482000C093E900CF91089580916605811109C078
:104830000E9443270E94A0278091E2008460809319
:10484000E2000895109266050895089508950C9465
:10485000832242E061EC81E00E94BF2642E261ECEB
:1048600084E00E94BF2642E261EC82E00E94BF2603
:1048700042E260EC83E00C94BF26809169058330AE
:1048800009F461C030F48130D1F1823009F49DC067
:1048900008958A3009F489C08B3009F46FC08930DB
:1048A00009F050C080916805813209F04BC08091B9
:1048B0006C0590916D05009719F0029709F042C0C0
:1048C0008091E800877F8093E8008091E80082FF74
:1048D00035C09091F3008091F200029729F4809105
:1048E000F1008B7F813021F48091F1008093D0041E
:1048F0008091E8008B778093E8000C94F3268091F8
:104900006805813AF9F48091E800877F8093E80098
:1049100080916C0590916D05892B61F460E280EBCC
:1049200094E070E00E9402268091E8008B778093EB
:10493000E800089560E090E080E0F3CF80916705A3
:104940008111C3CF089580916805813AD9F780918C
:104950006C0590916D05892BA9F78091E800877F00
:104960008093E8008091E80080FFFCCF80912C01CB
:104970008093F1008091E8008E77BDCF809168052B
:10498000813201F780916C0590916D05892BD1F6EC
:104990008091E800877F8093E8000E94F326809151
:1049A0006A0580932C010C94F41A80916805813279
:1049B00049F68091E800877F8093E8000E94F32603
:1049C00080916B058093D104089580916805813AA8
:1049D00009F0B8CF8091E800877F8093E80080914C
:1049E000E80080FFFCCF8091D104C2CF0C94F82462
:1049F000292F33272330310521F168F42130310587
:104A000009F449C02230310509F44AC090E080E041
:104A100030E020E029C02132310581F12232310518
:104A2000A9F76330710590F7FB01EE0FFF1FE95501
:104A3000FD4F208131816C557D4FFB01808190E0DD
:104A400013C099278130910599F0009741F0823089
:104A5000910589F00397D1F6E6E2F4E002C0E2E5C1
:104A6000F4E0849190E09F01FA013183208308955E
:104A7000E0E4F4E0F6CFECE2F4E0F3CF633071056C
:104A800028F6660F771FFB01E355FD4F208131812A
:104A900089E090E0E9CF82E190E021EB34E0E4CFDF
:104AA0008BE590E026E534E0DFCF80916705843028
:104AB00011F482E0089581E008958091D20481117B
:104AC00002C00C9455250895AF92BF92CF92DF9209
:104AD000FF920F931F93CF93DF936C01EB018A0139
:104AE0000E941227F82E811123C00115110539F0FB
:104AF000F80180819181C81BD90BC80ED91EB12C39
:104B0000A12C2097A9F08091E80085FD22C080911A
:104B1000E8008E778093E80001151105A1F0F801F7
:104B200080819181A80EB91EB182A08285E0F82E05
:104B30008F2DDF91CF911F910F91FF90DF90CF903C
:104B4000BF90AF9008950E9412278823D1F2F82ECB
:104B5000EFCFF60181916F018093F1002197FFEF74
:104B6000AF1ABF0ACECFAF92BF92CF92DF92FF9221
:104B70000F931F93CF93DF936C01EB018A010E9487
:104B80001227F82E811123C00115110539F0F80103
:104B900080819181C81BD90BC80ED91EB12CA12CC4
:104BA0002097A9F08091E80085FD22C08091E8005F
:104BB0008B778093E80001151105A1F0F801808141
:104BC0009181A80EB91EB182A08285E0F82E8F2DAA
:104BD000DF91CF911F910F91FF90DF90CF90BF9009
:104BE000AF9008950E9412278823D1F2F82EEFCFBC
:104BF0008091F100F60181936F012197FFEFAF1AC9
:104C0000BF0ACECFFC0180916E0590916F0586178B
:104C10009707A0F06115710529F49091E8009E773F
:104C20009093E80090E06115710551F4911108C06E
:104C30008091E80082FF34C080E00895BC01F2CF8B
:104C4000809167058823C1F18530C1F18091E8002A
:104C500083FD30C08091E80082FDEACF8091E800BA
:104C600080FFE1CF8091F3002091F200382F611591
:104C7000710519F02830310558F091E028303105E0
:104C800009F090E02091E8002E772093E800CBCF48
:104C900081918093F100615071092F5F3F4FE7CF01
:104CA00080916705882341F0853041F08091E800CC
:104CB00083FFBECF81E0089582E0089583E00895E8
:104CC000FC0180916E0590916F0586179707A0F003
:104CD0006115710529F48091E8008E778093E800D2
:104CE00090E06115710551F4911108C08091E800C0
:104CF00082FF35C080E00895BC01F2CF8091670546
:104D00008823C9F18530C9F18091E80083FD31C065
:104D10008091E80082FDEACF8091E80080FFE1CF3A
:104D20008091F3002091F200382F6115710519F080
:104D30002830310558F091E02830310509F090E035
:104D40008091E8008E778093E800CBCF84918093A8
:104D5000F1003196615071092F5F3F4FE6CF80918E
:104D60006705882341F0853041F08091E80083FF9A
:104D7000BDCF81E0089582E0089583E00895982FE3
:104D8000973028F08F708093E90081E00895909328
:104D9000E900242F762F50E0981731F07091EC0045
:104DA0002091ED005091F00021FD02C09F5FE8CFFF
:104DB0003091EB003E7F3093EB003091ED003D7F72
:104DC0003093ED003091EB0031603093EB00709345
:104DD000EC002093ED005093F0002091EE0027FDB1
:104DE000E5CF80E008958091680587FF13C080912A
:104DF000E80082FF06C08091E8008B778093E8008E
:104E000004C0809167058111F2CF089580916705F4
:104E10008823D9F38091E80080FFF8CF8091E800E3
:104E20008E77ECCF2091E4003091E50095E6A90162
:104E30002091EC00822F817020FF06C08091E80055
:104E400080FF06C080E008952091E80022FD1AC08E
:104E500080916705882389F0853089F08091EB0087
:104E600085FD0FC02091E4003091E5004217530703
:104E7000F9F29150E1F684E0089582E0089583E02C
:104E8000089581E008950E94B1270E94B927E0EEBD
:104E9000F0E0808181608083E8EDF0E080818F77B1
:104EA000808319BCA7EDB0E08C918E7F8C938081BC
:104EB0008F7E80831092660508950F931F93CF9382
:104EC000DF930E94B1270E94B927C8EDD0E0888106
:104ED0008F77888388818068888388818F7D8883A5
:104EE00019BC109267051092630510926505109227
:104EF000640500EE10E0F80180818B7F808388815B
:104F00008160888342E060E080E00E94BF26E1EE9D
:104F1000F0E080818E7F8083E2EEF0E0808181602E
:104F20008083808188608083F80180818E7F808388
:104F3000888180618883DF91CF911F910F910895BF
:104F4000E8EDF0E080818F7E8083E7EDF0E0808106
:104F50008160808384E082BF81E0809366050C9449
:104F60005D27E8EDF0E080818E7F80831092E20083
:104F700008951092DA001092E10008951F920F92A6
:104F80000FB60F9211242F933F934F935F936F931C
:104F90007F938F939F93AF93BF93EF93FF938091F2
:104FA000E10082FF0BC08091E20082FF07C0809188
:104FB000E1008B7F8093E1000E94252A8091DA0036
:104FC00080FF18C08091D80080FF14C08091DA0063
:104FD0008E7F8093DA008091D90019BC80FF93C046
:104FE00082E089BD09B400FEFDCF81E080936705B2
:104FF0000E9414248091E10080FF19C08091E2009A
:1050000080FF15C08091E2008E7F8093E200809146
:10501000E20080618093E2008091D80080628093FA
:10502000D80019BC85E0809367050E9426248091F2
:10503000E10084FF2AC08091E20084FF26C019BCF1
:1050400082E089BD89B5982F917080FFFBCF809158
:10505000D8008F7D8093D8008091E1008F7E80936F
:10506000E1008091E2008F7E8093E2008091E20077
:1050700081608093E20080916305882309F448C031
:1050800084E0809367050E9427248091E10083FFDC
:1050900029C08091E20083FF25C08091E100877FD5
:1050A0008093E10082E08093670510926305809110
:1050B000E1008E7F8093E1008091E2008E7F8093FB
:1050C000E2008091E20080618093E20042E060E0D3
:1050D00080E00E94BF268091F00088608093F000FD
:1050E0000E942524FF91EF91BF91AF919F918F91E5
:1050F0007F916F915F914F913F912F910F900FBED4
:105100000F901F901895109267050E94222472CF6D
:105110008091E30087FD93E090936705B4CF1F92E1
:105120000F920FB60F9211242F933F934F935F93DB
:105130006F937F938F939F93AF93BF93CF93DF939F
:10514000EF93FF93D091E900DF708091EC00C82FBE
:10515000C17080FDC0E81092E9008091F000877F67
:105160008093F00078940E94D3281092E9008091F7
:10517000F00088608093F000CD2BCF70C093E900E1
:10518000FF91EF91DF91CF91BF91AF919F918F915F
:105190007F916F915F914F913F912F910F900FBE33
:1051A0000F901F9018951F93CF93DF93CDB7DEB765
:1051B000AA970FB6F894DEBF0FBECDBF88E695E084
:1051C0002091F100FC012193CF01F5E080379F078A
:1051D000B9F70E943D248091E80083FF1EC18091B1
:1051E0006805909169059A3008F017C1E92FF0E041
:1051F000E756F14D0C94682A803899F0823809F00E
:105200000CC180916C058F70873008F006C18093C7
:10521000E9008091EB0085FB882780F91092E90076
:1052200006C080916405909165059111826090910E
:10523000E800977F9093E8008093F1001092F100CE
:105240008091E8008E77E5C0882309F4D3C08230CE
:1052500009F0E3C080916A058111D6C080916C0588
:105260008F702FEF280F263008F0D7C08093E90009
:105270002091EB0020FFC8C0933031F48091EB0007
:1052800080628093EB00C0C09091EB00906190939E
:10529000EB0021E030E001C0220F8A95EAF720936D
:1052A000EA001092EA008091EB008860EACF811159
:1052B000B4C010916A051F778091E3008078812B3C
:1052C0008093E3008091E800877F8093E8000E944C
:1052D000F3268091E80080FFFCCF8091E300806896
:1052E0008093E30082E0111183E08093670595C00D
:1052F0008058823008F091C080916A0590916B05CA
:105300008C3D23E09207A1F583E08A838AE28983BA
:105310004FB7F894DE01139620E03EE051E2E32F10
:10532000F0E050935700E49120FF03C0E295EF7046
:105330003F5FEF708E2F90E0EA30C0F0C7968D93FC
:105340009D932F5F243159F74FBF8091E800877FED
:105350008093E8006AE270E0CE0101960E94022686
:105360008091E8008B778093E80057C0C096E7CF24
:1053700060916C0570916D05AE014F5F5F4F0E94AB
:10538000F624BC01892B09F448C09091E800977F6E
:105390009093E80089819A810E946026E1CF80384D
:1053A000E1F58091E800877F8093E80080916305B4
:1053B0008093F10045CF811130C090916A05923001
:1053C00060F58091E800877F8093E8009093630503
:1053D0000E94F32680916305882311F084E005C0C4
:1053E0008091E30087FDFACF81E0809367050E94FA
:1053F000292413C080916A05813079F481E09330CB
:1054000009F080E0809365051092E9008091E80042
:10541000877F8093E8000E94F3268091E80083FF55
:105420000AC08091E800877F8093E8008091EB00BC
:1054300080628093EB00AA960FB6F894DEBF0FBE91
:10544000CDBFDF91CF911F9108950895991B79E009
:1054500004C0991F961708F0961B881F7A95C9F704
:105460008095089587FB082E062687FD819567FDA8
:1054700061950E94262A0EF4919507FC8195089566
:10548000AA1BBB1B51E107C0AA1FBB1FA617B7076A
:1054900010F0A61BB70B881F991F5A95A9F7809586
:1054A0009095BC01CD01089597FB072E16F400944A
:1054B00007D077FD09D00E94402A07FC05D03EF4B2
:1054C000909581959F4F0895709561957F4F0895B0
:1054D000EE0FFF1F0590F491E02D099469279627A0
:1054E000692778278727782708958F929F92AF9210
:1054F000BF92CF92DF92EF92FF92CF93DF93EC01B6
:10550000688179818A819B81611571058105910589
:1055100021F464E279ED8BE597E02DE133EF41E092
:1055200050E00E94B82D49015A019B01AC01A7EA45
:10553000B1E40E94D72D6B017C01ACEEB4EFA50164
:1055400094010E94E52DDC01CB018C0D9D1DAE1D4B
:10555000BF1DB7FF03C00197A109B0488883998395
:10556000AA83BB839F77DF91CF91FF90EF90DF906D
:10557000CF90BF90AF909F908F9008950E94752A12
:10558000089580E091E00E94752A0895B0E0A0E0BF
:105590008093000190930101A0930201B093030155
:1055A0000895FC014150504030F001900616D1F7AB
:1055B0003197CF010895882799270895AEE0B0E08C
:1055C000E4EEFAE20C94F82D0D891E8986E08C83B6
:1055D0001A8309838FEF9FE79E838D83AE01475E19
:1055E0005F4F6F89788DCE0101960E94012B2F812C
:1055F0003885020F131FF80110822E96E4E00C94F8
:10560000142EABE0B0E0E7E0FBE20C94EA2D7C0165
:105610003B018A01FC0117821682838181FFB9C197
:105620009AE0292ECE0101965C01F7019381F301E6
:1056300093FD859193FF81913F01882309F446C131
:10564000853239F493FD859193FF81913F01853235
:1056500029F4B70190E00E94E22CE7CF912C412C75
:10566000512CFFE1F51538F08B3209F188F48032C6
:1056700001F1833221F157FC3AC020ED280F2A3086
:1056800040F556FE1FC0929C200D1124922E06C09C
:105690008D3291F0803379F7689450F8F30193FDDF
:1056A000859193FF81913F018111DBCF20C06894E8
:1056B00051F8689452F8F2CF689453F8EFCF689499
:1056C00054F8ECCF429C200D1124422E689455F8DA
:1056D000E5CF8E3229F456FCF9C0689456F8DECF37
:1056E0008C3619F4689457F8D9CF8836B9F2982FC8
:1056F0009F7D95549330C0F08336A1F18337C1F17B
:10570000833509F05BC0F801C190D1908F01692DFC
:1057100070E056FC02C06FEF7FEFC6010E94CC2CF8
:105720004C01689457F80AC00C5F1F4F2FE3298380
:1057300088248394912C6501E89457F853FC04C0A5
:105740004814190409F018F5342C8114910431F52A
:10575000332009F46ACFB70180E290E00E94E22C86
:105760003A94F6CFF801808189830E5F1F4FE0CF16
:10577000F801C190D1908F01692D70E056FC02C0F4
:105780006FEF7FEFC6010E94D72C4C01D5CFB70138
:1057900080E290E00E94E22C4A94D2CFF60157FCBE
:1057A000859157FE81916F01B70190E00E94E22C34
:1057B00031103A94F1E08F1A9108C7CF843619F06E
:1057C000893609F074C0F80157FE6AC06191719181
:1057D000819191918F01252D2F76D22E97FF09C0AF
:1057E00090958095709561957F4F8F4F9F4F6894EE
:1057F000D7F82AE030E0A5010E94122DC82ECA1861
:105800008C2C5D2CD6FE0CC0E89450F8C91440F4E2
:10581000D4FE05C0D2FC03C0FD2DFE7E5F2E892C78
:1058200054FE8FC0FE01EC0DF11D8081803309F024
:1058300081C0252D297E522E852D8870382E53FC4F
:105840008FC050FE89C09C2C841418F44C0C942CEE
:10585000981854FE8BC0B70180E390E00E94E22CC0
:1058600052FE09C088E790E051FE02C088E590E052
:10587000B7010E94E22CC91408F484C0CA94D12C48
:105880009FEFC91AD90ACA0CDB1CF60182916F017D
:10589000B70190E00E94E22CAC14BD04B1F758CFE0
:1058A00061917191072E000C880B990B93CFD52C29
:1058B000E894D4F82AE030E0853739F1952D997FC6
:1058C000D92E8F3601F148F48835A9F0F701868189
:1058D00097812B96E2E10C94062E803749F08837A9
:1058E000A9F7D4FE02C06894D2F820E130E00DC0E0
:1058F0006894D4F8F6CF54FE03C0E92FE660DE2E9C
:1059000020E132E002C028E030E0F801D7FE0DC00F
:1059100061917191819191918F01A5010E94122D48
:10592000C82ECA18E894D7F86BCF6191719190E0B6
:1059300080E0F2CF52FC02C083947ECF83948394A4
:105940007BCF852D867809F477CFF6CFB70180E23B
:1059500090E00E94E22C83948414C0F3312C79CF20
:10596000342C3818841408F474CFF8CF852D867839
:1059700009F481CF8BE251FE80E257FC8DE2B70142
:1059800090E077CFB70180E390E00E94E22C9A94F8
:1059900072CF8FEF9FEF9DCFFC010590615070405B
:1059A0000110D8F7809590958E0F9F1F0895FC01E8
:1059B0006150704001900110D8F7809590958E0F3E
:1059C0009F1F08950F931F93CF93DF93182F092FD5
:1059D000EB018B8181FD09C01FEF0FEF812F902F0D
:1059E000DF91CF911F910F91089582FF14C02E81F6
:1059F0003F818C819D81281739073CF4E881F9812A
:105A0000CF0101969983888310838E819F810196AF
:105A10009F838E83E3CFE885F985812F0995892BB4
:105A2000A1F3DACFFA01AA27283051F1203181F110
:105A3000E8946F936E7F6E5F7F4F8F4F9F4FAF4F96
:105A4000B1E03ED0B4E03CD0670F781F891F9A1FA9
:105A5000A11D680F791F8A1F911DA11D6A0F711D5D
:105A6000811D911DA11D20D009F468943F912AE069
:105A7000269F11243019305D3193DEF6CF01089551
:105A8000462F4770405D4193B3E00FD0C9F7F6CF82
:105A9000462F4F70405D4A3318F0495D31FD40524A
:105AA000419302D0A9F7EACFB4E0A69597958795E0
:105AB00077956795BA95C9F70097610571050895BF
:105AC0009B01AC010A2E069457954795379527956B
:105AD000BA95C9F7620F731F841F951FA01D089503
